:020000040000fa
:080000000018040001000000db
:020000040000fa
:10000800682b01004a2a0100542a01005e2a0100d7
:10001800682a0100722a0100682b0100682b010080
:10002800682b0100682b0100682b0100682b010078
:10003800682b0100682b0100682b0100682b010068
:10004800682b0100682b0100682b0100682b010058
:10005800682b0100682b0100682b0100682b010048
:10006800682b0100682b0100682b0100682b010038
:10007800682b0100682b0100682b0100682b010028
:10008800682b0100682b0100682b0100682b010018
:10009800682b0100682b0100682b0100682b010008
:1000a800682b0100682b0100682b0100682b0100f8
:1000b800682b0100682b0100682b0100682b0100e8
:1000c800682b0100682b0100682b0100682b0100d8
:1000d800682b0100682b0100682b0100682b0100c8
:1000e800682b0100682b0100682b0100682b0100b8
:1000f800682b0100682b0100682b0100682b0100a8
:10010800682b0100682b0100682b0100682b010097
:10011800682b0100682b0100682b0100682b010087
:10012800682b0100682b0100682b0100682b010077
:10013800682b0100682b0100682b0100682b010067
:10014800682b0100682b0100682b0100682b010057
:10015800682b0100682b0100682b0100682b010047
:10016800682b0100682b0100682b0100682b010037
:10017800682b0100682b0100682b0100682b010027
:10018800682b0100682b0100682b0100682b010017
:10019800682b0100682b0100682b0100682b010007
:1001a800682b0100682b0100682b0100682b0100f7
:1001b800682b0100682b0100682b0100682b0100e7
:1001c800682b0100682b0100682b0100682b0100d7
:1001d800682b0100682b0100682b0100682b0100c7
:1001e800682b0100682b0100682b0100682b0100b7
:0801f800682b0100682b0100d7
:020000040000fa
:10020800682b01007c2a0100842a01008c2a010045
:10021800942a01009c2a0100682b0100682b010028
:10022800682b0100682b0100682b0100682b010076
:10023800682b0100682b0100682b0100682b010066
:10024800682b0100682b0100682b0100682b010056
:10025800682b0100682b0100682b0100682b010046
:10026800682b0100682b0100682b0100682b010036
:10027800682b0100682b0100682b0100682b010026
:10028800682b0100682b0100682b0100682b010016
:10029800682b0100682b0100682b0100682b010006
:1002a800682b0100682b0100682b0100682b0100f6
:1002b800682b0100682b0100682b0100682b0100e6
:1002c800682b0100682b0100682b0100682b0100d6
:1002d800682b0100682b0100682b0100682b0100c6
:1002e800682b0100682b0100682b0100682b0100b6
:1002f800682b0100682b0100682b0100682b0100a6
:10030800682b0100682b0100682b0100682b010095
:10031800682b0100682b0100682b0100682b010085
:10032800682b0100682b0100682b0100682b010075
:10033800682b0100682b0100682b0100682b010065
:10034800682b0100682b0100682b0100682b010055
:10035800682b0100682b0100682b0100682b010045
:10036800682b0100682b0100682b0100682b010035
:10037800682b0100682b0100682b0100682b010025
:10038800682b0100682b0100682b0100682b010015
:10039800682b0100682b0100682b0100682b010005
:1003a800682b0100682b0100682b0100682b0100f5
:1003b800682b0100682b0100682b0100682b0100e5
:1003c800682b0100682b0100682b0100682b0100d5
:1003d800682b0100682b0100682b0100682b0100c5
:1003e800682b0100682b0100682b0100682b0100b5
:0803f800682b0100682b0100d5
:020000040000fa
:020000040002f8
:103000006f0821000e5f24000e0188000000000000
:10301000000020000000e00002003200000120005b
:103020002002880014000700830007000000e00071
:1030300003003a00e0ad220011002000020037003a
:103040000000200001002000810f7000010032000c
:1030500014000700000020000000e0000200320021
:103060000000020000000000f64f02000100000016
:103070000040da000000fe004440a900e00120000a
:103080000000e0000300320020002000a0018800c2
:103090004440a800000006008a1f78008b1f7800bb
:1030a0000000060091018800800478000000eb0019
:1030b0001a003700e284440032a0b4009905ba0037
:1030c000e284440032a0b4009906ba00e2844400cd
:1030d00032a0b4000006eb00476fde00fd07b2002f
:1030e000636ce10003003a00ebff07000000eb0017
:1030f0000a003700606ce10004003a00005deb005c
:103100008b05e900fdff3e00040037006168e10027
:10311000010032000086eb000b00070019c7ba005f
:103120001905ba000e04e00003003a000a00e000ae
:10313000e0ff3a0000000600fe07b2009e01880092
:103140008a047800f5ff3700395dba008b05e90085
:103150000c003200295dba008b05e900080032003e
:103160000c00e00003003a00e284440032a0b40006
:10317000f5ff370019ddba008b05e900faff3a00c8
:103180008904e800e184440032a0b4000000060095
:10319000004178000040eb000201fb00cf91de000f
:1031a00071002000810f5100e08f590021003e0086
:1031b0000260010007003700080037000a003700ee
:1031c0000b0037000d0037000e00370010003700ed
:1031d00014003700802180000e003700008020009e
:1031e0003004b6000c003700902180000900370041
:1031f000008020003204b60007003700a0218000c4
:1032000004003700008020003404b60002003700bc
:10321000b0218000680060000000e9004f00de007f
:1032200000000600008020003604b6000000e9001f
:103230004f00de0000000600000005003200f8002c
:10324000023b8800910188000008bb000500fc00db
:1032500051052000313b8800a10a2000313b880045
:1032600061e7a80000000000000000003200f90043
:10327000000006000400a100010037000400a000c7
:103280003200f8009101880011002400013b880001
:10329000f10f20003208bb000400a700b200780044
:1032a0000198bb008301e900faff3a006801510070
:1032b0000400a70068015100680050001208bb001c
:1032c000e2ff3700f30f20003200f8009101880080
:1032d00031002400013b88000208bb000388bb00ca
:1032e000daff37003200f800003b8800d7ff3700d4
:1032f0003200f800910188008002780062004000ee
:103300003549ba00e08048003204e0000410a7000c
:10331000100032008301e9000e0032002549ba0096
:103320003204e0000410a7000a0032008301e90023
:10333000080032000408a300eeff320015c9ba00ed
:103340003204e0000410a700020032008301e9000b
:10335000e8ff3a003200f900000006008001780022
:1033600002003700815978000201e9000200e00004
:10337000fcff3a00000006008000780001017800a0
:103380003104e000fdff3a0000005100000006009b
:103390000c003700b0417800b1cf51000600320078
:1033a000100020009542780094cf52000b003100ad
:1033b0000080eb00000006000304e000060032007d
:1033c0000201e90001027800800278000200e000ba
:1033d000f0ff3a00000005000000eb0000000600ce
:020000040000fa
:020000040002f8
:1033e000426f00006f7400006c6f000061640000a9
:1033f0006572000000000000426f00006f74000062
:103400006c6f0000616400006572000020560000cf
:0c341000312e0000300000000000000021
:020000040000fa
:020000040002f8
:10341c002000fa00200f9800320f9800430f9800fc
:10342c00510f9800640f9800750f98006000b80059
:10343c00008fbe006000b80020079800310798008c
:10344c006000b80040079800510798000004a800dd
:10345c002e08900000004000000040008000780022
:10346c000044200000804000600798002e08900067
:10347c004280de0000004000800078000042200006
:10348c0000804000700798002e0890004380de00fa
:10349c000000400080007800804120000080400047
:1034ac00000f980040412000100f98003e0990003a
:1034bc00ce099000f07f200001002000020278006d
:1034cc00830178000001780001007800020162009d
:1034dc00008061008000eb00c000dd0000002000d7
:1034ec00008fbe006110b8001e1f70001e97700088
:1034fc001e007800c500dd006e0090000108780009
:10350c006e009000640040008000eb000108780021
:10351c007e009000900078002e0890006300600000
:10352c004200dd006e0990000010dd00810070008b
:10353c007e009000010878000e0890009000780042
:10354c002e08900067006000000040007e0990008b
:10355c000010dd00810070000e089000010878005a
:10356c001e08900090007800120020002e08900099
:10357c000010dd00810070001e089000010878002a
:10358c000004a9000080fa00000006001600fa00f2
:10359c00881f780070079800020f9800130f98008e
:1035ac00210f98006000b800008fbe006000b800ca
:1035bc0020079800310798006000b8004007980079
:1035cc00510798000004a8007e0090004200dd0026
:1035dc000000400080007800004320000080400084
:1035ec00600798002e089000e10f50004f003a0041
:1035fc000e0990009e099000f0ff2f0001002000a2
:10360c000204780003017800800178000100780042
:10361c0003046400000061008000eb00c000dd00ca
:10362c00000020000001be006140b80000017100e4
:10363c008181710022079800330798000e089000d2
:10364c009e089000408bde00cf8bde000601be0092
:10365c0030002000010020000203780003017800f4
:10366c008001780001007800030363000000610012
:10367c008000eb00c000dd00000020000001be0057
:10368c006130b8000001710081817100420798001f
:10369c00530798000e0890009e089000428ade00a6
:1036ac00cf8ade000401be00f07f20000100200064
:1036bc000202780083017800000178000100780094
:1036cc0002016200008061008000eb00c000dd00a0
:1036dc0000002000008fbe006110b8001e1f70009b
:1036ec001e9770004e0090006d00400000017800a5
:1036fc001e00be00820178008301e9000300330044
:10370c000000400081804800fbff370080007800fb
:10371c006e009000010878006e009000640040007c
:10372c00ae00900001087800190037000e099000d7
:10373c009e099000f07f200001002000020278001a
:10374c00830178000001780001007800020162001a
:10375c00008061008000eb00c000dd000000200054
:10376c00008fbe006110b8001e1f70001e97700005
:10377c001e007800c500dd006e0090000108780086
:10378c006e009000640040008000eb00010878009f
:10379c000004a9004f0478000080fa000000060025
:1037ac002200fa00400f9800520f9800630f980007
:1037bc00710f9800041798006000b800008fbe00cd
:1037cc006000b80040079800510798006000b800ee
:1037dc0020079800310798006000b8006007980037
:1037ec00710798006000b800000f9800110f980046
:1037fc006000b800200f9800310f980010002000d6
:10380c00204088005e099000ee099000f003200033
:10381c00010020000202780003017800800178008a
:10382c000100780003026200000061008000eb00e0
:10383c00c000dd00000020000001be006120b800c7
:10384c000001710081817100020f9800130f980024
:10385c005e089000ee0890004a09dd004603de0089
:10386c0006037100c68bde000601be00f0072000c7
:10387c00010020000202780003017800800178002a
:10388c000100780003026200000061008000eb0080
:10389c00c000dd00000020000001be006120b80067
:1038ac000001710081817100220f9800330f980084
:1038bc005e099000ee099000f07f200001002000ce
:1038cc000202780003017800800178000100780082
:1038dc0003026200000061008000eb00c000dd000c
:1038ec00000020000001be006120b8000001710042
:1038fc008181710062079800730798000e10900088
:10390c00e10f500017003a006e009000fe0090008e
:10391c004209dd00ce01de00830171004201dd00b1
:10392c007e0890008000eb00000071008180710027
:10393c000001be000210a000028fbe000e09900014
:10394c009e0990004a18dd00c610de008100700050
:10395c004a10dd000090a000200798003107980065
:10396c00120037006e009000fe0090004209dd004e
:10397c00ce01de00830171004201dd007e08900063
:10398c008000eb00001f7100019771000e09900080
:10399c009e0990004a18dd00c610de008100700000
:1039ac004a10dd0020079800310798009e0078002f
:1039bc004e0890004401dd0000602400000041002e
:1039cc0001087800ce0090004e0890004401dd0004
:1039dc00206024000000410001087800ae00900037
:1039ec004e0890004401dd004060240000004100be
:1039fc00010878000080fa00000006000c00fa00b4
:103a0c00000f7800110798002207980033079800e0
:103a1c0044079800550798001e007800c400dd008c
:103a2c0040602400008040009e0090000108780057
:103a3c001e007800c400dd0060602400008040009f
:103a4c00ae009000010878001e007800c400dd0074
:103a5c008060240000804000be00900001087800c7
:103a6c001e007800c400dd00a0602400008040002f
:103a7c00ce009000010878001e007800c400dd0024
:103a8c00c060240000804000de0090000108780037
:103a9c000080fa00000006001600fa00700798007b
:103aac00010f9800120f9800435798000000eb008c
:103abc00000f78000e089000100078003007980076
:103acc000e0890000080e800000f98000e0890008f
:103adc0010007800400798000e0890000080e80065
:103aec00000f98000e089000100078005007980006
:103afc000e0890000080e800000f98000e0890005f
:103b0c001000780060079800fe00900011079800e4
:103b1c004e5090000080fb00200798003064a900f4
:103b2c000000eb00000f78000300370000000000dd
:103b3c000060fe001e0fe8000000eb0091fd070086
:103b4c000000e00004003a00e02f20009e00780006
:103b5c00808f5000f5ff34002e0090009e009000e6
:103b6c006109b900000278008000eb000000eb0056
:103b7c000bff07006e009000000278005e009000c2
:103b8c00800178004e009000000178003e0090000b
:103b9c00800078001e0890008402780003027800f0
:103bac008201780001017800800078000000eb00b1
:103bbc0092ff07003064a8000000eb00000f7800b3
:103bcc0003003700000000000060fe001e0fe8003c
:103bdc000000eb006bfd07000000e00004003a0061
:103bec00e02f20009e007800808f5000f5ff3400fd
:103bfc000080fa00000006001c00fa00200f98005c
:103c0c00310f9800420f9800530f98006000b800d5
:103c1c006011b8005007980061079800720798006f
:103c2c00030f98000040eb00004f78000040eb00c1
:103c3c00104798000040eb00204798000040eb0034
:103c4c00304798000040eb00004f98006000b8002f
:103c5c0020079800310798000060fe001e089000b5
:103c6c000010a100100f98001e0890000000a10089
:103c7c00100f980000482800e10120002007980050
:103c8c00310798000e0037000060fe002e009000f7
:103c9c00be00900061005000e080580020079800a2
:103cac00310798002e009000be009000e00f5000ed
:103cbc00e08f580002003a000040eb00880137000a
:103ccc0050418000c400dd000060240000804000f2
:103cdc00100078000000e000ebff32005041800043
:103cec00c400dd000060240000804000100078005b
:103cfc00c200de004e089000808f500033003a0066
:103d0c00504180004400dd00e600400000602400cb
:103d1c000080400090007800000c2000808f500044
:103d2c002a003a00000a2000500798000000eb001f
:103d3c00600798000000eb00700798000000eb0093
:103d4c00000f98006a0047008041eb0082002000c1
:103d5c00800078005e0890004fff07000040eb00e9
:103d6c002047980050418000c400dd000060240012
:103d7c00008040008000eb0001087800504180007a
:103d8c000000e8005041880050418000ff0f5000b7
:103d9c00090034002a24ef005021800040218800c3
:103dac004021800010218800102180000021880013
:103dbc0080002000504188000040eb001047980024
:103dcc009e409000014f7800400137005041800028
:103ddc00c400dd0000602400008040008000eb0087
:103dec0001087800504180000000e8005041880034
:103dfc0050418000ff0f5000090034002a24ef00ce
:103e0c005021800040218800402180001021880032
:103e1c001021800000218800800020005041880083
:103e2c000040eb002e0137000068290081092000ba
:103e3c0020079800310798000e0037002e009000e4
:103e4c00be00900061005000e080580020079800f0
:103e5c00310798000060fe002e009000be0090001c
:103e6c00e00f5000e08f580002003a000040eb00d9
:103e7c001b01370050418000c400dd0000602400ad
:103e8c0000804000100078000000e000ebff3200e2
:103e9c0050418000c400dd00006024000080400020
:103eac0010007800c200de004e089000808f500099
:103ebc008d003a00504180004400dd00e6004000d7
:103ecc00006024000080400090007800f007200083
:103edc00808060002e4090000000fb00808f50001e
:103eec0071003a001e4090000000fb00be089000dc
:103efc000080400051418000c408dd006681400014
:103f0c00016024008100410091007800c808de00a7
:103f1c0081407800014878001e4090000040e80085
:103f2c00104798001e4090000000fb00be08900057
:103f3c000080400051418000c408dd0068814000d1
:103f4c0001602400810041009100780081407800dc
:103f5c00014878001e4090000040e800104798008f
:103f6c001e4090000000fb00be0890000080400046
:103f7c0051418000c408dd006881400001602400cc
:103f8c008100410091007800c808de008140780073
:103f9c00014878001e4090000040e800104798004f
:103fac001e4090000000fb00be0890000080400006
:103fbc0051418000c408dd006a814000016024008a
:103fcc008100410091007800814078000148780020
:103fdc001e4090000040e800104798001e409000e2
:103fec000000fb00be0890000080400051418000a2
:103ffc00c408dd006a81400001602400810041009a
:10400c0091007800c808de008140780001487800f3
:10401c001e4090000040e800104798001e409000a1
:10402c000000fb00be089000008040005141800061
:10403c00c408dd006c814000016024008100410057
:10404c009100780081407800014878001e40900073
:10405c000040e800104798001e4090000000fb0054
:10406c00be0890000080400051418000c408dd0073
:10407c006c814000016024008100410091007800b7
:10408c00c808de0081407800014878001e4090008e
:10409c000040e800104798002e4090000040e800d7
:1040ac0020479800030037001e0890000010a00065
:1040bc00100f9800504180004400dd00e6004000e5
:1040cc000060240000804000900078000008200070
:1040dc00008060000000e000030032001e08900029
:1040ec000000a000100f980050418000c400dd00bb
:1040fc0000602400008040008000eb000108780084
:10410c00504180000000e800504188005041800080
:10411c00ff0f5000090034002a24ef0050218000ca
:10412c00402188004021800010218800102180004f
:10413c000021880080002000504188001e0890005b
:10414c00610060000000e00004003a001e089000ce
:10415c00620060000000e0005c0032002e40900025
:10416c000000fb00500798005e0090004800dd0046
:10417c0050079800de009000200a2000010070001b
:10418c00500798001e089000620060000000e000dc
:10419c0034003a000040eb003047980010c0b300e8
:1041ac00004f78003e0890000000e8007304070000
:1041bc006400400000407800004040001047980028
:1041cc000b003700be0890001e00fb000080400072
:1041dc006a040700804078003e40900000c0400018
:1041ec00304798001e40780000c0e800004f78006f
:1041fc001e4090009e40780080cf5000f1ff3500ab
:10420c003e4090000040ea0030479800be08900005
:10421c001e00fb000080400058040700004f98006f
:10422c00be4090000e48900080cf5000030032003a
:10423c001e0890000010a000100f98001e00fb003c
:10424c000080e900be089000008040004b0407008d
:10425c00e10f500003003a001e0890000010a1006e
:10426c00100f98001e089000620060000000e00033
:10427c0010003200de009000f00f20000080600083
:10428c00500798001e0890000010a100100f980015
:10429c001e0890000000a100100f98000040eb00d9
:1042ac00104798009e409000014f78000040eb00b2
:1042bc00204798006a0047008041eb0082002000f4
:1042cc00800078005e089000f3fd07001e08900047
:1042dc00610060000000e000d3fe32001e40900040
:1042ec000080fa00000006001a00fa00881f78000f
:1042fc0070079800010f9800120f98004357980010
:10430c00340f9800450f98000000eb00000f780068
:10431c000000eb00200798000000eb00300798002d
:10432c000000eb00100798000000eb00400798001d
:10433c006000b80050079800610798000060fe000c
:10434c007e0190008e09900000c02f00f1ff2f001d
:10435c0002027800030178008001780001007800e7
:10436c0003026200000061008000eb00c000dd0071
:10437c00000020000001be006120b80000017100a7
:10438c008181710052079800630798003e089000e5
:10439c001001be005e009000ee009000800f5100f6
:1043ac00818f5900310032004e08900010007800c7
:1043bc00700060000000e00004003a003e0890002d
:1043cc001000be004e099000d2000700fe009000c5
:1043dc0000c02f0000806000200798007e00900035
:1043ec008e0890004008de00300798000000eb00bb
:1043fc00000f7800190037000060fe001e04e80072
:10440c009e0078002e009000008040008000780014
:10441c003e009000b001070008014400e18220003a
:10442c0081004100800878009e0078002e009000ea
:10443c0000804000800078003e009000730107006f
:10444c00800078001e00780000014000e08220000f
:10445c0000004100010878001e8fe800f03f2000aa
:10446c009e007800808f5000e3ff34007e019000a6
:10447c008e09900000c02f00f1ff2f00020278007f
:10448c0003017800800178000100780003026200cb
:10449c00000061008000eb00c000dd000000200087
:1044ac000001be006120b800000171008181710023
:1044bc003e0890000288be000000eb00000f780060
:1044cc00fe009000f03f2000008060001007980074
:1044dc007e0037000060fe004e5090000040e90066
:1044ec00405798001e00900080004000e0822000a1
:1044fc00008040008000eb00010878001e0890004e
:10450c00104078008000fb001e009000000140006d
:10451c00e082200000004100010878001e08900095
:10452c000000e800100f98000000eb004007980016
:10453c001e089000104078000000fb004007980017
:10454c004e0090004800dd00400798001e009000cf
:10455c0080004000e0822000008040009000780045
:10456c00f00f2000808060001e00900000014000d1
:10457c00e082200000004100010878001e0090003d
:10458c0080004000e0822000008040001000780095
:10459c00800078004e0090000100700080007800d0
:1045ac001e00900000014000e0822000000041004d
:1045bc00010878001e0890000000e800100f980019
:1045cc001e0090000000e800100798001e009000ec
:1045dc0080004000e0822000008040008000eb0062
:1045ec00010878001e089000104078008000fb0045
:1045fc001e00900000014000e082200000004100fd
:10460c00010878001e0890000000e800100f9800c8
:10461c000000eb00400798001e0890001040780046
:10462c000000fb00400798004e0090004800dd00a1
:10463c00400798001e00900080004000e08220009f
:10464c000080400090007800f00f20008080600017
:10465c001e00900000014000e0822000000041009c
:10466c00010878001e00900080004000e0822000cd
:10467c000080400010007800800078004e00900010
:10468c0001007000800078001e00900000014000c6
:10469c00e082200000004100010878001e08900014
:1046ac000000e800100f98001e0090000000e800c9
:1046bc00100798009e009000f03f2000808f500063
:1046cc00020034000040eb00405798004e50900020
:1046dc000004e0007fff3c004e0890009000780042
:1046ec000140a100010878009e009000f03f2000de
:1046fc00808f5000040034003e0890001000be0073
:10470c004e099000030007004f0478000080fa0067
:10471c00000006000e00fa004007980051079800b0
:10472c00620798006000b8002007980031079800d5
:10473c006000b800008fbe004e019000de019000ba
:10474c0000c02f00f1ff2f00020278000301780057
:10475c008001780001007800030262000000610013
:10476c008000eb00c000dd00000020000001be0056
:10477c006120b8000001710081817100420798002e
:10478c00530798004e019000de019000220798001c
:10479c00330798002e019000be019000d07f2500b9
:1047ac0011002000800f5100818f59001e003e0027
:1047bc000060fe00220424002e009000be00900039
:1047cc009bfa07006000b800008fbe001000370095
:1047dc000060fe00e18220001e0078000000400016
:1047ec00008140002e009000be0090003e02400070
:1047fc00ae8248000400be00030420009cfa0700af
:10480c0002082000030020001e0f41005e974900a3
:10481c00f03f2000010020001e01be00800f51005f
:10482c00818f5900eaff36006e00900090007800ee
:10483c000140a000010878000080fa00000006008a
:10484c000408fa006000b800008fbe000060fe0093
:10485c00220424001e00be0075fa07000060fe0052
:10486c0064004700028020008080eb00b8fa07004b
:10487c00008021004100200020079800310798009b
:10488c0010002000010020004007980051079800fc
:10489c000060fe0064004700030420000001780063
:1048ac001e00be0072fa070000402000010020002c
:1048bc00008fbe00080037000060fe0022042400b8
:1048cc001e00be005afa0700004020000100200024
:1048dc001e0f40005e974800f0ff2f0001002000e3
:1048ec001e01be00800f5100818f5900f2ff36006f
:1048fc0000f82f0001002000008fbe00640047006c
:10490c00028020008080eb0091fa070000802100db
:10491c004100200060bf980071bf9800100020007b
:10492c000100200000079900110799000060fe00ab
:10493c006400470003042000000178001e00be0044
:10494c004bfa07000080fa00000006000e00fa0087
:10495c0050079800610798000000eb004007980092
:10496c006000b800008fbe005e009000cf80de00bb
:10497c00008fbe001e00be00c000dd000000200045
:10498c00008fbe0000002000f1ff2f001e01be00b2
:10499c0002027800030178008001780001007800a1
:1049ac0003026200000061008000eb00c000dd002b
:1049bc00000020000001be006120b8000001710061
:1049cc0081817100028fbe006e0090008000eb00b0
:1049dc001e1f70001e9770001e01be00220798005b
:1049ec0033079800680047000002eb00230020000a
:1049fc00000178002e009000be00900039fa0700ec
:104a0c004e0090000080fa00000006000e00fa0034
:104a1c0050079800610798000000eb0040079800d1
:104a2c006000b800008fbe006000b800200798003e
:104a3c00310798005e009000cf80de00008fbe0032
:104a4c001e00be00c000dd0000002000008fbe0074
:104a5c0000002000f1ff2f001e01be0002027800b2
:104a6c0003017800800178000100780003026200e5
:104a7c00000061008000eb00c000dd0000002000a1
:104a8c000001be006120b80000017100818171003d
:104a9c00028fbe006e0090008000eb001e1f7000a5
:104aac001e9770001e01be00220798003307980065
:104abc00680047000002eb00230020000001780092
:104acc002e009000be00900006fa07004e009000e9
:104adc000080fa00000006001200fa00889fbe0059
:104aec0070079800010f98000000eb00000f780091
:104afc006000b80010079800210798006000b8000b
:104b0c0050079800610798007e009000cf80de006f
:104b1c0010079800210798001e009000ae0090002e
:104b2c00c000dd000000200010079800210798004d
:104b3c001e019000ae01900000002000f1ff2f003c
:104b4c0002027800030178008001780001007800ef
:104b5c0003026200000061008000eb00c000dd0079
:104b6c00000020000001be006120b80000017100af
:104b7c008181710012079800230798000e0890009d
:104b8c008000eb001e019000ae019000000071004f
:104b9c008180710010079800210798001e01900079
:104bac00ae01900032079800430798006a00470056
:104bbc001400200033002000000178003e0090001b
:104bcc00ce009000c7f907005e009000ee00900048
:104bdc00408cde00cf8cde005807980069079800e7
:104bec005e019000ee019000f00f2000010020000b
:104bfc00020278000301780080017800010078003f
:104c0c0003026200000061008000eb00c000dd00c8
:104c1c00000020000001be006120b80000017100fe
:104c2c008181710052079800630798005e00900024
:104c3c00ee009000000f78001e0078004f04be00bc
:104c4c000080fa00000006000000fa00b023ef001c
:104c5c00b023ef00b823ef00ba23ef00b223ef002c
:104c6c00b423ef000080fa00000006000000fa00f8
:104c7c00bc23ef00c423ef00c623ef00be23ef00dc
:104c8c00c023ef000080fa00000006000000fa00cc
:104c9c00e023ef0000022200801d88002044200049
:104cac00c01d880070002000d01d8800600420000a
:104cbc00901d880000602000a01d8800b1e3a800b2
:104ccc000080fa00000006000000fa00e023ef006c
:104cdc0000022000e01d880000442000201e8800f7
:104cec0070002000301e880020022000f01d88007b
:104cfc0000602000001e8800bde3a8000080fa00c0
:104d0c00000006000000fa000164a8008120800069
:104d1c00000c2000010070008020880081208000a1
:104d2c0000fc2f00008060000000a00080208800a4
:104d3c0091208000800320000100700090208800ea
:104d4c0012e4a80091208000007020000100700087
:104d5c00902088009120800080ff2f000080600050
:104d6c000010a0009020880012c4a8000080fa0057
:104d7c00000006000200fa00000f780001208000fd
:104d8c00f08f2f000080600000a0a00000208800a1
:104d9c000000000001208000000e200080806000d8
:104dac0000082000808f5000faff3a00d5ff070062
:104dbc003120800000fe2f00008060000030a00039
:104dcc003020880031208000f0ff210080806000be
:104ddc0000002c0001007000302088001424ef002b
:104dec009860a9000ca4a9000c24a90030e4a90027
:104dfc0031e4a90032e4a90033e4a90034e4a900a9
:104e0c0035e4a90036e4a90037e4a90000602000cd
:104e1c001e0040006101b9008002eb00f40020008c
:104e2c008000eb000000eb0079f907008000eb003c
:104e3c00f27f2000030020000000eb00d3f90700f4
:104e4c0001208000f08f2f0000806000002088007f
:104e5c000000000001208000000e20000080600097
:104e6c000000e000fbff3a002a24ef0050218000f4
:104e7c0040218800402180001021880010218000f2
:104e8c000021880030e4a80031e4a80032e4a80036
:104e9c0033e4a80034e4a80035e4a80080218000a5
:104eac003000b30080218800812180000030200078
:104ebc000100700080218800902180003000b30038
:104ecc0090218800912180000030200001007000aa
:104edc0090218800a02180003000b300a021880020
:104eec00a12180000030200001007000a02188006a
:104efc000080fa00000006000808fa00889fbe0037
:104f0c0042802000020147000089be000060fe00c4
:104f1c0064004700028020008080eb000cf9070041
:104f2c000000250011002000008fbe002204240088
:104f3c001e00be00bef807000060fe00408020008e
:104f4c0000014700f0ff2f00010020001201be00fd
:104f5c0002027800030178008001780001007800db
:104f6c0003026200000061008000eb00c000dd0065
:104f7c00000020000001be006120b800000171009b
:104f8c00818171000200be000120a0002007980062
:104f9c003107980040802000000047001000be0040
:104fac00408cde00cf8cde001000200001002000c1
:104fbc00080278000901780080017800010078006f
:104fcc0003026200000061008000eb00c000dd0005
:104fdc00000020000001be006120b800000171003b
:104fec0081817100420798005307980064004700c4
:104ffc0003042000000178001e00be009cf807008e
:10500c004f04be000080fa00000006000800fa0001
:10501c0001002500100020007cfe0700000f780026
:10502c000100250010002000abfe0700f10f20004e
:10503c0001006000100798002100250010002000de
:10504c0072fe0700200798002100250010002000a8
:10505c00a1fe0700f10f200001006000300798004e
:10506c009e00780000202000808f50000d00320040
:10507c009e00780000802100808f500009003200d3
:10508c009e00780000402000808f50000500320008
:10509c00008021001100200097ff07000080eb002a
:1050ac00190037001e009000e40f5000050032007c
:1050bc0000802100110020008fff0700e0ff2f006f
:1050cc00110037002e009000e10f50000500340055
:1050dc00008021001100200087ff0700d0ff2f0067
:1050ec00090037003e0090000000e000050032008f
:1050fc0000802100110020007fff0700c0ff2f005f
:10510c00010037000000eb000080fa0000000600f0
:10511c000600fa00000f780011079800220798008b
:10512c006200200060042000710520002374200020
:10513c0080497800814978008249780042c7a900eb
:10514c0040a7a8001e007800fe0f5000020034009b
:10515c00f0012000000f78009e009000e01f20005e
:10516c00808f500002003400f01f200010079800c0
:10517c002e009000e20f500002003400300020009e
:10518c00200798001e009000303a88002e009000f6
:10519c0000407800634060000080fb00630060000a
:1051ac004600dd00223a8000f1f32f0081006100ff
:1051bc0001007000203a88001e0078000040780042
:1051cc007f4060000080fb007f006000223a80007e
:1051dc0001fe2f008100610001007000203a880060
:1051ec003200200080072000a10920003374200029
:1051fc0080497800814978008249780012002000ab
:10520c006004200071052000237420008049780080
:10521c00814978008249780000000000113a800032
:10522c00000027008080600000002300808f500069
:10523c00faff3a0000000000113a80000002200042
:10524c00008060000000e000fbff32000000eb007b
:10525c000080fa00000006008c00fa0050879800cd
:10526c000080eb00100798000000eb00200798006e
:10527c0000402300110020003007980041079800df
:10528c006a00470024002000030820000001780079
:10529c003e009000ce00900012f807006a00470014
:1052ac0092002000019f290036f807000000e00062
:1052bc000b003200c09f2100110020003007980025
:1052cc00410798006a0047002400200003082000d2
:1052dc00000178003e009000ce00900001f807001d
:1052ec006a00470021f80700000f78001e00370005
:1052fc000060fe00ea0047002e0090008080400015
:10530c005e81900000782000000041008041eb009d
:10531c0082002000e0f90700030037001e00900017
:10532c000000e900100798001e0090000000e0004b
:10533c00faff3a000080eb00100798002e00900056
:10534c0068004000200798001e007800e80f50000d
:10535c00030036009e007800688f50000200370072
:10536c000000eb00000f78001e0078000000e00049
:10537c00dfff3a000080fa00000006000600fa0089
:10538c00200798000060fe000040eb00004f780002
:10539c000040eb002047980020c0b3001047980055
:1053ac009e407800400020000008dd00004f78008f
:1053bc002e0090009040780021479800ae4090005d
:1053cc0000c4b30080cf50000c003600ae409000fb
:1053dc0060c4b30080cf500008003e00ae40900087
:1053ec0090ccb30000c04000804078001e40780094
:1053fc0000c07000004f780017003700ae409000de
:10540c0000c6b30080cf50000c003600ae409000b8
:10541c0060c6b30080cf500008003e00ae40900044
:10542c0090cab30000c04000804078001e40780055
:10543c0000c07000004f780007003700ae409000ad
:10544c0000cdb30000c04000804078001e407800c2
:10545c0000c07000004f78002e0090000000e800a3
:10546c00200798001e4090000040e900104798006b
:10547c001e4090000004e000c9ff3a001e40780076
:08548c000080fa000000060098
:020000040000fa
:020000040002f8
:105494000000fa008020a9000000fe000080fa004d
:1054a400004006000000fa008060a9000000fe0031
:1054b4000080fa00004006000000fa008040a900c5
:1054c4000000fe000080fa00004006000000fa0020
:1054d4008080a9000000fe000080fa000040060061
:1054e4000000fa0080a0a9000000fe000080fa007d
:1054f400004006000000fa008020a9000080fa00a5
:10550400004006000000fa008060a9000080fa0054
:10551400004006000000fa008040a9000080fa0064
:10552400004006000000fa008080a9000080fa0014
:10553400004006000000fa0080a0a9000080fa00e4
:04554400004006001d
:020000040000fa
:020000040002f8
:105548000600fa00008fbe00220798000060fe00e7
:105558001e00be00408ade00cf8ade0004407800cc
:1055680032e0b7002e009000200088001e0078006e
:1055780040008800020abb0000002400003b8800ad
:105588004200f800000e20004220b700500520001d
:10559800303b8800a00a2000303b880061e7a80063
:1055a80000000000000000004200f9000080fa003e
:0455b80000000600e9
:020000040000fa
:020000040002f8
:1055bc002a080000020000000200000008000000a1
:1055cc002e10000058000000000000000008000031
:1055dc002a000000000000002c080000020000005f
:1055ec000200000001000000004600000002000064
:1055fc00000000002e080000000800000000000061
:04560c00000000009a
:020000040000fa
:020000040002f8
:105610000a00fa004007980000252500f1742400d4
:10562000008fbe0000f22400b10420002007980083
:10563000310798008e0078004e019000007820001d
:10564000000041008041eb008200200015f90700b6
:105650000080fa00000006000000fa007dfd07004f
:1056600085fd07008420ef008620ef008820ef00f2
:105670008a20ef008c20ef0011028000f0f12f0053
:10568000008060000050a0001002880000000000b0
:105690000080fa00000006000000fa00a13580003a
:1056a00000fe2f00008060005000b300a03588008d
:1056b0002136800000fe2f00008060000040a00026
:1056c0002036880042c7a8000080fa0000000600cb
:020000040000fa
:020000040002f8
:0856d0000040da000000fe00ba
:020000040000fa
:020000040002f8
:10680000426f00006f7400006c6f00006164000054
:1068100065720000206400007350000049430000ce
:1068200033330000464a000031320000384d00008a
:10683000433800003032000020760000322e000085
:086840003135000000000000ea
:020000040000fa
:020000040002f8
:106a00003600fa00881f78000000eb00600798004d
:106a10000000eb00000f78000040eb0020479800da
:106a20000040eb00604f98000000eb00200798004a
:106a30000040eb006047980000802100110020001a
:106a4000400798005107980011028000000e2000b6
:106a50000100700010028800000000000060fe00cd
:106a60000001eb00e10120000000eb00abf90700a2
:106a700009fb070000168000001688000080eb006c
:106a80006019880076004700020220008000eb00b9
:106a900032f20700022020008000eb00006024009a
:106aa0002ef20700020420008000eb00e00221002b
:106ab0002af20700820020008000eb00e00621009f
:106ac00026f20700020120008000eb006007210091
:106ad00022f20700220020008000eb00208120002d
:106ae0001ef207003026ef00e07f2500000f98001f
:106af00010002000000f78008e0890001e00780023
:106b0000c5f70700004078002ce8b7002cc8bf008c
:106b10000004e00002003d0010c0b3002ce8b70004
:106b20002cc8bf008080fb00006020000080400077
:106b3000c04088002cc8bf008080fb0000582000a7
:106b400000804000d04088002cc8bf008080fb003f
:106b50000070200000804000e04088000000eb0052
:106b6000000f78000000eb00000f98000228ef00f3
:106b700038f8070040f807000060fe002cc8bf008e
:106b80000080fb007ef807000060fe0042f807006e
:106b90000060fe004ff807001288a8001208a90044
:106ba0001228a9001268a9000060fe002cc8bf00ce
:106bb0000080fb00abf90700e08120006144240065
:106bc000010878000060fe00e04080008041eb009a
:106bd00022002000e1812000b2f307000060fe00e7
:106be0000080eb008080eb0030418800414188004c
:106bf00009f907005e0237000060fe000204200071
:106c00008000eb00e0022100d4f107000060fe00ec
:106c1000d1408000c04080008101780000017800f0
:106c2000e102210020812000f6f3070000407800f7
:106c300006e8b70006c8bf000004e00002003a0002
:106c40000000eb004f023700e00221009040780086
:106c5000a0c3b30080cf500045023a00e0022100fb
:106c60000000e800c8f90700604f9800e00221002a
:106c700063004000c4f90700205798002e50900090
:106c80000080fb00000f98000e0890004800dd0017
:106c9000000f98008e08900000f02f000080600028
:106ca000000f9800e002210065004000b6f90700df
:106cb000205798002e5090000080fb008e08900016
:106cc00001007000000f9800e00221006700400002
:106cd000adf90700600798006e0090006700600043
:106ce000600798001e0078008000eb00704088006c
:106cf000814088007040800081408000c000dd003d
:106d00000000200070408800814088000e0890003c
:106d10006101b800704080008140800002004000a6
:106d20008380480070408800814088007040800067
:106d3000814080008100d1000080d3007040880035
:106d4000814088006e009000e10f500012003a0070
:106d50000000eb00200f98001208a800904080006f
:106d6000700060000000e00004003a003041800044
:106d7000414180002281200069f607004e0090000a
:106d8000de0090005ff807002cc8bf000080fb0009
:106d90001ffa0700f60137006e009000e40f500064
:106da00014003a00e00221006900400076f9070073
:106db000205798002e5090000080fb00000f7800b4
:106dc0001e0078004800dd00000f780000f02f0062
:106dd0001e0f6000e00221006b0040006af907000e
:106de000205798002e5090000080fb001e0f70006e
:106df000df0137006e0090000000e000dc013a0087
:106e000090c0b300604798000040eb002047980016
:106e1000100037002e4090000004fb00e10221002a
:106e20006e4090000080fb000080400056f9070093
:106e30008040780008004700615098002e40900084
:106e40000040e800204798006e40900000c0e80035
:106e5000604798006e4090008080fb0006c8bf002d
:106e60000000fb00808f5000eaff3500704080007a
:106e700081408000e00f5000e08f580075003a001c
:106e80002e5890000000fb00cf80de0040079800e5
:106e9000510798004e019000de0190004818dd0077
:106ea000c810de00810070004810dd004007980027
:106eb000510798004e019000de0190000010200064
:106ec00001002000020278000301780080017800b0
:106ed0000100780003026200000061008000eb0006
:106ee000c000dd00000020000001be006120b800ed
:106ef00000017100818171004207980053079800da
:106f00007e5090000000fb00cf80de004e0190001c
:106f1000de01900000007100818071004007980040
:106f2000510798004e019000de0190004818dd00e6
:106f3000c810de00810070004810dd004007980096
:106f4000510798004e019000de01900000f02f00e4
:106f5000110020000202780003017800800178000f
:106f60000100780003026200000061008000eb0075
:106f7000c000dd00000020000001be006120b8005c
:106f80000001710081817100420798005307980049
:106f90006e5090000000fb00cf80de004e0190009c
:106fa000de019000000071008180710040079800b0
:106fb000510798004e019000de019000f0ff2f0075
:106fc000110020000202780003017800800178009f
:106fd0000100780003026200000061008000eb0005
:106fe000c000dd00000020000001be006120b800ec
:106ff00000017100818171004207980053079800d9
:107000000040eb006057980080c1b30070579800b3
:1070100040c0b300005f98000040eb00105f980094
:1070200010c0b300205f98000040eb00305f980074
:107030000040eb00405f98000040eb00505f98007c
:107040000080210011002000aef70700fff50700c7
:107050001228a8000060fe0070408000814080007f
:107060004008de00604798006e409000e84f400006
:107070004b003a007040800081408000200798005b
:107080002e0090000080d100200798000040eb0007
:10709000604798003a0037006e4090000080fb0087
:1070a0000000e80000004700605090008000fb00f6
:1070b0002e00900000014000600721000000410008
:1070c000010878002e009000800040006007210039
:1070d0000080400090007800f00f20008080600069
:1070e0002e009000000140006007210000004100d8
:1070f000010878002e009000800040006007210009
:107100000080400010007800c800dd002e009000d4
:1071100000014000600721000000410001087800e4
:107120002e00900080004000600721000080400099
:10713000900078006e4090000080fb000000470047
:10714000605090000001fb00f00f20000000610083
:10715000810070002e0090000001400060072100b7
:1071600000004100010878002e0090000000e800b7
:10717000200798006e4090006440400060479800ef
:107180006e4090008080fb006e4890000000fb0085
:10719000808f5000c0ff35001268a8001228a80098
:1071a0007240800083408000e07f250011002000b5
:1071b000800f5100818f5900ed003e007240800029
:1071c00083408000f07f210011002000800f5100db
:1071d000818f590015003600724080008340800086
:1071e000f03f250011002000800f5100818f5900d1
:1071f0000e003e007240800083408000f0ff2200bd
:1072000011002000800f5100818f5900d8003600f6
:107210007240800083408000f03f23001100200076
:10722000800f5100818f5900d1003e0072408000d4
:1072300083408000f03f200001002000020278001f
:1072400003017800800178000100780003026200e9
:10725000000061008000eb00c000dd0000002000a5
:107260000001be006120b800000171008181710041
:10727000803f200001002000800f5100818f5900c5
:107280000c003e006e4890000000fb004280de00d3
:10729000004078008001fb00704080008140800049
:1072a00076014700258120006482200011f4070048
:1072b000af0037007240800083408000f03f200024
:1072c00001002000020278000301780080017800ac
:1072d0000100780003026200000061008000eb0002
:1072e000c000dd00000020000001be006120b800e9
:1072f0000001710081817100a03f20000100200089
:10730000800f5100818f590019003a006e4890009b
:107310000000fb004280de00004078008001fb009e
:107320007040800081408000760147002581200068
:1073300064822000eff307006e489000f04f500089
:107340008b003a0070408000814080006600400061
:10735000e0804800760147006c0141002581200053
:107360006482200013002000e2f307008000370051
:107370007240800083408000f03f20000100200028
:107380000202780003017800800178000100780093
:1073900003026200000061008000eb00c000dd001d
:1073a000000020000001be006120b8000001710053
:1073b00081817100c03f200001002000800f51003a
:1073c000818f590026003a006e4890000000fb00b3
:1073d0004280de00004078008001fb0070408000a9
:1073e00081408000760147002581200064822000d2
:1073f000c0f307006e489000f04f50000a003a00ba
:10740000704080008140800064004000e0804800bf
:107410007601470068014100258120006482200038
:1074200023002000b3f307006e489000ec4f50009b
:107430004f003a00704080008140800064004000ae
:10744000e080480076014700680141002581200066
:107450006482200013002000a6f3070044003700d8
:107460007240800083408000f03f20000100200037
:1074700002027800030178008001780001007800a2
:1074800003026200000061008000eb00c000dd002c
:10749000000020000001be006120b8000001710062
:1074a00081817100e03f200001002000800f510029
:1074b000818f59002e003a0070408000814080008a
:1074c00076014700258120006482200013002000ff
:1074d00088f307006e489000f04f50000a003a0011
:1074e000704080008140800062004000e0804800e1
:1074f000760147006401410025812000648220005c
:10750000330020007bf307006e489000ec4f5000e2
:107510000a003a0070408000814080006200400014
:10752000e080480076014700640141002581200089
:1075300064822000230020006ef307006e48900054
:10754000e84f50000a003a007040800081408000ff
:1075500062004000e080480076014700640141007d
:1075600025812000648220001300200061f30700c1
:1075700090408000610060000000e0009efd32004d
:107580000000eb004f0478000080fa0000000600c5
:020000040000fa
:020000040002f8
:109fec000000fa0083f2070098ed07000000000063
:089ffc0000000000fbff37002c
:020000040000fa
:0200000401f009
:04000000ffff0000fe
:020000040000fa
:0200000401f009
:04000400ffff0000fa
:020000040000fa
:0200000401f009
:04000800ffff0000f6
:020000040000fa
:0200000401f009
:04000c00810000006f
:020000040000fa
:0200000401f009
:0400100000000000ec
:020000040000fa
:0200000401f009
:04001400d300000015
:020000040000fa
:0200000401f009
:04001800970000004d
:020000040000fa
:0200000401f009
:04001c00c30000001d
:00000001FF
