:020000040000fa
:080000000002040000000000f2
:020000040000fa
:04000800f004000000
:020000040000fa
:04000c00b404000038
:020000040000fa
:04001000ba0400002e
:020000040000fa
:04001400c004000024
:020000040000fa
:04001800c60400001a
:020000040000fa
:04001c00cc04000010
:020000040000fa
:04002000f0040000e8
:020000040000fa
:04002400f0040000e4
:020000040000fa
:04002800f0040000e0
:020000040000fa
:04002c00f0040000dc
:020000040000fa
:04003000f0040000d8
:020000040000fa
:04003400d0030000f5
:020000040000fa
:04003800f0040000d0
:020000040000fa
:04003c00f0040000cc
:020000040000fa
:04004000f0040000c8
:020000040000fa
:04004400f0040000c4
:020000040000fa
:04004800f0040000c0
:020000040000fa
:04004c00f0040000bc
:020000040000fa
:04005000f0040000b8
:020000040000fa
:04005400480400005c
:020000040000fa
:04005800220400007e
:020000040000fa
:04005c00f0040000ac
:020000040000fa
:04006000f0040000a8
:020000040000fa
:04006400f0040000a4
:020000040000fa
:04006800f0040000a0
:020000040000fa
:04006c00f00400009c
:020000040000fa
:04007000f004000098
:020000040000fa
:04007400f004000094
:020000040000fa
:040078000e04000072
:020000040000fa
:04007c00f00400008c
:020000040000fa
:04008000f004000088
:020000040000fa
:04008400f004000084
:020000040000fa
:04008800f004000080
:020000040000fa
:04008c00f00400007c
:020000040000fa
:04009000f004000078
:020000040000fa
:04009400f004000074
:020000040000fa
:040098009a040000c6
:020000040000fa
:04009c00f00400006c
:020000040000fa
:0400a000f004000068
:020000040000fa
:0400a400f004000064
:020000040000fa
:0400a800f004000060
:020000040000fa
:0400ac00f00400005c
:020000040000fa
:0400b000f004000058
:020000040000fa
:0400b400e80300005d
:020000040000fa
:0400b800f004000050
:020000040000fa
:0400bc00f00400004c
:020000040000fa
:0400c000f004000048
:020000040000fa
:0400c400f004000044
:020000040000fa
:0400c800f004000040
:020000040000fa
:0400cc00f00400003c
:020000040000fa
:0400d000f004000038
:020000040000fa
:0400d400f004000034
:020000040000fa
:0400d800f004000030
:020000040000fa
:0400dc00f00400002c
:020000040000fa
:0400e000f004000028
:020000040000fa
:0400e400f004000024
:020000040000fa
:0400e800f004000020
:020000040000fa
:0400ec00f00400001c
:020000040000fa
:0400f000f004000018
:020000040000fa
:0400f400f004000014
:020000040000fa
:0400f800f004000010
:020000040000fa
:0400fc00f00400000c
:020000040000fa
:04010000f004000007
:020000040000fa
:04010400f004000003
:020000040000fa
:04010800f0040000ff
:020000040000fa
:04010c00f0040000fb
:020000040000fa
:04011000f0040000f7
:020000040000fa
:04011400f0040000f3
:020000040000fa
:04011800f0040000ef
:020000040000fa
:04011c00f0040000eb
:020000040000fa
:04012000f0040000e7
:020000040000fa
:04012400f0040000e3
:020000040000fa
:04012800f0040000df
:020000040000fa
:04012c00f0040000db
:020000040000fa
:04013000f0040000d7
:020000040000fa
:04013400f0040000d3
:020000040000fa
:04013800f0040000cf
:020000040000fa
:04013c00f0040000cb
:020000040000fa
:04014000f0040000c7
:020000040000fa
:04014400f0040000c3
:020000040000fa
:04014800f0040000bf
:020000040000fa
:04014c00f0040000bb
:020000040000fa
:04015000f0040000b7
:020000040000fa
:04015400f0040000b3
:020000040000fa
:04015800f0040000af
:020000040000fa
:04015c00f0040000ab
:020000040000fa
:04016000f0040000a7
:020000040000fa
:04016400f0040000a3
:020000040000fa
:04020800f0040000fe
:020000040000fa
:04020c00d204000018
:020000040000fa
:04021000d80400000e
:020000040000fa
:04021400de04000004
:020000040000fa
:04021800e4040000fa
:020000040000fa
:04021c00ea040000f0
:020000040000fa
:04022000f0040000e6
:020000040000fa
:04022400f0040000e2
:020000040000fa
:04022800f0040000de
:020000040000fa
:04022c00f0040000da
:020000040000fa
:04023000f0040000d6
:020000040000fa
:04023400d0030000f3
:020000040000fa
:04023800f0040000ce
:020000040000fa
:04023c00f0040000ca
:020000040000fa
:04024000f0040000c6
:020000040000fa
:04024400f0040000c2
:020000040000fa
:04024800f0040000be
:020000040000fa
:04024c00f0040000ba
:020000040000fa
:04025000f0040000b6
:020000040000fa
:04025400480400005a
:020000040000fa
:04025800220400007c
:020000040000fa
:04025c00f0040000aa
:020000040000fa
:04026000f0040000a6
:020000040000fa
:04026400f0040000a2
:020000040000fa
:04026800f00400009e
:020000040000fa
:04026c00f00400009a
:020000040000fa
:04027000f004000096
:020000040000fa
:04027400f004000092
:020000040000fa
:040278000e04000070
:020000040000fa
:04027c00f00400008a
:020000040000fa
:04028000f004000086
:020000040000fa
:04028400f004000082
:020000040000fa
:04028800f00400007e
:020000040000fa
:04028c00f00400007a
:020000040000fa
:04029000f004000076
:020000040000fa
:04029400f004000072
:020000040000fa
:040298009a040000c4
:020000040000fa
:04029c00f00400006a
:020000040000fa
:0402a000f004000066
:020000040000fa
:0402a400f004000062
:020000040000fa
:0402a800f00400005e
:020000040000fa
:0402ac00f00400005a
:020000040000fa
:0402b000f004000056
:020000040000fa
:0402b400e80300005b
:020000040000fa
:0402b800f00400004e
:020000040000fa
:0402bc00f00400004a
:020000040000fa
:0402c000f004000046
:020000040000fa
:0402c400f004000042
:020000040000fa
:0402c800f00400003e
:020000040000fa
:0402cc00f00400003a
:020000040000fa
:0402d000f004000036
:020000040000fa
:0402d400f004000032
:020000040000fa
:0402d800f00400002e
:020000040000fa
:0402dc00f00400002a
:020000040000fa
:0402e000f004000026
:020000040000fa
:0402e400f004000022
:020000040000fa
:0402e800f00400001e
:020000040000fa
:0402ec00f00400001a
:020000040000fa
:0402f000f004000016
:020000040000fa
:0402f400f004000012
:020000040000fa
:0402f800f00400000e
:020000040000fa
:0402fc00f00400000a
:020000040000fa
:04030000f004000005
:020000040000fa
:04030400f004000001
:020000040000fa
:04030800f0040000fd
:020000040000fa
:04030c00f0040000f9
:020000040000fa
:04031000f0040000f5
:020000040000fa
:04031400f0040000f1
:020000040000fa
:04031800f0040000ed
:020000040000fa
:04031c00f0040000e9
:020000040000fa
:04032000f0040000e5
:020000040000fa
:04032400f0040000e1
:020000040000fa
:04032800f0040000dd
:020000040000fa
:04032c00f0040000d9
:020000040000fa
:04033000f0040000d5
:020000040000fa
:04033400f0040000d1
:020000040000fa
:04033800f0040000cd
:020000040000fa
:04033c00f0040000c9
:020000040000fa
:04034000f0040000c5
:020000040000fa
:04034400f0040000c1
:020000040000fa
:04034800f0040000bd
:020000040000fa
:04034c00f0040000b9
:020000040000fa
:04035000f0040000b5
:020000040000fa
:04035400f0040000b1
:020000040000fa
:04035800f0040000ad
:020000040000fa
:04035c00f0040000a9
:020000040000fa
:04036000f0040000a5
:020000040000fa
:04036400f0040000a1
:020000040000fa
:100400002f9e21000e3f24000e01880000000000f6
:10041000000020000000e000020032000001200087
:1004200020028800140007006f0107000000e000b0
:1004300003003a00e0ff2600010020000200370020
:100440000000200001002000810f70000100320038
:1004500014000700000020000000e000020032004d
:1004600000000200000000002c4402000000000018
:100470000040da000000fe004440a9002081200076
:100480000000e0000300320000002000a00188000e
:100490004440a800000006008a1f78008b1f7800e7
:1004a0000000060091018800800478000000eb0045
:1004b0001a003700e284440032a0b4009905ba0063
:1004c000e284440032a0b4009906ba00e2844400f9
:1004d00032a0b4000006eb00476fde00fd07b2005b
:1004e000636ce10003003a00ebff07000000eb0043
:1004f0000a003700606ce10004003a00005deb0088
:100500008b05e900fdff3e00040037006168e10053
:10051000010032000086eb000b00070019c7ba008b
:100520001905ba000e04e00003003a000a00e000da
:10053000e0ff3a0000000600fe07b2009e018800be
:100540008a047800f5ff3700395dba008b05e900b1
:100550000c003200295dba008b05e900080032006a
:100560000c00e00003003a00e284440032a0b40032
:10057000f5ff370019ddba008b05e900faff3a00f4
:100580008904e800e184440032a0b40000000600c1
:1005900074770400000000002878040000000000c8
:1005a0003278040000000000b6790400000000006a
:1005b000c879040000000000de790400000000009b
:1005c0001a4a04000000000030500400000000003f
:1005d000f254040000000000e24e0400000000009d
:1005e000f273040000000000ca760400000000005e
:1005f0002077040000000000346f040000000000b9
:10060000e06e040000000000506c040000000000d8
:10061000ee6b0400000000002e6d040000000000de
:10062000a86d040000000000d26d0400000000006e
:10063000ae6c0400000000006487040000000000ad
:100640000c880400000000002c880400000000005a
:10065000fe42040000000000f04204000000000020
:10066000e043040000000000d2430400000000004a
:10067000ca7a040000000000027c040000000000b0
:10068000c27d040000000000427c04000000000065
:10069000fe7d040000000000147e04000000000045
:1006a000827e040000000000ca7f040000000000f9
:1006b0006680040000000000d880040000000000f4
:1006c000e680040000000000a88104000000000093
:1006d00008890400000000004289040000000000b6
:1006e0007e89040000000000b289040000000000c0
:1006f00004820400000000004882040000000000a2
:1007000062820400000000008a82040000000000f1
:100710009e82040000000000b88204000000000077
:10072000d682040000000000f282040000000000f5
:1007300014830400000000001c8c04000000000072
:100740004e3c040000000000e83c040000000000f3
:100750008a3e040000000000c411040000000000f4
:100760005a2c040000000000762004000000000065
:1007700016680400000000008286040000000000eb
:10078000d4860400000000009a6504000000000008
:100790007c660400000000004e67040000000000ba
:1007a000801f78003400f80000002000a0018800bd
:1007b0000000fa0010c0b30013e8b7008460a9007d
:1007c0000080fa003400f9004f0078000040060075
:1007d0003600f800809fbe00829fbe00849fbe004e
:1007e000869fbe003400f80000002000a0018800b1
:1007f0000000fa008860a9003a4307000080fa0070
:100800003400f9004f03be004f02be004f01be008e
:100810004f00be003600f900004006003400f8002a
:10082000881f780008002000a80188004f04780085
:100830000000fa008680a9000080fa003400f90068
:10084000004006003600f800809fbe00829fbe0078
:10085000849fbe00869fbe003400f8000000200088
:10086000a00188000000fa00282b07008580a9005d
:100870000080fa003400f9004f03be004f02be00b2
:100880004f01be004f00be003600f90000400600d8
:100890003600f800809fbe00829fbe00849fbe008d
:1008a000869fbe003400f80000002000a0018800f0
:1008b0000200fa00182b07000e00e8006829070064
:1008c000004f78001e4078000004e0001000320065
:1008d00064c8bf000080fb001e419000e18f210032
:1008e0008270780064c8bf000040e80064e8b70088
:1008f000218620009140780064c8bf0080cf50005e
:1009000003003a006468ef0010c0b30063e8b7006a
:100910008560a9000080fa003400f9004f03be0092
:100920004f02be004f01be004f00be003600f9006e
:1009300000400600801f78003400f800000020000e
:10094000a00188000000fa0010c0b3000fe8b70053
:100950001fe1a9008780a9000080fa003400f90097
:100960004f007800004006000000fa008020a90037
:10097000ffff37000000fa008060a900ffff37008a
:100980000000fa008040a900ffff37000000fa00d5
:100990008080a900ffff37000000fa0080a0a900b6
:1009a000ffff37000000fa008020a900ffff37009a
:1009b0000000fa008060a900ffff37000000fa0085
:1009c0008040a900ffff37000000fa008080a900e6
:1009d000ffff37000000fa0080a0a900ffff3700ea
:1009e0000040da000000fe00000005003200f800c0
:1009f000023b8800910188000008bb000500fc0054
:100a000051052000313b8800a10a2000313b8800bd
:100a100061e7a80000000000000000003200f900bb
:100a2000000006000400a100010037000400a0003f
:100a30003200f8009101880011002400013b880079
:100a4000f10f20003208bb000400a700b2007800bc
:100a50000198bb008301e900faff3a0068015100e8
:100a60000400a70068015100680050001208bb0094
:100a7000e2ff3700f30f20003200f80091018800f8
:100a800031002400013b88000208bb000388bb0042
:100a9000daff37003200f800003b8800d7ff37004c
:100aa0003200f80091018800800278006200400066
:100ab0003549ba00e08048003204e0000410a70085
:100ac000100032008301e9000e0032002549ba000f
:100ad0003204e0000410a7000a0032008301e9009c
:100ae000080032000408a300eeff320015c9ba0066
:100af0003204e0000410a700020032008301e90084
:100b0000e8ff3a003200f9000000060003f0a200fe
:100b1000889fbe008a9fbe008c1f7800b10007002e
:100b2000b80033006450e1004f0032006420e1005f
:100b30005200320003826c0007003b000905d00020
:100b40000306d000820f54000c065d00020039003d
:100b50000200320089017800030678008582550082
:100b600004003d000003fd008103fd008502ea0052
:100b70008b854200840f720002003b006000100071
:100b8000e08018006011b8000005eb007a28e10051
:100b90000a00390006007800c75ddd00f707b200e3
:100ba000878075002d003700828171000a0178006e
:100bb000610560008180d1000080d3008502e900da
:100bc000f9ff3b00060440008784480002003b0018
:100bd00060041400e0841c000988a30007003200b0
:100be0008a81710082817100610164008904d100f1
:100bf0000884d3008b05e800170037000978a300ac
:100c000013003a000b00e000130034008b05e900ec
:100c10000804440089844c000a4474000978a30045
:100c20000d003a000b00e000070034008b05e900de
:100c30000804440089844c0001003a000b002000a5
:100c40000978a300f7ff32000001eb000200370033
:100c5000828171000a017800270007000cf0a700cc
:100c600001f0a000700037006420e10002003a00ab
:100c7000838f6c00700033000801be000200be00cc
:100c8000690037000001be00410007000470a700a2
:100c900003f0a10003f8a30013003a006509b100b6
:100ca00010003200090035006928e100020035001b
:100cb000010028000000050000004000818048007d
:100cc0008502e900fcff3a0000000600f88f4200b0
:100cd000050035008100d1000080d3008502e800c6
:100ce000fcff3a00000006008000eb000000050059
:100cf0006011b8009a003700810020006180550023
:100d00000b003d000b00200061fe2f000100e10000
:100d10001d00340082817100610164008904d100ea
:100d20000884d3000000e800faff3a0071002000b8
:100d300061006400030070000200600009003200de
:100d400061044400e0844c000988a50005003200dd
:100d50008b05e8006808e10002003a008904d10030
:100d60000884d300f20f20000258e10005003d0086
:100d7000c75ddd00f907b2008980750008007800c2
:100d8000000006000bf827008b007800000005002b
:100d9000c70ade00f107b200f50fb200080032000a
:100da000e1cf4200020032000170a00024000500e3
:100db000810f7000010032000408050044000500a6
:100dc000810f700002003a00140005008502e9005e
:100dd0000000400081c04800fcff3b000170a00003
:100de000240005000004be00e9ff07000003be0068
:100df0000405be000200be00e5ff0700844f750039
:100e0000000006000200be006450e100050036004c
:100e10006420e100020036000968a30001003a00e6
:100e20000800be000160a0004f0678004f05be001c
:100e30004f04be0000000600f0ff2f00f1ff270066
:100e4000f9ff3700889fbe008a9fbe008c1f780084
:100e5000e4ff0700ebff330003866c006450e10001
:100e6000240032006420e100270032006150e100dc
:100e7000220032006120e100210032008b85420017
:100e8000eb07b1000134b800003ab8000804420092
:100e900089844a00013ab8000030b80088804000d8
:100ea00009014a000400330000004000818048002e
:100eb000020149008b05e900c909dd0083017000ca
:100ec0000100320013002000c814de004814dd00c9
:100ed0004709de001200b200c808de000884700076
:100ee00085ff070001f0a1000cf0a70001f0a000b1
:100ef000cdff37006120e100cfff32000801be00c6
:100f00000200be00f7ff37006150e100fcff3a002d
:100f1000c9ff37006022b800060220000000d000a0
:100f20008180d2000482d2008582d2000000a0001d
:100f30000202520083825a00030031000202420082
:100f400083824a000000a1000603e900f3ff3a0093
:100f500000000600efff07000400be0000000600ce
:100f6000889fbe008a9fbe0000827000040271004c
:100f700004827100260032000004be000200be00a0
:100f80006011b8006b092000950220000182cf009b
:100f90000a0039000541b1000082cf000700390086
:100fa0000541b1000982cf00040039000541b100bc
:100fb0000882cf00010039000541b100054252000e
:100fc000120032000a003b0082817100610164005e
:100fd0008100d1000080d3008984d3000884d3002d
:100fe0008b05e8000442e800f7ff3a0007003700ed
:100ff0000804440089844c000000480081804800b7
:101000008b05e9000442e900f9ff3a003aff0700c6
:101010004f05be004f04be0000000600a2002000e5
:101020008000eb000e0037008001780002003700de
:10103000b15978000201e9000200e000fcff3a002b
:101040000000060080017800020037008159780016
:101050000201e9000200e000fcff3a000000060087
:10106000ee874700889fbe008a9fbe008c9fbe000f
:101070008e1f7800f0b79f00010678008205780087
:1010800000047800080578000a047800b846780063
:101090000d00fb008e0007000000e000f9ff3a00a1
:1010a000d0c2b30080cf56000300320000c0e90078
:1010b00080cf560002003a000a05e8000100370020
:1010c000804678000b00e00005003500e18f5500f8
:1010d0000300320040022000808f550006003400db
:1010e0006044b8000c00e000720032007fb097004e
:1010f000000e7800480037000b00e0000e003200c0
:10110000f08f55001a003a0000c3b3009a4f100048
:1011100017003a001a40900081c7b300814f500079
:101120000300320081c5b300814f500010003a0027
:101130000a85e8000e003700ab00200000c3b300b2
:101140009a4f10000a003a001a40900081c7b3007d
:10115000814f5000040032008b00200081c5b30095
:10116000814f500002003a000a85e8000b01200080
:101170000a007800000278000400780001c3b30080
:10118000b0cf1000fbff3200040778006044b800c5
:10119000b4b79f000d00370021902100814050001e
:1011a000c1ef9f006159b9000800be006700070049
:1011b0004fea97000401fb00cf91de00c8b79f0003
:1011c000d9b79f0002044000838448008e02780053
:1011d0003e00fb0085bf9f00450007000b01780023
:1011e00080007800209021004e0007008fba970001
:1011f0000000e000e8ff3a003fb29700850f55007d
:1012000007003a006044b8000c00e00029003200fa
:10121000ffb29700050e78006044b8002500370043
:10122000048252007092210060c07d000000fb002b
:10123000000252001700330011003a004fe99700f6
:101240000200fb00cf80de000000540081805c00c3
:10125000800f5400818f5c00090039006159b9008a
:1012600085bf9f002bff07008fba97004fb19700f3
:10127000dfb19700820f5000838f580005003200c5
:1012800020022000d03f8a000084eb008084eb0025
:1012900005003700d0c2b30080cf560002003a00ec
:1012a00060041400e0841c000c00e0000100320027
:1012b000050e78000800be004f0778004f06be00fc
:1012c0004f05be004f04be00ef00b1000000060055
:1012d0006900e100040035006d00e1000300340006
:1012e0000002b100010032000000050010000500fe
:1012f000800078001104b100030035009101b100b5
:1013000001003c000050a00000000600e03f820009
:101310000000e0000100320000000100a07f240076
:101320000000060003003700b0cf100005003200b7
:101330000201e900800178000200e000faff3a00b3
:10134000000005000300780000000600020ab90052
:10135000001bb9000200b800810042008100430078
:041360000000060083
:020000040000fa
:101364004d520000204700007261000064690000d3
:10137400656e000074200000546500006d7000006c
:101384006572000061740000757200006520000041
:101394004d6500006173000075720000656d00000a
:1013a400656e000074200000556e00006974000032
:1013b4000046000057200000563100002e33000084
:1013c400004500004c2d0000323600002d35000091
:1013d400352d0000303000000020000080010000a6
:1013e40000c00000fe000000000000000400000037
:1013f400080e000038310000080d000038310000ec
:10140400101e000038310000201f00003831000099
:1014140000000000000000000000000000000000c8
:1014240000000000000000000000000000000000b8
:101434008002000000c00000fe0000000000000068
:1014440002000000200f00003831000020100000ce
:10145400383100000000000000000000000000001f
:101464000000000000000000000000000000000078
:101474000000000000000000000000000000000068
:10148400000000008003000000c00000fe00000017
:1014940000000000010000002011000038310000ad
:1014a400201200003831000000000000000000009d
:1014b4000000000000000000000000000000000028
:1014c4000000000000000000000000000000000018
:1014d40000000000000000008004000000c00000c4
:1014e400fe000000000000000100000020130000c6
:1014f40038310000201400003831000000000000e2
:1015040000000000000000000000000000000000d7
:1015140000000000000000000000000000000000c7
:1015240000000000000000000000000000000000b7
:1015340000000000000000000000000000000000a7
:101544000000000000000000000000000000000097
:101554000000000000000000000000000000000087
:101564000000000000000000000000000000000077
:101574000000000000000000000000000000000067
:101584000000000000000000000000000000000057
:101594000000000000000000000000000000000047
:1015a4000000000000000000000000000000000037
:1015b4000000000000000000000000000000000027
:1015c4000000000000000000000000000000000017
:1015d40000000000010000000000000000380000ce
:1015e40031000000ef8900000100000080000000cd
:1015f4000000000001380000310000000046000037
:101604000500000001000000000000000238000096
:101614003100000000080000050000008000000008
:101624000000000003380000310000008046000084
:101634000500000001000000000000000438000064
:101644003100000001080000050000000100000056
:10165400000000000538000031000000020800000e
:10166400050000000400000000000000063800002f
:10167400310000005a0800000500000001000000cd
:10168400000000000738000031000000600800007e
:101694000500000001000000000000000838000000
:1016a400310000005e080000050000000100000099
:1016b4000000000009380000310000005f0800004d
:1016c4000500000001000000000000000a380000ce
:1016d4003100000061080000050000002000000047
:1016e400000000000b3800003100000074140000fa
:1016f4000500000001000000000000000c3800009c
:10170400310000000808000005000000010000008e
:10171400000000000d380000310000002208000025
:101724000500000001000000000000000e38000069
:101734003100000024080000010000000400000043
:10174400000000000f3800003100000004470000d2
:101754000100000004000000000000001038000038
:1017640031000000084700000100000004000000f0
:101774000000000011380000310000000c47000098
:101784000100000004000000000000001238000006
:1017940031000000104700000100000004000000b8
:1017a400000000001338000031000000144700005e
:1017b40001000000040000000000000014380000d4
:1017c4003100000018470000010000000400000080
:1017d400000000001f380000310000001c4700001a
:1017e40001000000010000000000000015380000a6
:1017f4003100000054080000050000000100000052
:1018040000000000163800003100000055080000f8
:10181400050000000100000000000000173800006f
:1018240031000000c41400000500000001000000a5
:10183400000000001838000031000000c614000049
:10184400050000000100000000000000193800003d
:1018540031000000560800000500000004000000ec
:10186400000000001a380000310000000a080000df
:101874000100000001000000000000001b3800000f
:1018840031000000570800000500000001000000be
:10189400000000001c38000031000000580800005f
:1018a4000500000001000000000000001d380000d9
:1018b40031000000030800000100000002000000e5
:1018c400000000001e380000310000007208000013
:1018d40001000000010000000000000020380000aa
:1018e4003100000059080000050000002900000034
:1018f400000000000008000010000000b289000091
:10190400010000000800000000000000000a0000c0
:1019140010000000db890000010000000c00000042
:10192400000000000009000010000000e38900002e
:10193400010000002000000000000000002c000056
:1019440031000000741400000500000020000000b5
:101954000000000001230000310000009414000086
:10196400050000001000000000000000012c000031
:1019740031000000b4140000050000000400000061
:1019840000000000022300003100000036080000bf
:101994000500000004000000000000000323000014
:1019a400310000003a0800000500000004000000b7
:1019b4000000000004230000310000003e08000085
:1019c40005000000040000000000000005230000e2
:1019d4003100000042080000050000000100000082
:1019e400000000000000000014000000e0150000ea
:1019f40001000000040000000000000001000000dd
:101a0400140000008c150000150000000100000007
:101a14000000000002000000140000009015000007
:101a24001500000002000000000000000300000098
:101a340014000000921500001500000001000000d1
:101a440000000000000000001600000094150000d3
:101a54001500000004000000000000000100000068
:101a64001600000096150000150000000400000098
:101a74000000000002000000160000009a1500009b
:101a84001500000004000000000000000300000036
:101a9400160000009e150000150000000400000060
:101aa400000000000400000016000000a215000061
:101ab4001500000004000000000000000500000004
:101ac40016000000a6150000150000000400000028
:101ad400000000000600000016000000aa15000027
:101ae40015000000040000000000000007000000d2
:101af40016000000ae1500001500000004000000f0
:101b0400000000000800000016000000b2150000ec
:101b140015000000010000000000000000000000ab
:101b240018000000e015000001000000040000009f
:101b3400000000000100000018000000b6150000bd
:101b44001500000001000000000000000200000079
:101b540018000000ba150000150000000200000083
:101b6400000000000300000018000000bc15000085
:101b7400150000000100000000000000000000004b
:101b84001a000000be15000015000000040000004b
:101b940000000000010000001a000000c015000051
:101ba4001500000004000000000000000200000016
:101bb4001a000000c4150000150000000400000015
:101bc40000000000030000001a000000c815000017
:101bd40015000000040000000000000004000000e4
:101be4001a000000cc1500001500000004000000dd
:101bf40000000000050000001a000000d0150000dd
:101c040015000000040000000000000006000000b1
:101c14001a000000d41500001500000004000000a4
:101c240000000000070000001a000000d8150000a2
:101c3400150000000400000000000000080000007f
:101c44001a000000dc15000015000000040000006c
:101c540000000000000500001000000058150000fe
:101c6400150000000100000000000000000b00004f
:101c7400300000001a1600000500000004000000f7
:101c840000000000010b0000300000001c160000e2
:101c9400150000000400000000000000020b00001a
:101ca40030000000201600001500000004000000b1
:101cb40000000000040b00003000000028160000a3
:101cc400150000000400000000000000050b0000e7
:101cd400300000002c160000150000000400000075
:101ce40000000000070b0000300000003416000064
:101cf400150000000400000000000000080b0000b4
:101d04003000000038160000150000000400000038
:101d140000000000090b0000300000003c16000029
:101d24001500000004000000000000000a0b000081
:101d34003000000040160000050000000400000010
:101d4400000000000b0b00003000000044160000ef
:101d54001500000004000000000000000c0b00004f
:101d640030000000481600001500000004000000c8
:101d7400000000000d0b0000300000004c160000b5
:101d84001500000004000000000000000e0b00001d
:101d940030000000501600000500000004000000a0
:101da400000000000f0b000030000000541600007b
:101db400150000000400000000000000100b0000eb
:101dc4003000000058160000150000000400000058
:101dd40000000000110b0000300000005c16000041
:101de400150000000400000000000000120b0000b9
:101df4003000000060160000050000000400000030
:101e040000000000130b0000300000006416000006
:101e1400150000000400000000000000140b000086
:101e240030000000681600001500000004000000e7
:101e340000000000150b0000300000006c160000cc
:101e4400150000000400000000000000160b000054
:101e540030000000701600000500000004000000bf
:101e640000000000170b0000300000007416000092
:101e7400150000000400000000000000180b000022
:101e84003000000078160000150000000400000077
:101e940000000000190b0000300000007c16000058
:101ea4001500000004000000000000001a0b0000f0
:101eb400300000008016000005000000040000004f
:101ec400000000001b0b000030000000841600001e
:101ed4001500000004000000000000001c0b0000be
:101ee4003000000088160000150000000400000007
:101ef400000000001d0b0000300000008c160000e4
:101f04001500000004000000000000001e0b00008b
:101f140030000000901600000500000004000000de
:101f2400000000001f0b00003000000094160000a9
:101f3400150000000400000000000000200b000059
:101f44003000000098160000150000000400000096
:101f540000000000210b0000300000009c1600006f
:101f6400150000000200000000000000220b000029
:101f740030000000a016000015000000040000005e
:101f840000000000230b000030000000a616000033
:101f9400150000000400000000000000240b0000f5
:101fa40030000000aa160000150000000400000024
:101fb40000000000250b000030000000ae160000f9
:101fc400150000000200000000000000260b0000c5
:101fd40030000000b21600001500000002000000ee
:101fe40000000000000b000010000000cc140000f2
:101ff40015000000020000000000000000000000c6
:1020040021000000ca1400001500000004000000b4
:10201400000000000010000010000000bc160000ca
:102024000500000004000000000000000110000092
:1020340010000000c01600000500000004000000ad
:10204400000000000210000010000000c416000090
:102054000500000004000000000000000310000060
:1020640010000000c8160000050000000400000075
:10207400000000000410000010000000cc16000056
:102084000500000004000000000000000011000032
:1020940010000000d016000005000000040000003d
:1020a400000000000111000010000000d81600001c
:1020b4000500000004000000000000000211000000
:1020c40010000000dc160000050000000400000001
:1020d400000000000311000010000000e0160000e2
:1020e40005000000040000000000000004110000ce
:1020f40010000000e01600000500000000000000d1
:1021040000000000000000000000000000000000cb
:1021140000000000010000000001000000010000b8
:1021240001000000000100000100000001000000a7
:102134000001000000010000010000000100000097
:102144000001000001000000000100000001000087
:102154000100000000010000010000000100000077
:102164000001000001000000000100000001000067
:102174000100000001000000000100000001000057
:102184000100000000010000010000000100000047
:102194000001000000010000010000000100000037
:1021a4000001000001000000000100000001000027
:1021b4000100000001000000000100000001000017
:1021c4000100000000010000010000000100000007
:1021d40000010000010000000001000000010000f7
:1021e40001000000000100000100000001000000e7
:1021f40000010000000100000100000001000000d7
:1022040000010000010000000001000000010000c6
:10221400010000005a0800000400000060080000eb
:10222400010000005e080000010000005f080000db
:102234000100000074140000200000009414000049
:1022440020000000b4140000100000005408000036
:10225400010000005508000001000000c414000043
:1022640001000000c6140000010000005608000030
:102274000100000036080000040000003a080000d5
:10228400040000003e0800000400000042080000b2
:1022940004000000590800000100000000000000d4
:1022a400000000006400000064000000506c0000a6
:1022b4006400000065000000ee6b00006600000092
:1022c4006a0000002e6d0000660000006700000038
:1022d400a86d00006600000069000000d26d0000d7
:1022e400650000006a000000ae6c0000650000009c
:1022f40067000000a86d0000650000006900000090
:10230400d26d00000000000000000000000000008a
:1023140000000000648700000c8800002c88000086
:1023240043310000525800004f560000463100006f
:102334000043000031520000584f00005646000090
:102344003200000054580000425500004646000088
:10235400554c000000000000020300001e1d000098
:102364000004000005060000070100001b1800001f
:1023740017160000151000000f0e00000d0c0000d1
:042384000b0000004a
:020000040000fa
:102388000200fa00000f78001e0078008040eb0081
:10239800514098001e0078008000eb00210898004a
:1023a8001e0178006000b8007001980001099800cb
:1023b8001e007800900090000120a10011009800f4
:1023c8001e007800900090000100a1001100980004
:1023d8001e007800900090000110a10011009800e4
:1023e8001e007800900090000130a10011009800b4
:1023f8001e007800900090000140a1001100980094
:102408001e007800900090000170a1001100980053
:102418001e007800900090000160a1001100980053
:102428001e007800900090000180a1001100980023
:102438001e007800900090000190a1001100980003
:102448001e0078009000900001a0a10011009800e3
:102458001e0178006000b800300998004109980012
:102468001e0178006000b8005001980061019800d2
:102478001e0078008000eb00511098001e017800c3
:102488006000b800601198007111980002082000df
:102498009e0041001e007800011898001e00780078
:1024a8008040eb00215898001e00780090009000b2
:1024b8000150a100110098001e0078008040eb0038
:1024c800416098001e0078008000eb001110980011
:1024d8001e00780061c0b300016098000108200068
:1024e8001e804000a20220008000eb00d3fa070003
:1024f8000080fa00000006002800fa000017980083
:102508001217980023179800311798000e109000a2
:10251800900078000058200080804000f07f200064
:1025280080806000f07f2000008060004200dd00b5
:102538005e01900031002e008100610001007000f2
:1025480050079800ee00900000ff2f000080600008
:102558000030a000600798006e0090000040a100c5
:10256800600798006000b800200f9800310f9800ad
:102578006000b800000f9800110f98000e1090002e
:1025880010009000700060000000e0004c00320075
:1025980020ccb300005798001e109000004078002f
:1025a800405798001e109000ae1090004809dd00ba
:1025b8004800de0000007100c808de000040780016
:1025c800505798001e109000ae1090004008de0092
:1025d80000407800605798001e109000ae109000e0
:1025e8004808de0000407800705798000e109000f0
:1025f800e0009000500090000040780030579800ac
:102608000e109000e000900050009000c809dd0016
:102618004800de0000807100c808de000040780035
:10262800105798000e109000e000900050009000a5
:102638004008de0000407800205798000e109000f7
:10264800be109000511098000e1190006000b80064
:1026580060119800711198000e1090001e119000e2
:10266800ae11900072009800030898000e109000b8
:1026780000209000500190000e1090000020900063
:10268800e8004700020001000e1090008040eb00b7
:10269800414098000e1190006000b8003001980089
:1026a800410198001e109000ae109000e00f5000fd
:1026b800e08f580028013a00300020002701370039
:1026c8001e119000ae119000400020000100200073
:1026d800800f5100818f59003f00360010c4b300ad
:1026e800005798001e10900000407800405798004e
:1026f8001e109000ae109000c809dd004800de00f2
:1027080000807100c808de0000407800505798002b
:102718001e109000ae1090004008de0000407800c7
:10272800605798001e109000ae1090004808de0018
:1027380000407800705798000e109000e00090005c
:102748005000900000407800305798000e1090001c
:10275800e0009000500090004809dd004800de00cd
:1027680000007100c808de0000407800105798008b
:102778000e109000e0009000500090004008de002d
:1027880000407800205798000e109000be1190006d
:10279800531098000e1190006000b8006011980066
:1027a800711198000e1090001e119000ae1190004b
:1027b80072009800030898000e1090000020900006
:1027c800500190000e10900000209000e800470093
:1027d80002000100e00037001e109000ae109000cb
:1027e8002200200003002000820f5000838f580031
:1027f800490032002200200003002000820f500010
:10280800838f580006003e001200200003002000bd
:10281800820f5000838f58000c0032009700370059
:102828003200200003002000820f5000838f5800e0
:10283800620032004200200003002000820f500096
:10284800838f58005f0032008c003700f0c4b3005b
:10285800005798000e109000201890000000e0002b
:10286800030032000e1090002018900000000100b4
:102878003e109000104078000001fb00cf91de0070
:10288800f00f200001002000020278000301780008
:1028980080017800010078000302620000006100f6
:1028a8008000eb00c000dd00000020000001be0039
:1028b8006120b80000017100818171002207980031
:1028c800330798000e10900060389000301f780091
:1028d800201778000e109000301890000000e000db
:1028e800030032000e109000301890000000010024
:1028f8003e10900010407800405798000040eb00d0
:10290800505798000040eb00605798000040eb00db
:102918007057980059003700b0c4b30000579800aa
:102928000e109000201890000000e0000300320014
:102938000e10900020189000000001003e1090003a
:1029480010007800cf80de0020079800310798003b
:102958000e10900060389000301f78002017780023
:102968000e109000301890000000e00003003200c4
:102978000e10900030189000000001002e0090000a
:1029880000407800405798002e009000be0090004c
:10299800c809dd004800de0000807100c808de00bc
:1029a80000407800505798000040eb0060579800ae
:1029b8000040eb00705798003000370030002000ce
:1029c8006600370030c4b300005798000e1090001e
:1029d800201890000000e000030032000e10900064
:1029e80020189000000001003e1090001001be0069
:1029f80022079800330798000e1090006038900066
:102a0800301f7800201778000e10900030189000c2
:102a18000000e000030032000e1090003018900013
:102a2800000001002e0090000040780040579800f8
:102a38002e009000be009000c809dd004800de00ae
:102a480000807100c808de000040780050579800e8
:102a58002e009000be0090004008de000040780084
:102a6800605798002e009000be0090004808de00d5
:102a78000040780070579800000000000e10900089
:102a8800e000900050009000004078003057980017
:102a98000e109000e0009000500090004809dd0002
:102aa8004800de0000007100c808de000040780021
:102ab800105798000e109000e00090005000900011
:102ac8004008de0000407800205798000e10900063
:102ad80000209000500190000e10900000209000ff
:102ae800e8004700020001000e109000e00090008e
:102af80050009000c809dd004800de000080710029
:102b0800c808de00800078000e109000e005b000d4
:102b1800f83907000e109000703890000000e000af
:102b28000b0032000e109000f03b90000e10900049
:102b3800e0009000500090000e119000523b900071
:102b48001e02be000001be0006007800070001005a
:102b58000e1090000afe07000000eb000080fa004b
:102b6800000006002c00fa001017980022179800a1
:102b78003317980041179800541798001e109000ba
:102b8800900078000058200080804000f07f2000ee
:102b980080806000f07f2000008060004200dd003f
:102ba8006e01900031002e0081006100010070006c
:102bb80060079800fe00900000ff2f000080600072
:102bc8000030a000700798007e0090000040a1002f
:102bd800700798006000b800300f9800410f980007
:102be8006000b800100f9800210f98005e10900048
:102bf8008048900000ccb30080cf50002d003a00f0
:102c080000cab300205798000040eb0060579800b6
:102c18000040eb00705798000040eb00005f980000
:102c28000040eb00105f98000040eb005057980000
:102c38000040eb00305798000040eb0040579800e8
:102c48001e1090008040eb00414098001e1090003c
:102c580001082000808040001e109000511098004c
:102c68001e1190006000b800601198007111980062
:102c78001e109000900090000140a00011009800e4
:102c88001e109000900090000150a10011009800c3
:102c98001e10900000209000500190001e1090001f
:102ca80000209000ea004700020001000000eb004d
:102cb800bc0237005e1090008048900020ccb30022
:102cc80080cf5000050032005e10900080489000d0
:102cd80060ccb30080cf50008d003a001e109000e9
:102ce800900090000170a0001100980000cab30085
:102cf800205798001e1090000060900060579800c0
:102d08000040eb00705798000040eb00005f98000f
:102d18000040eb00105f98001e109000e00090004b
:102d28005000900000407800505798001e10900006
:102d3800e0009000500090004809dd004800de00e7
:102d480000007100c808de00004078003057980085
:102d58001e109000e0009000500090004008de0037
:102d680000407800405798001e1090008040eb000b
:102d7800414098001e1190006000b8003001980092
:102d8800410198005e109000704890000080fb00a0
:102d98008000eb001e119000700198000109980056
:102da8001e10900070019000800990004818dd0006
:102db800c810de00810070004810dd001e11900070
:102dc80070019800010998001e1090007001900091
:102dd800800990005e109000604890000080fb0021
:102de8008000eb0000007100818071001e119000ce
:102df80070019800010998001e1090007001900061
:102e0800800990004818dd00c810de0081007000bd
:102e18004810dd001e11900070019800010998000b
:102e28001e10900070019000800990005e109000c4
:102e3800504890000080fb008000eb00000071000b
:102e4800818071001e11900070019800010998009e
:102e58001e10900070019000800990004818dd0055
:102e6800c810de00810070004810dd001e119000bf
:102e780070019800010998001e10900070019000e0
:102e8800800990005e109000404890000080fb0090
:102e98008000eb0000007100818071001e1190001d
:102ea80070019800010998001e1090000108200088
:102eb800808040001e109000511098001e11900054
:102ec8006000b80060119800711198001e10900001
:102ed800900090000140a000110098001e10900082
:102ee800900090000150a100110098001e10900061
:102ef80000209000500190001e10900000209000cb
:102f0800ea004700020001000000eb00250237003c
:102f18005e1090008048900010c2b30080cf50002f
:102f280093003a0000c6b300205798002e10900076
:102f380000407800605798002e109000be10900056
:102f4800c809dd004800de0000807100c808de0006
:102f580000407800705798002e109000be10900026
:102f68004008de0000407800005f98002e109000b6
:102f7800be1090004808de0000407800105f9800fe
:102f88001e109000e0009000500090000040780073
:102f9800505798001e109000e000900050009000dc
:102fa8004809dd004800de0000007100c808de00a6
:102fb80000407800305798001e109000e000900004
:102fc800500090004008de0000407800405798000c
:102fd8001e109000ce119000531098001e11900002
:102fe8006000b80060119800711198005e109000a0
:102ff800704890000080fb008000eb001e119000dc
:1030080070019800010998001e109000700190004e
:10301800800990004818dd00c810de0081007000ab
:103028004810dd001e1190007001980001099800f9
:103038001e10900070019000800990005e109000b2
:10304800604890000080fb008000eb0000007100e9
:10305800818071001e11900070019800010998008c
:103068001e10900070019000800990004818dd0043
:10307800c810de00810070004810dd001e119000ad
:1030880070019800010998001e10900070019000ce
:10309800800990005e109000504890000080fb006e
:1030a8008000eb0000007100818071001e1190000b
:1030b80070019800010998001e109000700190009e
:1030c800800990004818dd00c810de0081007000fb
:1030d8004810dd001e119000700198000109980049
:1030e8001e10900070019000800990005e10900002
:1030f800404890000080fb008000eb000000710059
:10310800818071001e1190007001980001099800db
:103118001e10900070019000800990002e10900001
:10312800be109000800f5100818f590002003600b8
:10313800800020009b0137001e1090002e11900087
:10314800be11900072009800030898001e109000ad
:1031580000209000500190001e1090000020900068
:10316800ea004700020001000000eb008d01370073
:103178005e10900080489000f0c2b30080cf5000ed
:1031880067003a002e119000be1190001000200038
:1031980001002000800f5100818f59000200320089
:1031a800300020007f0137001e109000201890008a
:1031b8000000e000030032001e109000201890006c
:1031c800000001005e1090004048900080407800a8
:1031d8004e109000014878001e10900030189000a2
:1031e8000000e000030032001e109000301890002c
:1031f8000000010000c6b300205798000040eb0013
:10320800605798000040eb00705798000040eb00b2
:10321800005f98000040eb00105f98001e109000bf
:10322800e00090005000900000407800505798004f
:103238001e109000e000900050009000c809dd00ca
:103248004800de0000807100c808de0000407800f9
:10325800305798001e109000e00090005000900039
:103268004008de0000407800405798000000eb005e
:10327800000f78001e109000601890000000e00019
:10328800070032001e109000601990001e10900078
:10329800e00090005000900002000100000f78004c
:1032a8001e0078000000e000050032009e00780053
:1032b8001e1090003d0107001e00780039013700fc
:1032c8001e10900000209000500190001e109000e9
:1032d80000209000ea004700020001001e10900044
:1032e800e0009000500090004809dd004800de0032
:1032f80000007100c808de0080007800f0ff2000a0
:10330800808060001e1090002004b000f93707008c
:103318001e1090001afc07000000eb002101370086
:103328005e10900080489000b0c2b30080cf50007b
:1033380076003a002e119000be1190002000200067
:1033480001002000800f5100818f590002003200d7
:1033580030002000130137001e1090002018900044
:103368000000e000030032001e10900020189000ba
:1033780000000100ce119000330798005e10900005
:10338800504890008080fb003e00900001087800c3
:103398003e00900010007800c800dd003e0090005c
:1033a800010878003e009000900078005e109000c0
:1033b800404890000080fb00810070003e009000b3
:1033c800010878001e109000301890000000e000fe
:1033d800030032001e109000301890000000010019
:1033e80000c6b300205798000040eb0060579800d3
:1033f8000040eb00705798000040eb00005f980019
:103408000040eb00105f98001e109000e000900054
:103418005000900000407800505798001e1090000f
:10342800e0009000500090004809dd004800de00f0
:1034380000007100c808de0000407800305798008e
:103448001e109000e0009000500090004008de0040
:1034580000407800405798000000eb0010079800e3
:103468001e109000601890000000e0000700320075
:103478001e109000601990001e109000e00090004f
:103488005000900002000100100798001e009000f4
:103498000000e000050032009e0090001e10900021
:1034a800c20007001e009000be0037001e109000ea
:1034b80000209000500190001e1090000020900005
:1034c800ea004700020001001e109000e000900092
:1034d80050009000c809dd004800de00008071003f
:1034e800c808de0080007800f0ff200080806000bf
:1034f8001e1090002004b0007e3707001e109000b8
:103508009ffb07000000eb00a60037005e1090004c
:103518008048900030c2b30080cf5000a0003a002d
:103528002e119000be1190004000200001002000e4
:10353800800f5100818f59000200320030002000b6
:10354800980037001e109000201890000000e0003e
:10355800030032001e1090002018900000000100a7
:10356800ce109000410798005e10900070489000bf
:103578000080fb008000eb004e0190000089be0037
:103588004e0090001001be004818dd00c810de0093
:10359800810070004810dd004e0190000089be00d7
:1035a8004e0090001001be005e1090006048900030
:1035b8000080fb008000eb0000007100818071003a
:1035c8004e0190000089be004e0090001001be0020
:1035d8004818dd00c810de00810070004810dd00ca
:1035e8004e0190000089be004e0090001001be0000
:1035f8005e109000504890000080fb008000eb00b7
:1036080000007100818071004e0190000089be00a9
:103618004e0090001001be004818dd00c810de0002
:10362800810070004810dd004e0190000089be0046
:103638004e0090001001be005e10900040489000bf
:103648000080fb008000eb000000710081807100a9
:103658004e0190000089be001e10900030189000a6
:103668000000e000030032001e10900030189000a7
:103678000000010000c6b300205798000040eb008e
:10368800605798000040eb00705798000040eb002e
:10369800005f98000040eb00105f98001e1090003b
:1036a800e0009000500090000040780050579800cb
:1036b8001e109000e0009000500090004809dd00c6
:1036c8004800de0000007100c808de0000407800f5
:1036d800305798001e109000e000900050009000b5
:1036e8004008de0000407800405798000000eb00da
:1036f800200798001e109000601890000000e0005d
:10370800070032001e109000601990001e109000f3
:10371800e00090005000900002000100200798008f
:103728002e0090000000e00005003200ae0090007e
:103738001e1090001d0007002e0090001900370091
:103748001e10900000209000500190001e10900064
:1037580000209000ea004700020001001e109000bf
:10376800e000900050009000c809dd004800de002d
:1037780000807100c808de0080007800f0ff20009b
:10378800808060001e1090002004b000d936070029
:103798001e109000fafa07000000eb000100370045
:1037a800300020000080fa00000006002000fa0027
:1037b800600f9800710f98006e08900090007800d4
:1037c8000058200080804000f07f2000808060004a
:1037d800f07f2000008060004200dd003e01900084
:1037e80031002e0081006100010070003007980050
:1037f800ce00900000ff2f00008060000030a00085
:10380800400798004e0090000040a1004007980033
:103818006000b800000f9800110f98006000b80011
:1038280060079800710798007e0890000000e0008b
:10383800740034007e0890006101b9000080eb003c
:103848008080eb000200400083804800a200200036
:1038580003002000820f5000838f580038003e007c
:10386800006001000a0037000d0037001000370023
:103878001300370016003700190037001c00370006
:103888001f003700220037002500370028003700c6
:103898000000200021602000008fbe0028003700b3
:1038a8000000200001802000008fbe0024003700a7
:1038b8000001200071602000008fbe00200037004a
:1038c8000000200031502000008fbe001c0037008f
:1038d8000000200041502000008fbe001800370073
:1038e8001000200011602000008fbe001400370077
:1038f8002000200011602000008fbe00100037005b
:103908005000200041502000008fbe000c003700fe
:103918000000200061602000008fbe000800370012
:103928000002200001802000008fbe000400370044
:103938002002200001802000008fbe00000000004f
:1039480000c8b300404f98006e089000e000900057
:103958005000900000407800704f98006e0890006a
:10396800e0009000500090004809dd004800de00ab
:1039780000007100c808de0000407800504f980031
:103988006e089000e0009000500090004008de00b3
:1039980000407800604f98001e00780000407800d2
:1039a800005798001e00be004809dd004800de00f0
:1039b80000007100c808de00004078001057980029
:1039c8001e00be004008de00004078002057980026
:1039d8001e00be004808de000040780030579800fe
:1039e8006e08900000209000500190006e08900032
:1039f80000209000e4004700020001006e089000db
:103a08005ffa07000080fa00000006002200fa00b2
:103a1800600f9800720f9800031798006e089000c6
:103a2800900078000058200080804000f07f20003f
:103a380080806000f07f2000008060004200dd0090
:103a48003e01900031002e008100610001007000ed
:103a580030079800ce00900000ff2f000080600023
:103a68000030a000400798004e0090000040a100e0
:103a7800400798006000b800000f9800110f9800e8
:103a88006000b80060079800710798007e099000f0
:103a98008e119000028fbe0000c8b300404f9800fe
:103aa8006e089000e0009000500090000040780000
:103ab800704f98006e089000e00090005000900051
:103ac800c809dd004800de0000807100c808de007b
:103ad80000407800504f98006e089000e000900079
:103ae800500090004008de0000407800604f9800c9
:103af8001e00780000407800005798001e00be00a5
:103b08004809dd004800de0000007100c808de003a
:103b180000407800105798001e00be004008de00e4
:103b280000407800205798001e00be004808de00bc
:103b380000407800305798006e08900000209000f0
:103b4800500190006e08900000209000e4004700ab
:103b5800020001006e08900009fa07000080fa00d0
:103b6800000006001c00fa00400f9800215f980032
:103b7800325f98004e08900090007800007820008e
:103b880080804000f07f200080806000f07f20006f
:103b9800008060004200dd001e01900031002e0010
:103ba800810061000100700010079800ae009000cd
:103bb80000ff2f00008060000010a0002007980080
:103bc8002e0090000040a100200798006000b80077
:103bd80060079800710798006000b80040079800d7
:103be80051079800ae589000014f9800be589000b9
:103bf800114f98004e08900000209000500190004e
:103c08004e089000002090008e007800020001000d
:103c18000080fa00000006000400fa00000f780097
:103c280021479800190037001e00780050119000b5
:103c38001e007800f01090006010900000007800de
:103c480000004100ae409000014878001e00780056
:103c5800f01090006010900061004000e080480083
:103c68001e01780060119800711198001e007800fc
:103c7800c00090003000900061004000e0804800e3
:103c88001e01780030019800410198001e0078005c
:103c980030019000c00190001e007800800890005c
:103ca80070009000800f5100818f5900deff3900ad
:103cb8000080fa00000006000600fa00000f7800f5
:103cc80011079800220798001e007800201890001d
:103cd8000000e000030032001e0078002018900069
:103ce800000001002e0090000000e00012003400e7
:103cf8001e007800501190001e007800f01090000f
:103d08006010900000007800000041009e009000c4
:103d180091489000014878001e007800f01090004b
:103d28006010900061004000e08048001e017800ab
:103d380060119800711198002e009000e10f50005a
:103d4800120034001e007800501190001e00780008
:103d5800f010900060109000000078000000410012
:103d68009e009000a1489000014878001e0078004d
:103d7800f01090006010900061004000e080480062
:103d88001e01780060119800711198002e009000b3
:103d9800e20f5000120034001e007800501190000d
:103da8001e007800f010900060109000000078006d
:103db800000041009e009000b14890000148780042
:103dc8001e007800f0109000601090006100400024
:103dd800e08048001e017800601198007111980079
:103de8002e009000e30f5000120034001e007800ef
:103df800501190001e007800f010900060109000a4
:103e080000007800000041009e009000c14890002a
:103e1800014878001e007800f010900060109000b3
:103e280061004000e08048001e01780060119800a1
:103e3800711198002e009000e40f50001200340019
:103e48001e007800501190001e007800f0109000bd
:103e58006010900000007800000041009e00900073
:103e6800d1489000014878001e007800f0109000ba
:103e78006010900061004000e08048001e0178005a
:103e880060119800711198002e009000e50f500005
:103e9800120034001e007800501190001e007800b7
:103ea800f0109000601090000000780000004100c1
:103eb8009e009000e1489000014878001e007800bc
:103ec800f01090006010900061004000e080480011
:103ed8001e01780060119800711198002e00900062
:103ee800e60f5000120034001e00780050119000b8
:103ef8001e007800f010900060109000000078001c
:103f0800000041009e009000f148900001487800b0
:103f18001e007800f01090006010900061004000d2
:103f2800e08048001e017800601198007111980027
:103f38001e007800301890000000e00003003200f6
:103f48001e00780030189000000001001e00780064
:103f5800d04090002e0090000040780080c04000c3
:103f68001e007800514098001e0078003001900033
:103f7800c00190002e009000cf80de0002004000bb
:103f8800838048001e0178003001980041019800a4
:103f98001e007800100090004300de0061406000c1
:103fa8000004a200e14060001e0078008180fb0050
:103fb800e1806000c308dd00100190000230a1001c
:103fc80082807000110098000000eb000080fa0069
:103fd800000006000600fa00000f7800214798004c
:103fe800220798002e009000e30f500021003200b5
:103ff800e30f500007003c00e10f500013003200af
:10400800e10f500016003c000000e0000a003200fa
:1040180031003700e50f500020003200e50f500056
:1040280019003500e60f500021003200e70f50005c
:1040380024003200280037001e007800ae409000af
:10404800014898000000eb00240037001e007800ab
:10405800ae40900011489800100020001f00370063
:104068001e007800ae4090002148980020002000f3
:104078001a0037001e007800ae40900031489800c2
:1040880030002000150037001e007800ae40900078
:104098004148980040002000100037001e007800ba
:1040a800ae40900051489800500020000b003700a7
:1040b8001e007800ae409000614898006000200023
:1040c800060037001e007800ae4090007148980046
:1040d80070002000010037000080eb000080fa002b
:1040e800000006002200fa00889fbe00600f9800ba
:1040f800710f98000217980010002000000f780038
:104108006e089000900078000058200080804000e1
:10411800f07f200080806000f07f20000080600039
:104128004200dd003e01900031002e008100610058
:104138000100700030079800ce00900000ff2f00ab
:10414800008060000030a000400798004e009000fa
:104158000040a100400798006000b800000f9800d8
:10416800110f98006000b800600798007107980068
:104178000e1090000000e000c8053a007e0890008c
:104188008048900000c8b30080cf500005003a0076
:10419800210020006e08900084fd07002000200008
:1041a800bf0537006e089000100090007000600096
:1041b8000000e000430232006e08900010009000fa
:1041c800640060000000e00005003a0021002000c3
:1041d8006e08900075fd070020002000b00537002c
:1041e8006e08900090009000000820000080600099
:1041f8000000e0001c003a006e0890008018900053
:104208006e089000900ab000808f500005003600bc
:10421800810020006e08900064fd070080002000e7
:104228009f0537006e089000404090008040e800ed
:104238006e0890004140980072002000fe0890002f
:104248006e0890009cfe07007e08900000489000d1
:104258000004e00004003d006e089000900090000b
:104268000150a000110098006e0890009000900086
:1042780000082000008060000000e0001102320009
:104288006e08900010009000610060000000e000df
:10429800150132007e089000004890008080fb00e5
:1042a800300e200080806000300a2000808f50008f
:1042b8000e003a006e0890009000900001a0a00047
:1042c800110098006e0890008040eb004140980073
:1042d8006e08900050109000800078006e089000e2
:1042e800f60707000000eb006d0537007e08900018
:1042f800004890008080fb00300e20008080600025
:10430800200a2000808f5000e0003a007e089000cc
:10431800904890006e0890004040900080cf500078
:104328003d003a006e08900030019000c0019000f6
:104338006e089000f008900060089000800f51000f
:10434800818f5900280039006e089000c000900045
:10435800300090007200200003002000fbf20700ec
:104368000040780071c0b30000c05000204798009a
:10437800ae409000200020000008dd002047980093
:10438800ae40900010ccb30000c07000404f9800c1
:104398000040eb00504f98000040eb00604f980041
:1043a8000040eb00704f98000040eb000057980069
:1043b8000040eb00105798000040eb002057980091
:1043c8000040eb00305798006e08900000209000e5
:1043d800500190006e08900000209000e400470013
:1043e80002000100ba0037007e089000a048900043
:1043f8006e089000016098006e0890009000900090
:104408000190a000110098006e0890008040eb0019
:1044180041409800ae0037007e0890009048900018
:104428006e0890004040900080cf5000910031000d
:104438006e08900030019000c00190006e08900056
:10444800f008900060089000800f5100818f59009b
:104458005b003a006e08900030019000c0019000a7
:104468006e089000404090008080fb007e0890001d
:10447800104890000080fb00008050000000e90018
:104488006700b90000007800cf80de00000051000e
:10449800818059006e099000300198004101980010
:1044a8006e08900060119000f01190006e08900066
:1044b800404090008080fb007e08900010489000eb
:1044c8000080fb00008050000000e9006700b90090
:1044d80000007800cf80de00000051008180590084
:1044e8006e09900060119800711198006e08900094
:1044f80030049000c00490006e089000f00890000e
:104508006008900072002000030020008ff207006e
:10451800e00f5000e08f5800070032006e0890004e
:10452800f00890006008900072002000030020004e
:1045380086f207000200370070002000010020000a
:104548000000540081805c006e09900030019800e2
:10455800410198006e08900060149000f0149000db
:104568006e089000f008900060089000720020002b
:104578000300200075f20700e00f5000e08f58009c
:10458800070032006e089000f00890006008900064
:1045980072002000030020006cf2070002003700c0
:1045a80070002000010020000000540081805c00a1
:1045b8006e0990006011980071119800240037006e
:1045c8006e08900030019000c00190006e089000c5
:1045d800006090008080fb007e08900010489000ea
:1045e8000080fb00008050006700b90000007800e0
:1045f800cf80de0000005100818059006e099000d4
:1046080030019800410198006e08900060119000f8
:10461800f01190006e089000006090008080fb0010
:104628007e089000104890000080fb000080500039
:104638006700b90000007800cf80de00000051005c
:10464800818059006e0990006011980071119800de
:104658007e089000904890006e08900041409800b5
:104668006e089000900090000190a0001100980042
:104678001700370032002000435020006e089000d9
:10468800e2fc070020002000850437007e08900027
:10469800004890008080fb00100e200080806000a1
:1046a800100a2000808f500004003a006e08900025
:1046b80033f707000000eb007904370021002000e1
:1046c8006e08900039fc07002000200074043700b1
:1046d8006e0990006000b800300998004109980000
:1046e8000000eb006e0437006e0890001000900088
:1046f800620060000000e000f20032006e089000e6
:104708009000900000042000008060000000e0009d
:104718004b0032007e089000004890008080fb002b
:10472800000e200080806000000c2000808f500068
:1047380043003a007e089000004890007c406000ea
:10474800304798003e4090000080fb004200de00a9
:10475800304798006e08900030019000c00190002a
:104768003e4090000080fb008000eb0000005100fc
:10477800818059006e09900030019800410198002d
:104788006e089000d04090003e40900080c05000dd
:104798006e089000514098006e08900090009000bc
:1047a8000150a000110098006e08900030019000a0
:1047b800c00190006e089000800890007000900082
:1047c800800f5100818f59000500360081002000bc
:1047d8006e089000f5fb07008000200030043700c9
:1047e80010cab300404f98000040eb00504f9800ab
:1047f8000040eb00604f98000040eb00704f9800bd
:104808000040eb00005798000040eb00105798005c
:104818000040eb00205798000040eb00305798000c
:104828006e08900000209000500190006e089000e3
:1048380000209000e4004700020001009b003700c0
:104848006e089000900090000080200000806000ba
:104858000000e0006e003a006e08900040409000b2
:104868008040e8006e089000414098007e08900063
:1048780000489000804078000174a1006e08900004
:10488800616899006e089000e06891006e089000d9
:104898004040900080cf5000090032006e08900020
:1048a800404090008040e9006e0890004140980028
:1048b8006e0890009000900001b0a00011009800d0
:1048c8006e089000e06891006e0890007168990089
:1048d8006e0890009000900000802000008060002a
:1048e8000000e00010003a006e089000d010900020
:1048f8006e089000300ab000808f50000500360026
:10490800810020006e089000a8fb070080002000ae
:10491800e303370072002000fe0890006e08900044
:10492800e5fc07000a0037006e089000e068910077
:104938006e0890007068910080cf500004003a0023
:104948006e0890009000900001b0a100110098003e
:104958006e089000c04090006e08900000609000c3
:1049680080cf5000040039006e089000900090003d
:104978000150a000110098007e08900000489000a7
:104988000004e00049003d0020cab300404f9800f1
:104998006e08900040409000504f98006e089000bc
:1049a80000609000604f98000040eb00704f980046
:1049b8000040eb00005798000040eb0010579800ab
:1049c8000040eb00205798000040eb00305798005b
:1049d8006e08900000209000500190006e08900032
:1049e80000209000e4004700020001006e089000db
:1049f800900090000150a100110098006e089000ee
:104a0800900090000160a000110098002700370076
:104a18006e089000006090008080fb007e08900087
:104a2800004890000081fb00f007200000006100b2
:104a3800808f50001d003a0020cab300404f9800f4
:104a48006e08900040409000504f98006e0890000b
:104a580000609000604f98000040eb00704f980095
:104a68000040eb00005798000040eb0010579800fa
:104a78000040eb00205798000040eb0030579800aa
:104a88006e08900000209000500190006e08900081
:104a980000209000e4004700020001006e0890002a
:104aa8009000900001b0a100110098006e099000dc
:104ab8006000b80030099800410998000000eb0038
:104ac800770337006e0890001000900062006000c5
:104ad8000000e000910032006e0890001000900085
:104ae800640060000000e00005003a00210020009a
:104af8006e0890002dfb0700200020006803370097
:104b08007e08900000489000704060003047980090
:104b18003e4090000080fb000000e00003003200ef
:104b2800f00f50000b003200170037006e0890009d
:104b380010009000680060000000e0000f003200e4
:104b4800410020006e08900018fb0700400020007c
:104b5800530337006e089000100090006800600052
:104b68000000e00007003a00410020006e089000b5
:104b78000efb07004000200049033700000000003a
:104b880001003700000000007e08900000489000f7
:104b980061406000304798003e409000e14f50006f
:104ba80039003a007e089000004890006e4060008e
:104bb800304798003e4090000080fb000000d10084
:104bc8003047980071c0b3003e40900000c05000cc
:104bd800304798006e089000100090004300de00f7
:104be80061406000404f9800ce489000400020008f
:104bf8000008dd00404f98004e4890000054a00087
:104c0800404f98000040eb00504f98000040eb00e8
:104c1800604f98000040eb00704f98000040eb0098
:104c2800005798000040eb00105798000040eb0038
:104c3800205798000040eb00305798003e40900005
:104c48000080fb0000017800fe0890006e089000cc
:104c580019fc07008040eb006e089000eefb07008f
:104c68006e08900000209000500190006e0890009f
:104c780000209000e4004700020001006e08900048
:104c8800bff50700250037006e089000100090005f
:104c98004300de0061406000404f9800ce4890001d
:104ca800400020000008dd00404f98004e4890006a
:104cb8000054a000404f98000040eb00504f98006f
:104cc8000040eb00604f98000040eb00704f9800e8
:104cd8000040eb00005798000040eb001057980088
:104ce8000040eb00205798000040eb003057980038
:104cf80072002000fe0890006e089000eefb07008e
:104d08006e08900000209000500190006e089000fe
:104d180000209000e4004700020001006e089000a7
:104d280010009000610060000000e000690132009e
:104d38006e08900010009000640060000000e00021
:104d480005003a00210020006e08900097fa07003d
:104d580020002000d20237007e0890008048900092
:104d680000c6b30080cf500005003a006e089000de
:104d780010009000680060000000e0000a003200a7
:104d88007e0890008048900000c7b30080cf500094
:104d98004b013a006e089000100090006800600017
:104da8000000e000460132006e089000700190009b
:104db800800990007000200001002000800f510041
:104dc800818f5900e3003e007e08900080489000e3
:104dd80000c6b30080cf500041003a006e08900032
:104de800800890007000900042002000030020001e
:104df800820f5000838f58002d003200420020009f
:104e080003002000820f5000838f580010003e00de
:104e18002200200003002000820f5000838f5800da
:104e2800290032002200200003002000820f5000d9
:104e3800838f580021003e0012002000030020004c
:104e4800820f5000838f5800220032002400370060
:104e58006200200003002000820f5000838f58005a
:104e68000d0032006200200003002000820f500075
:104e7800838f58000b0039007200200003002000c7
:104e8800820f5000838f580015003a0010c0b300fd
:104e9800404f98001200370030c0b300404f9800d0
:104ea8000f00370050c0b300404f98000c00370087
:104eb80070c0b300404f98000900370090c0b3009d
:104ec800404f980006003700b0c0b300404f98002c
:104ed80003003700d0c0b300404f98000000000026
:104ee8007e0890008048900000c7b30080cf500033
:104ef8008c003a006e0890008008900070009000c6
:104f08004200200003002000820f5000838f5800c9
:104f18002d0032004200200003002000820f5000c4
:104f2800838f580010003e0022002000030020005c
:104f3800820f5000838f5800290032002200200081
:104f480003002000820f5000838f580021003e008c
:104f58001200200003002000820f5000838f5800a9
:104f6800220032006f00370062002000030020009a
:104f7800820f5000838f58000d003200620020001d
:104f880003002000820f5000838f58000b00390067
:104f98007200200003002000820f5000838f580009
:104fa80060003a0010c1b300404f9800120037006b
:104fb80030c1b300404f98000f00370050c1b30014
:104fc800404f98000c00370070c1b300404f980064
:104fd8000900370090c1b300404f98000600370021
:104fe800b0c1b300404f980003003700d0c1b300f0
:104ff800404f9800000000004a0037006e089000fb
:105008008008900070009000e00f5000e08f58007a
:1050180013003a006e089000201890000000e0008d
:10502800030032006e089000201890000000010074
:10503800640047001e0178008040eb00e5fb070094
:105048006e089000301890000000e0003400320034
:105058006e08900030189000000001003000370002
:105068006e0890008008900070009000e00f5000db
:10507800e08f58002a0032006e0890002018900037
:105088000000e000030032006e0890002018900035
:10509800000001006e089000501190006e0890000a
:1050a800f0109000601090000000780000004100af
:1050b8001040780080407800640047001e017800a6
:1050c800c4fb07006e089000301890000000e00054
:1050d800030032006e0890003018900000000100b4
:1050e8006e089000800890007000900061005000e9
:1050f800e08058006e09900070019800010998003e
:105108006e089000f0109000601090006100400060
:10511800e08048006e0990006011980071119800b5
:105128001e0fe8001e007800e70f5000b3ff3400a0
:105138006e08900000209000500190006e089000ca
:1051480000209000e4004700020001006e08900073
:105158008bf407006e0890007001900080099000a1
:105168007000200001002000800f5100818f59003d
:10517800580036007e0890008048900000c6b300b2
:1051880080cf500002003a000040eb00404f9800ea
:105198007e0890008048900000c7b30080cf500080
:1051a8002e003a0000c1b300404f98002b00370092
:1051b8006e089000201890000000e0000300320004
:1051c8006e08900020189000000001006e08900002
:1051d800501190006e089000f01090006010900040
:1051e80000007800000041001040780080407800fe
:1051f800640047001e01780076fb07006e089000e7
:10520800301890000000e000030032006e089000a3
:1052180030189000000001006e089000800890008f
:105228007000900061005000e08058006e09900006
:1052380070019800010998006e089000f010900025
:105248006010900061004000e08048006e09900006
:1052580060119800711198001e0fe8001e00780078
:10526800e70f5000d2ff34006e0890000020900035
:10527800500190006e08900000209000e400470064
:10528800020001006e089000100090004300de004c
:10529800614060000004a200e14060006e089000d8
:1052a8008180fb00e1806000c308dd0010019000f0
:1052b8000230a100828070001100980005003700bc
:1052c800410020006e08900038f9070040002000d7
:1052d800730137007e0890008048900000c4b30036
:1052e80080cf50004c003a006e08900010009000eb
:1052f800640060000000e00042003a006e08900080
:10530800900090000100a000110098006e08900025
:10531800900090000120a000110098007e089000e5
:10532800204890000080fb008000eb006e09900090
:1053380050019800610198006e089000500190009b
:10534800e00190004818dd00c810de008100700000
:105358004810dd006e099000500198006101980026
:105368006e08900050019000e00190007e089000c7
:10537800104890000080fb008000eb0000007100e6
:10538800818071006e0990005001980061019800b9
:105398006e08900050019000e00190004818dd0070
:1053a800c810de00810070004810dd006e09900012
:1053b80050019800610198006e089000500190001b
:1053c800e00190007e089000304890000080fb00cb
:1053d8008000eb0000007100818071006e09900070
:1053e8005001980061019800fe0890006e08900036
:1053f800e4030700800078006e089000ebf80700cf
:1054080005003700210020006e089000e7f807002b
:1054180020002000220137007e089000804890007c
:1054280000cab30080cf5000050032007e0890000b
:105438008048900040cab30080cf500058003a001e
:105448006e08900010009000640060000000e0000a
:105458004e003a006e089000900090000100a000f5
:10546800110098006e089000900090000120a000a4
:10547800110098006e089000900090000140a00074
:10548800110098006e089000900090000170a00034
:10549800110098007e089000c04890006e089000a7
:1054a800016098007e089000204890000080fb0072
:1054b8008000eb006e09900050019800610198008f
:1054c8006e08900050019000e00190004818dd003f
:1054d800c810de00810070004810dd006e099000e1
:1054e80050019800610198006e08900050019000ea
:1054f800e00190007e089000104890000080fb00ba
:105508008000eb0000007100818071006e0990003e
:1055180050019800610198006e08900050019000b9
:10552800e00190004818dd00c810de00810070001e
:105538004810dd006e099000500198006101980044
:105548006e08900050019000e00190007e089000e5
:10555800304890000080fb008000eb0000007100e4
:10556800818071006e0990005001980061019800d7
:10557800fe0890006e089000820307008000780003
:105588006e08900089f80700050037002100200008
:105598006e08900085f8070020002000c000370042
:1055a8007e0890008048900000ccb30080cf500067
