:020000040040BA
:10C0000048FD4220C9EB4000ADEC4000ADEC4000E3
:10C01000ADEC4000ADEC4000ADEC40000000000095
:10C0200000000000000000000000000061C34200AA
:10C03000ADEC40000000000001C44200ADEC400047
:10C04000FDEC4000FDEC4000FDEC4000FDEC40004C
:10C05000FDEC4000FDEC4000FDEC4000FDEC40003C
:10C06000FDEC4000000000006DD540007DD5400093
:10C070008DD54000FDEC4000FDEC4000FDEC4000A3
:10C080009DD54000ADD54000FDEC4000FDEC4000EA
:10C09000FDEC4000FDEC4000FDEC4000FDEC4000FC
:10C0A000FDEC4000FDEC4000FDEC400065C44200AA
:10C0B000FDEC4000A1D14000FDEC4000FDEC400053
:10C0C000FDEC4000FDEC4000B9DE4000FDEC40001E
:10C0D00000000000FDEC400000000000FDEC40000E
:10C0E000B1D14000FDEC4000FDEC4000FDEC400013
:10C0F000FDEC4000FDEC4000FDEC4000FDEC40009C
:10C10000FDEC4000FDEC4000FDEC4000FDEC40008B
:10C110009D2441000000000000000000000000001D
:10C12000FDEC4000FDEC4000FDEC4000FDEC40006B
:10C13000FDEC400000000000FDEC4000FDEC400084
:10C1400010B5054C237833B9044B13B10448AFF351
:10C1500000800123237010BD6419402000000000FE
:10C16000000060000C4B43B10C480D4910B5AFF313
:10C1700000800C48036823B910BD0A48036833B92E
:10C180007047094B002BF7D0BDE810401847064B0D
:10C19000002BF5D0184700BF000000000000600031
:10C1A00068194020147643000000000010B5044BCD
:10C1B0009847044B00209847034BBDE810401847B0
:10C1C00075D7400025D8400039D84000004B1847AB
:10C1D00045D8400070B51048104C114DA0473E2185
:10C1E0000020104B9847A8470028FCD00E4B9847DA
:10C1F0000E4D0F4A0F4B9A62A8470028FCD0022030
:10C200000D4B98470D4B002098470D4B9847234600
:10C210000148BDE87040184700A3E111F9ED400066
:10C2200045D74000F9D6400055D7400065D74000BB
:10C23000013F182000060E4045D64000B5D640000C
:10C2400025ED4000014B1878704700BF8019402051
:10C25000024B1B780BB9024B1847704780194020DE
:10C2600091934200064B10B59847064AC378137065
:10C270001BB9054BBDE810401847012010BD00BF99
:10C280001DC4400080194020659342000B4A13787A
:10C2900013F0800F03F0600305D0402B0BD15378CF
:10C2A0004BB9074B1847402B05D153781BB9D3889E
:10C2B0000BB1044B18470020704700BF9CE341209E
:10C2C000A9934200A5934200024B9878024B00F0DC
:10C2D0007F0018479CE3412085E54000134B70B573
:10C2E0001B780BB9002070BD114B1B681B681A79B5
:10C2F0008242F7D90F4A002413605D881D449D4295
:10C3000003D8002CEED01360ECE75E78042E09D140
:10C310009E78864206D1DE788E4203D104B1136046
:10C32000012070BD1C7823440124E8E78C194020CB
:10C330009019402094194020094B1B681B685A88AB
:10C340001A4403781844904201D300207047437880
:10C35000042BFAD0052BF9D003781844F3E700BF7B
:10C36000901940202DE9F0410E4B0546984768B1E1
:10C370000D4B0E4F1C680E4E2046B847044640B188
:10C380008288C1788078B0470028F5D10020BDE8C8
:10C39000F081084B1B685B6853F82530BDE8F0411D
:10C3A0001B681847DDC240009419402039C3400083
:10C3B00065E84000901940202DE9F0410021124C21
:10C3C0000546A04718B900252846BDE8F0810F4B67
:10C3D0001B685B6853F82560F36898470146284658
:10C3E000A04705460028EED0094BDFF82C801C68DA
:10C3F000084F2046C047044610B18078B847F8E798
:10C4000073689847E0E700BFDDC240009019402004
:10C4100094194020C9E5400039C34000014B186819
:10C42000704700BF94194020004B1847E5E34000D7
:10C43000F8B50A4C22784AB10025094E094F3368F5
:10C44000E8B201351B681B79834205D8002301221D
:10C450002370054B1A80F8BDB847F0E78C194020CF
:10C4600090194020B9C340008219402010B5034BF9
:10C470009847034BBDE81040184700BF11E5400046
:10C4800031C4400038B50A4B1B783BB10024094D3C
:10C490002A6813681979E3B2994200D838BD526806
:10C4A00052F823301B6903B198470134F0E700BF0D
:10C4B0008C194020901940202DE9F843944C00231A
:10C4C000A3812361636123785AB2002A05DAE188E7
:10C4D00019B900252846BDE8F88313F0600140F043
:10C4E0008C80002A80F29381E588002D00F0858001
:10C4F00013F01F0340F04D816378062B0CD0082BFE
:10C5000000F03F81002B78D1022D7CD12946814853
:10C51000814B01259847DDE76388DEB21B0A013BAA
:10C520000E2B6AD8DFE803F0081B626969383E69A0
:10C530006969696969695B00784B9847764B784A05
:10C5400048B9906801789847E388A2899A4200F236
:10C5500015810125BEE7106801789847F4E76F4B15
:10C5600098476F4B68B19A68527CB24245D91B69B3
:10C5700053F83600684B41889847A36802225A70E6
:10C58000E2E71A68527CB24237D95B6853F836004A
:10C59000614B41889847F0E7614BD8685E4B017862
:10C5A0009847D1E75D4B98475D4B68B99A68527CD4
:10C5B000B24222D91B6953F83600574B418898473D
:10C5C000A36807225A70BFE71A68527CB24214D996
:10C5D0005B6853F83600504B41889847F0E7504B62
:10C5E000586980B141884C4B9847ADE7022E79D00D
:10C5F00033D8002E3ED0012E41D0237803F01F0304
:10C60000012B00F00F82237803F01F03022B0FD1C0
:10C61000444B1B7863B10027DFF85881DFF858914D
:10C62000D8F80030FEB21A681279B24200F21F82C6
:10C630002378C02B40F02D826378EE2B7FF449AF36
:10C64000A388042B7FF445AF37480388E1889942DB
:10C6500028BF1946304B98477BE7032E4DD0EE2E6E
:10C66000CBD1324B314819782B4B8D4238BFE9B2D0
:10C67000984769E704212E48274B984764E72D4BDC
:10C680009847002800F022822B4E21252B482C4B66
:10C69000984730B1294F2B4B38789847002840F005
:10C6A000058229496A1E731E0F4656FA82F613F850
:10C6B000012F9E4221F8022FF9D12846234B244D09
:10C6C0009847154B014638701F4898472B78002B28
:10C6D0007FF43AAF1F4B204A797838789847012386
:10C6E0002B7031E71D4B9847002800F0F28113486A
:10C6F0000C251B4B98471B4ECBE71B4B984700283C
:10C7000000F0EA810D480C25184B9847184EC0E7F9
:10C710009CE3412082194020BDE5400071E54000C6
:10C72000580740208C1940208806402044074020AC
:10C7300048094020939242004C09402004084020C0
:10C740006DA14200EDA142000409402017A2420061
:10C750008119402049A342000609402097924200D7
:10C7600091A142006E0940209B924200B5A1420077
:10C770006C51430090194020DDC24000A381012587
:10C78000A8E6012D7FF43FAF29469048904B98478B
:10C79000A0E6012B26D163780A2B7FF42EAF012D62
:10C7A00040F04081894B1B78002B00F03B81894B86
:10C7B00026791F683B681B79B34240F233813046CB
:10C7C000854B9847054600283FF417AF7B6853F820
:10C7D0002630DB689847814B0121187018467C4B46
:10C7E000984777E6022B7FF408AF6378002B7FF43D
:10C7F00004AF022D7FF407AF794B20799847794B2E
:10C800002946012518801846714B984762E613F0B7
:10C810001F0340F09A806378013B082B3FF6EDAE92
:10C8200001A252F823F000BF5DC84000FBC54000E4
:10C8300079C84000FBC540004DC84000FBC5400022
:10C84000FBC54000FBC54000CDC84000E388002B7D
:10C850007FF4D9AE644B012523613BE6E388002BCE
:10C860007FF4D1AE6588012D7FF4CDAE5F4A138889
:10C8700023F0020313802DE6E388002B7FF4C3AE80
:10C880006388022B7FF4B9AE594B984705460028C0
:10C890003FF4B3AE2379002B7FF4AFAE554B9847EE
:10C8A000A3881B0A013B032B3FF6A7AEDFE803F08A
:10C8B0000205080B504B23610CE6504B236109E63F
:10C8C0004F4B236106E64F4B236103E6E388002BC1
:10C8D0007FF499AE4C4B984700283FF48EAE444D00
:10C8E000A8474A4FA27830B3BB685B7C9A423FF7B7
:10C8F00084AE404B9847354EA3783370002B3FF4FD
:10C9000028AEA84733786FF06042324D1344B8B177
:10C910003A6902EBC3032B6000263D4F2B68F0B24F
:10C920001B681B7983427FF614AE00210136B8479D
:10C930000028F3D161E63B685B7C9A42D9DD5CE676
:10C940007A6802EBC3032B60E6E7012B1AD1637808
:10C950000B2B7FF452AEE388002B63D11B4B1B786B
:10C96000002B5FD025792B4B2846668898470028F6
:10C970003FF443AEF1B22846254B984700287FF498
:10C98000E8AD3AE6022B7FF438AE6378012B11D084
:10C99000032B7FF432AEE388002B7FF434AE638840
:10C9A000002B7FF430AE20791B4B984720791B4B2E
:10C9B0009847E3E7E388002B7FF425AE6388002BDC
:10C9C0007FF421AE2079164B9847D7E78C19402089
:10C9D000BDE5400090194020DDC24000881940208C
:10C9E0001DE6400084194020C9C240008219402041
:10C9F00071E5400031C44000D5EA4000F1EA400052
:10CA00000DEB400021EB4000ADE540005807402011
:10CA100065C34000B9C3400051EA400031E6400020
:10CA2000E9E640002E4B1B78002B3FF4ECAD2D4B7C
:10CA300025791E6833681B79AB427FF6E4AD00218F
:10CA40002846294FB84700283FF4DDAD736853F8F6
:10CA50002560F368984701462846B84700283FF408
:10CA6000D2ADB368984700287FF473ADCBE55B681F
:10CA700053F82650EB68984701463046C8470028CF
:10CA80003FF4D6ADAB680137984700283FF4C8ADF6
:10CA90005FE5C12B7FF41DAD6378EE2B7FF419ADFC
:10CAA000A388052B7FF415AD1048CEE5104D2B78EB
:10CAB0003BB93A460F4B797812F8020B984701239D
:10CAC0002B7039780C480D4B98473DE50C4E2125CD
:10CAD000E7E50C4E0C25E4E50B4E0C25E1E500BF27
:10CAE0008C19402090194020DDC24000B006402043
:10CAF0008119402049A3420004084020BDE54000C0
:10CB00004C0940206E0940206C514300094B1968C4
:10CB100051B9EFF31080084A50B972B6BFF35F8F76
:10CB200006490870012111701A6801321A607047B5
:10CB30001170F9E7981940209C1940207B0940208A
:10CB4000074B1A68013A1A601B6843B9054B1B78FA
:10CB50002BB10122044B1A70BFF35F8F62B670478E
:10CB6000981940209C1940207B0940202DE9F04174
:10CB70000E46144688B915460A4FDFF82C80611B13
:10CB8000002D314403DC24EAE470BDE8F08138680C
:10CB9000013DD8F800309847F1E74FF0FF30BDE88D
:10CBA000F08100BF18E3412010E341200138022842
:10CBB0002DE9F0410E4612D88D180C460A4FDFF8C9
:10CBC0002C80AC42A4EB060001D1BDE8F0813868AE
:10CBD00014F8011BD8F8003098470028F1DA4FF01C
:10CBE000FF30BDE8F08100BF18E3412014E341208D
:10CBF00000F01F024009012300F5001093400A07CE
:10CC000000F207704FEA40201ED54366CA061DD5C4
:10CC1000C0F894308A061CD5036511F0C00F1AD0F5
:10CC200003620A0619D5C0F88430026F11F0010FB3
:10CC300014BF1A439A4389070267426F4CBF1343DC
:10CC400022EA0303436770470366DFE7C0F89030CA
:10CC5000E0E74365E1E74362E3E7C0F88030E4E7FB
:10CC6000F0B587B000211022C34B02A8019198476C
:10CC70004FF40040C14B5860BFF35F8FC04DA847D1
:10CC800040F04871BF4C41F00101BF48A0476FF030
:10CC90007040A84740F04071BC4841F00101A047F6
:10CCA000BB4A0520536A43F4E0235362B94B9847CB
:10CCB000BFF34F8FBFF36F8FB74B01A898479DF815
:10CCC0000730062B03D006238DF8073000460123DA
:10CCD0008DF804308DF8053000238DF8063001986A
:10CCE000AE4B984700B10046BFF34F8FBFF36F8F35
:10CCF000A74B0022C3F850225A6942F400325A610D
:10CD0000BFF34F8FBFF36F8FD3F8801001F007028E
:10CD1000C1F34E34C1F3C9010432B1FA81F000F01D
:10CD20001F00BFF34F8F4FF0FF3505FA02FE85401D
:10CD300004FA02F201FA00F00E460746013E42EA0A
:10CD4000070C2F44B6F1FF3FC3F860C2F6D1013C97
:10CD50007244661CF0D1BFF34F8F5A6942F480329F
:10CD60005A61BFF34F8FBFF36F8F8D4B02A8984767
:10CD7000002840F04A819DF80F302BB1894B98472D
:10CD800000B10046884B9847BFF34F8FBFF36F8FBA
:10CD90007F4BD3F8902222F00102C3F89022D3F8FF
:10CDA000942222F00102C3F89422BFF34F8FBFF305
:10CDB0006F8F7E4C0A20A0470B20A0470C20A04775
:10CDC0001020A0471120A047794A7A4D0021D2F8BF
:10CDD00014312420102643F01003C2F81431A84760
:10CDE000754B07201E60A0471E20A0470920A047C2
:10CDF000724C4FF4007300210A202361C4F8A03064
:10CE00006363A8474FF48063012174206360A847DF
:10CE10004FF4801301217520C4F80436A8474FF45D
:10CE2000001301217620C4F80436A8474FF480038C
:10CE30004FF000615220C4F80436614CA0474FF017
:10CE400000615320A0474FF000615420A0474FF0ED
:10CE500000615520A0474FF000615620A0474FF0D9
:10CE600000615720A0474FF000615820A0474FF0C5
:10CE700000615920A0474FF000615A20A0474FF0B1
:10CE800000615B20A0474FF000615C20A0474FF09D
:10CE900000615D20A0474FF000615E20A0474FF089
:10CEA00000615F20A0474FF0C0511220A0474FF013
:10CEB000C0511320A0474FF0C0511420A0474FF09D
:10CEC000C0510020A0474FF0C0510120A0474FF0B3
:10CED000C0511720A0474FF0C0511820A0474FF075
:10CEE00000615020A0474FF000615120A0474FF053
:10CEF000C0511920A0474FF000614020A0474FF0DB
:10CF000000614120A0474FF000614220A0474FF050
:10CF100000614320A0474FF000614420A0474FF03C
:10CF200000614520A0474FF000614620A0474FF028
:10CF300000614720A0474FF000618020A0474FF0DC
:10CF400000618120A0474FF000618220A0474FF090
:10CF500000618320A0474FF000618420A0474FF07C
:10CF600000618520A0474FF000610F20A0474FF0DF
:10CF70000061304626E000BF65E1420050180E40D7
:10CF800041D2400035D240001B8045201700006090
:10CF900000ED00E029D2400085BC4200B9C042004B
:10CFA000BDBF420071C04200A126420089D74000A7
:10CFB00000800840F1CB400000100E40000E0E40F3
:10CFC00079D34000A0474FF000614B20A0474FF0BD
:10CFD000C0516F20A0474FF000614820A0474FF09C
:10CFE00000614C20A0474FF0C0511620A0474FF0E1
:10CFF00000614F20A0474FF000614E20A0474FF046
:10D0000000614D20A04707B0F0BD0046BCE600BF60
:10D01000F7B5174D0024026B0126C36A1340421B6B
:10D02000144D50420193504105EB80152F460B2CB7
:10D0300009D8019B06FA04F21A420DD055F82430A3
:10D0400053B1984708E00F2C0BD004F10C03019A60
:10D0500006FA03F31342F1D10134102CE7D103B0E7
:10D06000F0BD019B5B00F7D5FB6B002BE9D1F3E72B
:10D07000004006401CE3412030B501231578046EC2
:10D080008B40002D24EA030408BF002323430366DA
:10D090004B000321446D994024EA010451789940E2
:10D0A0002143416530BD00000022094B80E80C009F
:10D0B000084BC27483604FF48023C360022303745F
:10D0C000012343748374037543758375704700BFF0
:10D0D00000A3E111808D5B000023037001234370E6
:10D0E0007047000010B5026B12F080724FD101231F
:10D0F0000360CB7C8C68002B4B68B3FBF4F303F12B
:10D10000FF33CC6818BF4FF000421B0244F4000408
:10D110009BB223430C7C240604F0706423434C7CB4
:10D12000240704F040542343134343600B7D0A68F3
:10D13000002B14BF4FF08073002313434A7D002A55
:10D1400014BF4FF000720022134383608B7D1B02DB
:10D1500003F4407343F00C03C0F894300D4B984235
:10D1600009D100230C4A194642F823100133102B31
:10D17000FAD1002010BD094B9842FAD1002306488D
:10D1800019461A180433402B1164FAD1F1E719201B
:10D1900010BD00BF00C003401CE34120004006401A
:10D1A0000148024B184700BF00C0034011D04000A7
:10D1B0000148024B184700BF0040064011D0400014
:10D1C000034B98420CBF28201D20024B184700BF7C
:10D1D0000040064089D740000B4B01224FF0006110
:10D1E00002201A6059601A611861996821F00101E2
:10D1F0009960996821F0020199601A61052218610D
:10D20000C3F894209B6970470000044019B10129BC
:10D2100004D000467047034BD8617047014B186239
:10D22000704700BF00000440014B5860704700BFCA
:10D2300090ED00E0014BD8601961704790ED00E07F
:10D2400004232022904203D9013352001F2BF9D12D
:10D2500058007047B1F1C05F426410B52FD007D8B5
:10D26000B1F1006F14D0B1F1805F1ED039B910BD9B
:10D27000B1F1205F0BD004D8B1F1005F29D042603A
:10D2800005E0B1F1405F02D0B1F1605FF7D110BDB0
:10D29000016FD343046F21401C4619400167436F5F
:10D2A000416F0B4023404367E9E7036F1343036774
:10D2B000436F416F0B4023EA02034367DFE7036FCD
:10D2C000016F0B4023EA02030367436F1343436775
:10D2D000D5E7036F13430367436F13434367CEE7F9
:10D2E000D30741640BD5416612F00A0F09D00162E1
:10D2F000930708D5C0F8801041610160704701664E
:10D30000F2E74162F4E71307F6D5C0F88410F3E7BB
:10D3100010B5029C41643CB141663BB101653AB134
:10D3200001630161016010BD0166F6E74165F6E742
:10D330004163F6E70164704741647047C06C704711
:10D34000806C7047D30610D59306C0F8B01006D590
:10D35000C0F8D410530605D5C0F8C0107047C0F807
:10D36000D010F7E7C0F8C4107047C0F8B410704789
:10D37000004B184745D34000F7B545090E4601F06C
:10D38000F04105F50015B1F1005F05F207754FEAB0
:10D39000452509D017D8B1F1805F05D0B1F1C05F44
:10D3A00002D0B1F1006F17D100F01F040127284609
:10D3B0001A4B07FA04F422469847F6070ED56C6616
:10D3C000384603B0F0BDB1F1405F13D0B1F1605FFA
:10D3D00010D0B1F1205F03D00027F1E72C66EFE712
:10D3E00000F01F0101273246284607FA01F10C4BD5
:10D3F0009847E5E706F06052012700F01F0102F1AF
:10D40000484006EA070307FA01F142420093C6F3D7
:10D41000800342412846034DA847D1E755D240003A
:10D42000E1D2400011D340004309012200F01F0067
:10D4300003F5001302FA00F003F207735B021864AD
:10D440007047400900F5001000F207704002704775
:10D450005F2802D840090A307047802834BF102066
:10D4600011207047012300F01F0003FA00F07047FD
:10D47000F8B504460E4B0E46984705460D4B204620
:10D480009847054013D00C4C04F160072368B34261
:10D4900008D16168294205D0E3683046984763683F
:10D4A00025EA0305BC4202D01034002DEED1F8BDB0
:10D4B0003DD3400041D34000A01940202DE9F8435E
:10D4C000164E894611463468B446062C23D80026E9
:10D4D000134F5FFA86F8444510D20134089AAB60C6
:10D4E0004445EA60C5F800901A4669600D4B08BFD4
:10D4F000CCF8008098470020BDE8F8834FEA081E6A
:10D5000057F80E2007EB0E054A4502D16A688A4299
:10D51000E3D00136DDE70120BDE8F883101A402092
:10D52000A019402071D340002DE9F34104460B4B74
:10D530000F46904698470A4B0546204698470646B0
:10D54000084B20469847084C02463B463146CDF8EA
:10D5500000802846A04702B0BDE8F08143D44000D7
:10D5600051D4400065D44000BDD440000A21014898
:10D57000014B1847000E0E4071D440000B210148AA
:10D58000014B184700100E4071D440000C21014897
:10D59000014B184700120E4071D440001021014881
:10D5A000014B184700140E4071D44000112101486E
:10D5B000014B184700160E4071D440002DE9F04190
:10D5C00006461B4B0C46154698474FF0FF31194B4A
:10D5D000074630469847184B304698470121E0B23D
:10D5E000002C4FEA451200F01F0301FA03F14FEA45
:10D5F00054134FEA830303F1604303F56143C3F817
:10D600008010C3F880110BDA00F00F00D2B20B4C7F
:10D610002254196030463946094BBDE8F04118479D
:10D6200004F16044D2B204F5614484F80023F0E7C9
:10D6300041D3400039D340003DD3400014ED00E019
:10D6400035D340000238022896BF074B002133F83B
:10D650001010064B1A6B22F440720A431A639A6E3A
:10D660001207FCD5704700BF7A51430000060E40F8
:10D670000F4B1A6B22F0030242F001021A6341F2CF
:10D680000102996E09070BD51A6B22F07002104344
:10D6900041F201021863996E090705D50020704711
:10D6A000013AEED101207047013AF4D1FAE700BF08
:10D6B00000060E400F4B1A6B22F07002104341F22D
:10D6C00001021863996E08070CD51A6B22F0030249
:10D6D00042F002021A6341F20102996E090705D570
:10D6E00000207047013AEDD101207047013AF4D192
:10D6F000FAE700BF00060E400F4A136A28B10F492F
:10D7000019400F4B0B431362704723F45C1309025B
:10D7100023F0030389B243F45C1343F001030B438A
:10D720001362936EDB07FCD5136A43F09B7343F4DB
:10D7300080331362704700BF00060E40FCFFC8FE36
:10D7400002003701024B986E00F48030704700BF32
:10D7500000060E404FF00052014B9A62704700BF26
:10D7600000060E40024B986E00F00200704700BFAA
:10D7700000060E40034B4FF44412DA619A6E5206D3
:10D78000FCD5704700060E403F2819D81F280E4AC6
:10D790004FF0010308D8916903FA00F030EA010361
:10D7A00010D01061002070472038D2F8081103FA19
:10D7B00000F030EA010305D0C2F8000100207047F4
:10D7C000012070470020704700060E403F2819D8FE
:10D7D0001F280E4A4FF0010308D8916903FA00F0A0
:10D7E00030EA010310D15061002070472038D2F890
:10D7F000081103FA00F030EA010305D1C2F8040170
:10D8000000207047012070470020704700060E403E
:10D810004FF4807303FA00F0014B1860704700BFAB
:10D8200000060E400002034B00F4706040F001005F
:10D830009863704700060E402022014B1A60704723
:10D8400000060E402022014B5A60704700060E4031
:10D85000034BC0F312001A6F10431867704700BFE4
:10D8600000060E40024B187880F00100704700BFA0
:10D87000141A40200222034630B502601A69D5010D
:10D88000FCD480221A600A78012A5A6808BF42F044
:10D8900001025A604A78002A6CD05A6842F00202AB
:10D8A0005A608A78002A6AD05A6842F004025A60A4
:10D8B000CA785868120120F0300002F030020243AA
:10D8C0005A605A68486822F4706202435A605A6883
:10D8D000886822F07F4242EA00625A60CA6858684B
:10D8E000120420F47F0002F47F0202435A600A69A6
:10D8F000002A49D01A6A42F001021A624A69002AD3
:10D9000047D01A6A42F002021A628869294AB2FBB9
:10D91000F0F2013AFF2A41D8186A20F47F4040EA29
:10D92000022200201A62CA691C6A120424F47F04CD
:10D9300002F47F0222431A621A6C91F8205022F0FE
:10D94000030291F821401A641A6C55B342F00102A7
:10D950001A641A6C4CB342F002021A64D3F8E42041
:10D96000D40701D44A6A5A6401221A601A69D201A2
:10D97000FCD530BD5A6822F002025A6091E75A681D
:10D9800022F004025A6093E71A6A22F001021A6236
:10D99000B4E71A6A22F002021A62B6E76FF00700D3
:10D9A000C1E722F001021A64D3E722F002021A64EE
:10D9B000D4E700BF80D1F008012200230270C270BA
:10D9C000074A4370837043608360C36003614361AF
:10D9D0008261C36180F8203080F821304362704753
:10D9E00080F0FA02064B984202D11520054B1847E9
:10D9F000054B984202D12A20024B1847704700BFBE
:10DA00000080004089D74000008005404368090439
:10DA100023F4702301F4702143604368194341608B
:10DA2000704789000844036B1AB143F00103036394
:10DA3000704723F001030363704789000844036BB8
:10DA40001AB143F002030363704723F00203036338
:10DA5000704700EB81010B6B23F0F0030B630B6B42
:10DA60001A430A6370475AB100EB810100200B6B27
:10DA700023F47F430B630B6B43EA02220A63704774
:10DA80004FF0FF30704710B589010224431844500D
:10DA90004FF0FF319962196A5A6010BDC0F8C41086
:10DAA0007047890105234350704700EB81114A619B
:10DAB000704700EB8111CA61704700EB81114A6227
:10DAC000704700EB8111086A7047AC2310B5036002
:10DAD0004A680B68B3FBF2F31B094FF6FE725C1E3B
:10DAE000944206D803628B68436050230360002091
:10DAF00010BD012010BD43699B0702D5C161002004
:10DB00007047012070474369DB0703D58369002014
:10DB10000B7070470120704743699B0704D5C1F320
:10DB20000801C16100207047012070474369DB078D
:10DB300005D583690020C3F308030B6070470120FB
:10DB40007047000082B0EFF31083B3FA83F35B09F0
:10DB5000019372B6BFF35F8F0022024B1A700198D7
:10DB600002B070477B0940200522034B1A704FF426
:10DB70000022024B1A6070471C1A4020F0810340BB
:10DB8000024B1B6903B11847704700BF9CE341205B
:10DB900028B10122024B1A70BFF35F8F62B6704743
:10DBA0007B09402008B5094B98470122084B1A60B1
:10DBB000084B98470222084B1A600023074A13615A
:10DBC00053619381064A137008BD00BF45DB4000D6
:10DBD0002082034091DB4000608103409CE34120B0
:10DBE0001C1A40200322084B10B51A70074B9847A7
:10DBF0000122074B07490A601A6008220A601A606E
:10DC0000054BBDE8104018471C1A402045DB40007A
:10DC1000F08103406081034091DB40002DE9F04733
:10DC200035498847354B0122354F364E1A60B0478B
:10DC30003B788946032B05D1334B9847334BBDE8DE
:10DC4000F0471847324A334D13889046AC89E41A9E
:10DC5000A4B2ECB9304A11880B449BB21380EA8815
:10DC60009A4202D02D4B1B785BB104233B70C8470E
:10DC700010232B4A1360903213603346BDE8F047FF
:10DC800018476B694BB3984738B3A8F80040AC8984
:10DC90003F2C22D90022214B40241A70B8F800A052
:10DCA000A9685144C8471F4B02461B689B0718D4FC
:10DCB0001D4BD8B2A04219D35444A8F80040BFF37A
:10DCC0004F8FBFF36F8F0123154910460B609031C2
:10DCD0000B603346BDE8F047184701220F4B1A701E
:10DCE000DCE7B04704233B70BDE8F08711F8010B77
:10DCF000013303F8010CDCE745DB400020820340E0
:10DD00001C1A402091DB400081DB4000A5DB400075
:10DD1000181A40209CE341201A1A4020151A40206E
:10DD20006081034030810340000010A030B4037DC7
:10DD30000D46D90711D56FF300030468037564B16C
:10DD400013B2074951F8233081682846DB05234682
:10DD500048BF42F0800230BC184730BC704700BF5B
:10DD6000008103402DE9F14F182300F1FF38484F9F
:10DD7000814603FB08731A7DD6077BD5DA6801B2AA
:10DD80009C68DFF830A1A24255D0A41A5AF821307D
:10DD9000B4F5803F92BF26044FF480340026DD05A1
:10DDA00035D55AF821000823C0F302108340013B07
:10DDB000234208D0182346F0080603FB0873187D99
:10DDC0006FF3410018751825324B05FB087503EBFE
:10DDD000011B6B681344CBF804302F4B9847DBF8DA
:10DDE0000C3013F0100F2D4B22D146F021062C4998
:10DDF000CBF80860EA682C612244EA604FF00072B8
:10DE000002FA08F28A6101B0BDE8F04F18475AF8EB
:10DE10002130C3F3C123012B07D15AF82100082375
:10DE2000C0F3021083409C42CDD846F01406CAE7E6
:10DE30009847EB68AB605AF82130DC051DD51823F4
:10DE400003FB08731B7D980717D5164A012342F878
:10DE50002130303A52F82120D20302D5124A42F83A
:10DE60002130124A42F821304FF480520C4B02FA12
:10DE700009F29A6101B0BDE8F08F18204A460021EE
:10DE80000B4B00FB087001B0BDE8F04F184700BF16
:10DE9000201A40200083034045DB400091DB400016
:10DEA000008003406081034090810340F081034083
:10DEB0002DDD4000008103408D4B2DE9F047984750
:10DEC0008C4B50B95A6812F0010206D172B6BFF3FA
:10DED0005F8F894B1A70BDE8F0875A6856070CD5DA
:10DEE00004229A60D3F8043813F4405F01D1834BC5
:10DEF0009847834BBDE8F04718475A68950705D502
:10DF000002229A607D4BBDE8F04718475B68DC044D
:10DF100040F1E6817B4B10221A600822F03BC3F8E7
:10DF2000F0201A681C4612F0040F4FD0764D2B7863
:10DF30001BB1764B9847764B98472368C3F30A5337
:10DF4000082B06D0734B98470422734B1A60BDE828
:10DF5000F087724B724E734C73495A1C18788A4280
:10DF600002EB0603E0541346F7D1704B04269847A2
:10DF7000694920B9674B98470E60BDE8F0870E608D
:10DF800094F90030002B0ADA0023694A1380694AA9
:10DF9000138002232B70684BBDE8F0471847E388D5
:10DFA0001BB9664BBDE8F04718470023604A1024B0
:10DFB0001380604A138001232B700C60604B9847DC
:10DFC000604B1C60604BBDE8F04718471B68D807E2
:10DFD00007D55E4B1B68D90703D5574BBDE8F04703
:10DFE000184723689A075DD5474B1B78012B0CD047
:10DFF000022B01D0042B05D1444B9847444BBDE87C
:10E00000F0471847434B9847F8E72168494DC1F35B
:10E010000A51444A2B8890895C18A0429468B8BF82
:10E02000C11A1C443D48B8BF89B2C6B28E4216D34D
:10E030000B444029384C9BB22B8005D13C4ED088F4
:10E0400031881944884212DC9381536963B198473F
:10E0500050B9304B984702232360BDE8F08706781B
:10E06000013004F8016BE0E70223236099E791890E
:10E0700099420BD15369002BEBD098470028E8D088
:10E0800033882A881344338000232B8010210223F5
:10E09000236021602A4B98472A4B19602A4BBDE820
:10E0A000F047184723681B070FD51B4B08221A603F
:10E0B0002368DF071AD4144B1B78032B16D14FF4B7
:10E0C0000022204B1A60BDE8F0872368DE0640F18D
:10E0D0000781114B10221A6023689D0706D40A4B52
:10E0E0001B78012B3FF45DAF042BE8D0BDE8F0872F
:10E0F00065D84000008003407B09402085C4400073
:10E1000061934200208203401C1A402081DB4000C2
:10E11000A5DB400069DB400060810340000010A0E7
:10E12000FFFFEF5F9CE34120080010A0B9C440004E
:10E130001A1A4020181A40201DDC4000E5DB400080
:10E1400045DB4000F081034091DB4000C08103408B
:10E15000DEF8101007FA04F0014242D0D5F8909092
:10E16000A10005F1900819F0010F15D0D5F8009025
:10E1700019F0010F10D070480124704D0C504C5113
:10E180004FF480440C5018246D48002104FB030018
:10E190006C4BBDE8F0471847D8F80020D20420D5D2
:10E1A0002A68C2F30132E2B9634C4FF480550D5135
:10E1B000A4F5087460611824614804FB0303187D0A
:10E1C00062F38200604A18758B5823F400738B50F9
:10E1D0004FF400225D4BCA504FF48022CA50BDE874
:10E1E000F08701340435052C40F08280584B5A6882
:10E1F00012F0080237D008220024514F4FF01808BF
:10E20000504E9A60651C08FB04700121EAB22C464E
:10E21000B047042DF6D14F4B98474D494A4A0B68F9
:10E2200023F07F030B600B6843F080030B601368DF
:10E2300023F4CB5323F01C0343F030031360136823
:10E2400043F002031360CB6943F00103CB61424BFF
:10E2500098473E4B02221D601A604FF480538B6139
:10E260003E4B9847CAE61969CF0718D55968CE07BB
:10E2700015D5D3F8001821F48041C3F80018012106
:10E28000596110219961D3F8001841F48041C3F815
:10E290000018334B1A70334BBDE8F04718472C4B2E
:10E2A0001A69D5067FF522AF5A68D4067FF51EAFEE
:10E2B000D3F8002822F48042C3F800281A46D3F885
:10E2C0000418490402D45968C807F8D510235361CB
:10E2D00001239361224A1370234BBDE8F04718478E
:10E2E0001B4E0124214D4FF0007CB6464FF4805761
:10E2F000631E3169E2B20CFA03F001423FF428AF29
:10E30000716808423FF424AF194901EB0211CC684F
:10E31000E4073FF5EBAE7061CC68240C07D0182100
:10E32000074801FB0303D968091BD96099601046AF
:10E33000104BBDE8F047184720820340608103403E
:10E34000201A40202DDD400000810340F081034071
:10E350000080034031C4400045DB400091DB4000B9
:10E36000161A4020499342005593420034810340DD
:10E370000083034065DD4000164B70B598470122CD
:10E38000154B1A70154BD3F8002822F48042C3F8BD
:10E390000028D3F804285204FBD51A68082604255F
:10E3A000022422F4807201211A6010229E61996178
:10E3B0009A619D619C619E609D609C60D9609A603D
:10E3C000D3F8002842F48042C3F80028044BBDE88B
:10E3D0007040184745DB4000161A4020008003407B
:10E3E00091DB400010B5324B9847324B0446222057
:10E3F0009847314B9847314BA0224FF4802083F847
:10E40000222304225A602E4B98472E4B4FF0007265
:10E41000C3F80028D3F8002842F40042C3F80028CB
:10E420001A6822F480521A601A6822F440621A6054
:10E43000D3F8002822F48042C3F80028D3F8042837
:10E440005204FBD5204A117D01F0FE016FF38201D9
:10E45000117592F82C1001F0FE016FF3820182F821
:10E460002C1092F8441001F0FE016FF3820182F843
:10E47000441092F85C1001F0FE016FF3820182F803
:10E480005C10D3F80028114942F48042C3F80028F8
:10E490000A780F4B4AB901201A7008700D4B984743
:10E4A00020460D4BBDE81040184700221A70F5E7D2
:10E4B00045DB400089D74000ADC1400000E100E0ED
:10E4C00051D8400000800340201A4020171A4020F5
:10E4D000161A402079E3400091DB40000A4BD3F844
:10E4E000002822F48042C3F800281A6842F480729F
:10E4F0001A60D3F8002842F48042C3F800280022B2
:10E50000024B1A70704700BF00800340161A40206B
:10E5100010B5104B984710490446D1F8003823F441
:10E520008043C1F800380D4B98470D4B1A780AB15B
:10E5300000221A70D1F8003823F40043C1F80038E3
:10E54000084B9847084B222098472046074BBDE8C8
:10E550001040184745DB400000800340DDE44000E8
:10E56000171A4020CDC14000CDD7400091DB4000BC
:10E57000034BD3F8040810F4405018BF0120704733
:10E5800000800340084B00F07F001A6822F08002F0
:10E590001A601A6822F07F0202431A601A6842F079
:10E5A00080021A60704700BF00800340024B186869
:10E5B00000F07F00704700BF00800340014B98606F
:10E5C000998170479CE3412000F00F02042A10B5A6
:10E5D0001DD80F480121C36901FA02F400F58070CB
:10E5E00023EA040314B240F8E43C50F8243023F04A
:10E5F000020340F82430541E1820064B00FB04345C
:10E60000054B20469847237D6FF38203237510BD89
:10E6100000800340201A40202DDD4000034B00F015
:10E620000F0053F82000C0F3C0407047C081034082
:10E63000F8B500F00F050646042D3FD82CB2214B4B
:10E6400053F824301A033BD41822691E1E4B02FBD8
:10E6500001310A7D12F0040032D1D30731D41B4BB3
:10E66000984716F0800F8646194F1A4E13D01A4B52
:10E6700053F8243013F4405F0DD00A7D4FF48053DB
:10E6800042F004020A7547F82430AB40134A936104
:10E69000B0470120F8BD124A704652F8243023F4E6
:10E6A000007342F8243040220E4B43F824204FF4EC
:10E6B000002347F82430B0470120F8BD0020F8BD02
:10E6C0000120F8BDC0810340201A402045DB4000F6
:10E6D000F081034091DB4000308103400080034023
:10E6E000008103406081034000F00F00042838B52A
:10E6F00049D81822451E254C03B202FB05410A7D6C
:10E7000012F004020FD001F11002097D6FF38201B3
:10E7100011714FF480511E4A42F82310A2F508727D
:10E720008140516101221B4951F82310090326D56C
:10E73000194A52F82320520608D54021174A42F8B8
:10E7400023104FF48021903242F823104FF400211F
:10E750000F4A42F82310A2F5907252F8231041F4A8
:10E76000007142F8231018226A43A318197DC807C4
:10E7700007D56FF300011975A358984701E0002AE7
:10E78000F1D1012038BD002038BD00BF201A402043
:10E7900020820340C08103403081034060810340F8
:10E7A0002DE9F74F00F00F0716461D46042F4BD8F2
:10E7B000264B0120DB69B84018401ED03BB2244AEA
:10E7C00052F8230010F400203ED17C1E4FF01809AF
:10E7D000204B09FB04F9984603EB090B9BF814A0A6
:10E7E0001AF0040A09D11C4B98479BF814301B4AB5
:10E7F00013F0010304D09047504603B0BDE8F08FFA
:10E800009BF814E001934EF0010E8BF814E0904752
:10E81000019BCBF80460CBF80C30CBF810300C9B8C
:10E82000CBF8085048F8093011B9B5FA85F1490913
:10E830001823384603FB0484237D61F341032375C9
:10E84000074B98470120D8E70020D6E70080034017
:10E85000C0810340201A402045DB400091DB40008E
:10E8600065DD40002DE9F74F00F00F05042D01D9BB
:10E87000002063E0704B4FF0010CDB690CFA05F4EB
:10E880002340F5D101F00304022C5AD0032C60D0B0
:10E890006445EDD1A44610F0800F2CB2674FA2F56D
:10E8A00080604FEAC12118BF4FF4807357F824E00D
:10E8B00080B207EB840601F4C0512EF4CB5EB0F5B4
:10E8C0007C4F2EF01C0E46D3082A47D95200013A3D
:10E8D00041EA8C00B2FA82F20121DFF86CC10343F5
:10E8E000C2F11C02544843EA021222F4D06222F020
:10E8F0000302D204D20C42EA0E0247F8242001FAA5
:10E9000005F70422BFB2D3B29D4229D34C4B04EB8E
:10E9100044044FF01809DFF820A103EBC404984623
:10E92000DFF828B147FA05F3E8B2DA0730D4013549
:10E9300004361834EBB2052BF4D1012003B0BDE846
:10E94000F08F404E765D022EA5D0032EA2D0012E70
:10E9500070D19C469FE740F2FF72B9E70F22B7E7FC
:10E96000C36901FA02FE13EA0E0F0FD0C3694EEA23
:10E97000070723EA0E03BFB2C36102EB0C039B003F
:10E98000D3F800E02EF0020EC3F800E0013ABAE737
:10E99000691E09FB0182137D03F0010E6FF3000372
:10E9A0001375336843F0020333600123DAF81CC0A7
:10E9B000AB4043EA0C03CAF81C30336B5B0312D440
:10E9C0001468002C3FF454AF3368DA054FF0180395
:10E9D00048BF40F0800003FB01880246D8F80C10C5
:10E9E0000120A04744E7336843F400733360BEF16D
:10E9F000000F9CD054F80C3C09FB018154F8082C02
:10EA00009A1A44F80C2C336891F814E054F8181C46
:10EA1000DB0554F8103C009148BF40F0800054F8EA
:10EA2000141C9B1A0A44CEF34001D84700287FF4F7
:10EA30007EAF1DE7184681E7008003400081034058
:10EA4000201A4020B551430040E00010A1E74000EB
:10EA500000F00F024FF00073174970B4561E174CA8
:10EA60000025B340636113B201EB03118D604FF4D5
:10EA7000805191406161BFF34F8FBFF36F8F0106EB
:10EA800007D40F4B1820012100FB06300D4B70BC42
:10EA900018479B000C490D4C4FF400500C4D194485
:10EAA0001C441D440B6813F4405FEAD020602B68BF
:10EAB0009B04FCD4F6E700BF0083034000800340C2
:10EAC000201A40202DDD400030810340F0810340BA
:10EAD000C0810340054A136823F4406343F4006394
:10EAE0001360136843F400531360704700800340C1
:10EAF000054A136823F4406343F40063136013680A
:10EB000043F480431360704700800340034A136856
:10EB100023F4406343F400631360704700800340B4
:10EB200070B5224B8EB003F130066A466C46186809
:10EB3000083353F8041C1546B34203C52A46F6D1E0
:10EB40001B4A18681B7928602B71D369194923F077
:10EB50000103194DD3610B6823F4CB5323F01C033D
:10EB600043F4895343F010030B600B6843F0020336
:10EB70000B60D369114943F00103D361136823F497
:10EB8000406343F400631360136843F4004313606D
:10EB90000B4B5A1C50198A42205C18701346F8D14E
:10EBA0004FF48042074B1A600EB070BD8051430095
:10EBB0000080034000810340FFFFEF5F350010A09D
:10EBC000000010A02082034007B5284B284A9A4233
:10EBD00033D1284B0021284A934237D3274A284B68
:10EBE0009A4236D1274B0021274A93423AD3274BEA
:10EBF000274A23F07F039360EFF31083B3FA83F384
:10EC00005B09019372B6BFF35F8F224A002322494A
:10EC1000137001980B6843F470030B60BFF34F8FC0
:10EC2000BFF36F8F20B101231370BFF35F8F62B604
:10EC30001A4B98471A4B9847FEE7043A19498B42FA
:10EC4000C7D252F8040F43F8040BF8E743F8041B4B
:10EC5000C2E7043A14498B42C4D252F8040F43F875
:10EC6000040BF8E743F8041BBFE700BF00F445209E
:10EC7000808F43000080452000F445201C7643002F
:10EC8000000040206419402044DD422000C04000C4
:10EC900000ED00E07B09402088ED00E081DF4200CC
:10ECA00081A5420000F44520641940201FB5EFF310
:10ECB0000583009342F210700D4B5A6B01929A6BD0
:10ECC00002929B6A03930B4B9847039B9B0100D5D1
:10ECD00000460046084B9847009B0093019B019318
:10ECE000029B0293039B039305B05DF804FB00BFF6
:10ECF00000ED00E08D864100AD26420007B5EFF340
:10ED0000058342F210700193044B98470046044B70
:10ED10009847019B019303B05DF804FBDD86410039
:10ED2000AD2642002E4A2F4B10B5116B01F00301A6
:10ED3000012917D00CD3022927D0116B01F07001E3
:10ED4000702945D11A680321B2FBF1F21A6010BD97
:10ED5000254949690C064CBF4FF400414FF4FA4174
:10ED60001960EAE7116AC80102D520491960E4E791
:10ED70001F491960116A01F07001102902D0202981
:10ED8000F3D0DAE71B491960D7E7116AC90102D548
:10ED90001649196008E016491960116A01F07001FE
:10EDA000102912D02029F3D0116B01F003010229A0
:10EDB000C3D1946A1968906AC4F30A44C0B204FBD0
:10EDC0000111B1FBF0F11960B7E70A491960EBE7EF
:10EDD000116B1A68C1F30211CA401A6010BD00BF5E
:10EDE00000060E407C09402010180E40001BB700A2
:10EDF00000093D0000127A00134B9842134B03D8D0
:10EE00004FF080621A607047114A904202D8114A4E
:10EE10001A607047104A904202D8104A1A60704730
:10EE20000F4A904202D80F4A1A6070470E4A904229
:10EE300003D84FF004221A6070470C4A904294BFE6
:10EE40000B4A0C4A1A607047BFF35E01000C0E407B
:10EE50007FE7BD02000100043FDB1C040002000448
:10EE6000FFCE7B0500030004BFC2DA067FB6390877
:10EE70000005000400060004074B1A680AB9074A97
:10EE80001A601A68064910448142A6BF18601046ED
:10EE90004FF0FF30704700BF801A402048FF4220EB
:10EEA000FC7F45204FF0FF3070474FF400530020A7
:10EEB0004B6070470120704700207047004B184797
:10EEC00069F34000074B00F03F00012210B41C68BA
:10EED000002320702046044C1946A4465DF8044BDC
:10EEE000604700BFF40A4020F9F3400000F007003B
:10EEF000084B01F03801012240F0400010B40843F3
:10EF00001C68002320702046034C1946A4465DF877
:10EF1000044B6047F40A4020F9F34000084B00F02E
:10EF20000F00022260F03F0010B41C680023207024
:10EF3000204661701946034CA4465DF8044B6047B7
:10EF4000F40A4020F9F34000094B00F00F000322BF
:10EF500060F02F0010B41C680B0A2070204663700C
:10EF60000023A170034C1946A4465DF8044B60478A
:10EF7000F40A4020F9F3400038B5084B00F00F00C8
:10EF80001D6860F01F00064B1C680123287028468E
:10EF90001A462146034DA847207838BDF40A402080
:10EFA000F80A4020F9F3400038B5094B60F00F0033
:10EFB00001221D68074B1C68022328702846214641
:10EFC000054DA8472378607800EB032080B238BD58
:10EFD000F40A4020F80A4020F9F3400013B500235A
:10EFE00002AC012204F8010D19462046014CA0474D
:10EFF00002B010BDF9F34000074A034610B4106890
:10F000000222064C03701B0AA446437000235DF8DD
:10F01000044B1946604700BFF40A4020F9F3400052
:10F0200010B40023034C0A46A44619465DF8044B6D
:10F03000604700BFF9F3400070B506461D46062044
:10F04000094B1446984731460220084B9847084B15
:10F050002146084C18682023A446012203702B4641
:10F06000BDE87040604700BFEDEE40001DEF40007E
:10F07000F40A4020F9F3400010B5084B0C46014655
:10F0800002209847064B2146064C18682323A446C5
:10F0900003700123BDE810401A46604749EF400065
:10F0A000F40A4020F9F34000184B70B51C68802327
:10F0B00005462370164B9847042D22D006D8022D02
:10F0C0000DD0237843F0030323700CE0082D0AD001
:10F0D000102DF6D1237843F02003237003E023782A
:10F0E00043F002032370002301222046094C1946F5
:10F0F000A0470948094B98470120094BBDE87040DB
:10F100001847237843F001032370ECE7F40A40200A
:10F110000DF44000F9F34000086F0F00010040209B
:10F1200085F34000004B1847BDEE4000004B1847E8
:10F1300029F4400010B5034B9847034BBDE810403D
:10F14000184700BF9124410049F340000320014BC0
:10F15000184700BFA9EF4000004B18477525410034
:10F1600070B5184B9847064628B3174D174B98476C
:10F17000EB7804464BB1164B9847B0F5EA7F04D3C1
:10F18000EB781C4114F0FF0415D0012C13D0AB8890
:10F19000083B9BB2B3F5787F0AD20D4B9847AA88FB
:10F1A0004FF47A7360435343012C01D9984204D839
:10F1B0002046084B9847304670BDC4F347044008CA
:10F1C000F2E700BF69F34000B4E341209DF3400043
:10F1D0001DF44000A9F04000074B93F82C20092AA9
:10F1E00002F1010198BF9A6A83F82C109EBF111D8D
:10F1F00099621060704700BFE8E34120034B002292
:10F20000034883F82C209B62024B1847E8E3412017
:10F21000D9F14000BD244100004B18476125410051
:10F22000004B1847F5244100F7B5224C0646224B07
:10F230002546224F984701A8214B984794F82C3037
:10F240000A2B2DD11F4B984795F82C300A2B2DD126
:10F25000EA686B68AC6813446A69286A1344EA690F
:10F2600013442A691444AA691444642204441C44C3
:10F270005343B3FBF4F307EE903A134BF8EE677A7F
:10F28000C5ED0C7A9847C000B0FBF4F007EE900A89
:10F290000120F8EE677AFCEEE77AC6ED007A07E027
:10F2A000642101A8B8470028C8D0CBE7002030600F
:10F2B00003B0F0BDE8E341204D254100E5AF420039
:10F2C00035B0420061254100CDF240000048704752
:10F2D0008C86470008B5044B9847044B01221A70EE
:10F2E00000225A709A7008BDFDF14000800940204C
:10F2F00010B5074B9847074B98470120064B984796
:10F30000064B00209847064BBDE81040184700BF49
:10F3100035214100552C4100991E4100912C41009E
:10F32000D5F2400010B5054B03209847044B984791
:10F330000020044BBDE81040184700BF111D4100DC
:10F34000F1F24000B922410010B5044B9847044B3C
:10F350009847044BBDE81040184700BF9124410076
:10F36000A12141007D21410008B5044B187808B166
:10F37000034B984700F0010008BD00BF8009402002
:10F38000812C4100034A044B08B19068184750682B
:10F39000184700BF80094020051F4100114B9FED19
:10F3A000127A10B5D3ED0C7AF4EEC77AF1EE10FABA
:10F3B00016DC9FED0E7AF4EEC77AF1EE10FA0FD458
:10F3C0000B4B01200B495A680423520002FB00F446
:10F3D0008C4206D84000013BC0B2F7D1102010BDCE
:10F3E000012010BDE8E3412000005C4200003442EF
:10F3F0008009402090D0030010B5034CA047B0FA1C
:10F4000080F0400910BD00BFA92C4100024A53689A
:10F4100058439060704700BF80094020014B5868F6
:10F42000704700BF8009402010B5034B9847034B3D
:10F43000BDE81040184700BFD5F240000D24410040
:10F4400008B5044B9847044B9847044B0020984755
:10F45000002008BD35F1400049F34000111D410076
:10F4600008B5064B02881A8042685A6082789A7002
:10F47000034B1B699847012008BD00BF1CE44120D5
:10F480008C094020014B1880704700BF1CE44120CC
:10F49000014B1888704700BF1CE44120024B1878CC
:10F4A000B0FA80F040097047881A4020014B187864
:10F4B000704700BF881A40200022014B1A70704725
:10F4C000881A4020002070470020704700207047B5
:10F4D00000207047002070470020704700207047D0
:10F4E00008B5034B9847034B00209847012008BDFF
:10F4F000B5294100111D41000020704700207047D0
:10F5000000207047024B186A00B10047704700BFE7
:10F510008C09402008B5114B9847114B4FF47A7075
:10F520001B8843430F48B0FBF3F00F4B80B2984762
:10F530000E4B98470E4B48B10E4A1A620E4A9A6219
:10F540000E4A1A630E4B9847012008BD0D4A1A62F5
:10F550000D4A9A620D4A1A63F4E700BF192A410066
:10F560001CE4412080D1F0089D294100B1294100CF
:10F570008C0940200D004020F10040207D024020F9
:10F5800005F54000350040205D0040208501402009
:10F59000024B9B6A03B11847184670478C094020FC
:10F5A000024B1B6B03B11847184670478C0940206B
:10F5B0000A46014B00211847A1F540000A46024BBC
:10F5C00001460020184700BFA1F540002DE9F04F8B
:10F5D0000C4685B0394E9046394D1F460190B047D4
:10F5E000A847A84703960CB100232360354E337912
:10F5F00071798B4202D903EB080003E0FBD001EBE9
:10F60000080018444FF0010B431E4FF00008DA4683
:10F610000293029B9845019B0BEA03091AD33CB164
:10F62000294A9047226800283DD042EA0A02226017
:10F6300019F10000254B264C18BF01209847A04720
:10F64000A847A847002F32D1A047A847012005B0FE
:10F65000BDE8F08F34B11C4B98472368F8B143EAFA
:10F660000A03236019F10000184B4FEA4A0A18BF39
:10F6700001204FEA4B0B9847A8477079804503D289
:10F68000002818BF4FF0010A96F804E0864503D21F
:10F69000804538BF4FF0010B08F10108B9E723EAB4
:10F6A0000A002060DEE722EA0A032360C0E7013F88
:10F6B000039B9847FFB2A847C4E700BF8D034020D3
:10F6C000FD03402024E44120C5034020590440208C
:10F6D000750340202DE9F04F0C4685B0394E904619
:10F6E000394D1F460190B047A847A84703960CB173
:10F6F00000232360354E337971798B4202D903EBB5
:10F70000080003E0FBD001EB080018444FF0010BA8
:10F71000431E4FF00008DA460293029B9845019B76
:10F720000BEA03091AD33CB1294A90472268002802
:10F730003DD042EA0A02226019F10000254B264C16
:10F7400018BF01209847A047A847A847002F32D1EB
:10F75000A047A847012005B0BDE8F08F34B11C4B8D
:10F7600098472368F8B143EA0A03236019F10000BF
:10F77000184B4FEA4A0A18BF01204FEA4B0B984733
:10F78000A8477079804503D2002818BF4FF0010ABE
:10F7900096F804E0864503D2804538BF4FF0010B50
:10F7A00008F10108B9E723EA0A002060DEE722EA4F
:10F7B0000A032360C0E7013F039B9847FFB2A847B5
:10F7C000C4E700BFB50340204904402024E44120A1
:10F7D000ED03402075044020A503402008B5044BEC
:10F7E0009847044B98470120034B187008BD00BF91
:10F7F00075034020FD034020891A402008B5044BC2
:10F800009847044B98470120034B187008BD00BF70
:10F81000A503402049044020891A40202DE9F04FDB
:10F8200087B016464A4C9A460DF11008494F88E8B1
:10F830000300A047B847B84703942EB100233370A4
:10F840007370B370F3703371434A13795179019235
:10F850008B4202D903F1260102E0FBD02631194484
:10F8600001254B1EB3464FF000092C460293029B24
:10F8700099451ED346B1394A90479BF8002000288D
:10F8800051D014438BF8004098F80030344C1D429E
:10F89000344B14BF012000209847A047B847B84711
:10F8A000BAF1000F44D1A047B847012007B0BDE826
:10F8B000F08F3EB1294B98479BF8001008B32143C5
:10F8C0008BF8001098F800106400274B0D424FEAA7
:10F8D0004505E4B214BF012000209847B847019BBA
:10F8E000EDB25979894502D2002918BF0124019B44
:10F8F0001879884201D2894522D35CB93EB90124E6
:10F9000008E021EA04018BF80010DBE701250BF188
:10F91000010B012415B908F10108012509F10109BC
:10F92000A5E70125FAE722EA04048BF80040ABE7DB
:10F930000AF1FF3A039B98475FFA8AFAB847AFE7A4
:10F94000002CEED1002EE1D101242546E6E700BFD0
:10F950008D034020FD03402024E44120C5034020C6
:10F960007503402059044020112A41002DE9F84335
:10F970001D4B00229979DD799C784F1E6E18134635
:10F9800026448A421ED3A3401C180023AB4221D335
:10F99000164D0027DFF86080013EDFF86090C04719
:10F9A000A847134B9847A847A847B74204F001005F
:10F9B00014D3104B9847C047A847A847A847012031
:10F9C000BDE8F883BA4203F1010302F1010218BF56
:10F9D0005B00D6E7640001330134D7E7C84701373D
:10F9E000A8476408E1E700BF24E44120FD0340206C
:10F9F0008D0340205904402075034020112A410006
:10FA00002DE9F04F87B016464A4C9A460DF1100882
:10FA1000494F88E80300A047B847B84703942EB180
:10FA2000002333707370B370F3703371434A1379EA
:10FA3000517901928B4202D903F1260102E0FBD0F9
:10FA40002631194401254B1EB3464FF000092C46C0
:10FA50000293029B99451ED346B1394A90479BF8C1
:10FA60000020002851D014438BF8004098F8003053
:10FA7000344C1D42344B14BF012000209847A0474E
:10FA8000B847B847BAF1000F44D1A047B8470120A2
:10FA900007B0BDE8F08F3EB1294B98479BF80010A6
:10FAA00008B321438BF8001098F800106400274B2E
:10FAB0000D424FEA4505E4B214BF012000209847EB
:10FAC000B847019BEDB25979894502D2002918BF88
:10FAD0000124019B1879884201D2894522D35CB95F
:10FAE0003EB9012408E021EA04018BF80010DBE7AD
:10FAF00001250BF1010B012415B908F101080125BD
:10FB000009F10109A5E70125FAE722EA04048BF8C7
:10FB10000040ABE70AF1FF3A039B98475FFA8AFA85
:10FB2000B847AFE7002CEED1002EE1D101242546E5
:10FB3000E6E700BFB50340204904402024E441200B
:10FB4000ED034020A503402075044020112A410008
:10FB50002DE9F8431D4B00229979DD799C784F1EE1
:10FB60006E18134626448A421ED3A3401C18002355
:10FB7000AB4221D3164D0027DFF86080013EDFF84D
:10FB80006090C047A847134B9847A847A847B7427B
:10FB900004F0010014D3104B9847C047A847A8476A
:10FBA000A8470120BDE8F883BA4203F1010302F13E
:10FBB000010218BF5B00D6E7640001330134D7E7C8
:10FBC000C8470137A8476408E1E700BF24E44120A3
:10FBD00049044020B503402075044020A50340207F
:10FBE000112A41000022084B10B51A70074C084B2F
:10FBF0009847A047A047A047A047A047A047054B6C
:10FC00009847A047012010BD891A4020FD034020DD
:10FC1000012A4100092A41000022084B10B51A7040
:10FC2000074C084B9847A047A047A047A047A047CC
:10FC3000A047054B9847A047012010BD891A4020D6
:10FC400049044020012A4100092A410038B50A4BE5
:10FC50001A787AB90122094C094D1A70A847A047B1
:10FC6000A047A047A047A047A047064B9847A047FA
:10FC7000A847A047012038BD891A4020FD03402035
:10FC8000012A4100092A410038B50A4B1A787AB98D
:10FC90000122094C094D1A70A847A047A047A04768
:10FCA000A047A047A047064B9847A047A847A047B2
:10FCB000012038BD891A402049044020012A410012
:10FCC000092A41000288054B1A8042685A608278EE
:10FCD00001209A700022024B1A70704724E44120E0
:10FCE0008A1A4020014B1880704700BF24E441204D
:10FCF000014B1888704700BF24E44120024B18785C
:10FD0000B0FA80F0400970478A1A4020014B1878F9
:10FD1000704700BF8A1A40200022014B1A707047BA
:10FD20008A1A402008B5184A00234FF47A701370DD
:10FD3000164A1370164B1B8843431648B0FBF3F06A
:10FD4000154B80B29847154B9847154B78B1154A1B
:10FD50001A60154A5A60154A9A60154ADA60154ABF
:10FD60001A61154A5A61154B9847012008BD144A7B
:10FD70001A60144A5A60144A9A60144ADA60144AA3
:10FD80001A61144A5A61EEE7891A40208A1A402003
:10FD900024E4412080D1F0089D294100B12941008F
:10FDA000E809402089FC400019FC400051FB40005C
:10FDB000D5F6400001FA4000FDF74000192A410045
:10FDC0004DFC4000E5FB40006DF94000CDF54000E2
:10FDD0001DF84000DDF7400010B5054B00241C70F5
:10FDE000044B98472046044B9847012010BD00BFA4
:10FDF0008A1A4020B5294100111D4100024B1868A4
:10FE000000B10047704700BFE8094020024B586826
:10FE100000B10047704700BFE8094020024B9B68D3
:10FE200003B1184718467047E809402010B4054C44
:10FE3000E4681CB1A4465DF8044B604720465DF8B9
:10FE4000044B7047E809402010B4044C13460A469E
:10FE50000021A4465DF8044B604700BF2DFE400022
:10FE600033B48DE8030006490D692DB1AC469DE819
:10FE7000030002B030BC6047284602B030BC704777
:10FE8000E809402017B4064C13460022A4468DE82A
:10FE900003009DE8030003B05DF8044B604700BF1A
:10FEA00061FE4000012830D82A4B01202A4A1A60FE
:10FEB0002A4A5A602A4A9A602A4ADA602A4A1A6109
:10FEC0002A4A5A612A4A9A612A4ADA612A4A1A62F5
:10FED0002A4A5A622A4A9A622A4ADA622A4A1A63E1
:10FEE0002A4A5A632A4A9A632A4ADA632A4A1A64CD
:10FEF0002A4A5A642A4A9A642A4ADA642A4A1A65B9
:10FF00002A4A5A672A4A1A677047022820D1114B99
:10FF10000120284A1A60284A5A60284A9A60284ACA
:10FF2000DA60284A1A61284A5A61284A5A65284ADA
:10FF30009A65284A1A62284A1A66284A5A66284A3E
:10FF40009A66284ADA66284A1A67284A5A67704722
:10FF500000207047000A402061F4400085F4400012
:10FF600091F440009DF4400015F54000E1F440009C
:10FF700005F5400001F5400091F54000B1F5400065
:10FF8000A1F54000BDF54000C5F44000FDF440007F
:10FF9000C9F44000CDF44000F9F44000D1F4400031
:10FFA000D5F44000D9F44000DDF44000ADF4400049
:10FFB000B9F44000C5FC4000E5FC4000F1FC400005
:10FFC000FDFC400025FD4000D9FD4000FDFD400046
:10FFD0000DFE40001DFE400049FE40002DFE400089
:10FFE00061FE400085FE400019FD40000DFD40000F
:10FFF00038B50D4B05469847044690B101200B4B90
:020000040041B9
:100000009847012D0DD10620094B9847094B002038
:100010009847094A094B1A60094B0A4A1A600A4B69
:100020009847204638BD00BFA5FE4000111D410085
:10003000FD084100912C41004D014100DC0A4020A7
:10004000D80A40204D00410059004100014B18786A
:10005000704700BF8B1A4020024B00201870024BE3
:10006000184700BF8B1A4020A9AB41002DE9F3418E
:1000700007460E460025DFF86480BD4201D301200B
:1000800025E0092101A8D8F82C309847F8B1019B48
:1000900008240021DAB2104600F0010E013C4FEABC
:1000A000500081EA0E01F7D1C3F30023994204D135
:1000B000013532700136ADB2DFE7DB2ADDD0172221
:1000C000044B40F617601A70034B9847204602B065
:1000D000BDE8F0818B1A4020A9AB4100000A402006
:1000E0002DE9F34101384F1EDFF85C800D18AF4257
:1000F00001D1012020E017F8013F0826002418460E
:1001000003F00102013E4FEA530384EA0204F7D1EF
:10011000092201A940EA0420D8F82830984758B1AC
:100120009DF80430EB2BE2D01822054B40F6186006
:100130001A70044B9847304602B0BDE8F08100BF0A
:100140008B1A4020A9AB4100000A4020F8B50A4DA7
:100150000F461E462C7864B90146084B1046984756
:1001600008B92C7805E039463046054B98470028F9
:10017000F7D02046F8BD00BF8B1A4020E1004100B7
:100180006D0041007047000070B50446051D044E27
:1001900014F8010BB047AC42FAD1012070BD00BF8A
:1001A000D92541002DE9F84F1E46124C05468846D8
:1001B00041F22B70002191460023E4FB060141F23D
:1001C0002C720D4CA047DFF834A007460024DFF85E
:1001D00030B015F8010BD047A14508BF88F80000E2
:1001E0000EB13846D8470134E4B2042CF1D10120D5
:1001F000BDE8F88F00A3E1115D4E4300D925410011
:1002000001004020F0B5FF2B85B04FF000041D46E3
:100210008DF80C008DF80D108DF80E208DF80F4024
:1002200005D11448144B9847204605B0F0BD012471
:10023000124F134E02A8134B9847002303220DF1CF
:10024000070103A8B84708B9CB24EDE7012C9DF8B6
:10025000073005D1FF2B05D09D4204D10024E3E7F0
:10026000AB42FBD002240A2102A8B0470028E4D008
:10027000DAE700BF84B7070001004020A501410074
:10028000E5AF420035B042007FB5F02305460322BA
:100290000DF107018DF80C30002303A8144C8DF8E4
:1002A0000D308DF80E308DF80F30A04710B9CB20EF
:1002B00004B070BD9DF80730DA0701D40020F7E7DD
:1002C0000C4E02A80C4B9847002303220DF10701A6
:1002D00003A8A0470028EAD0294602A8B04720B9C1
:1002E0009DF80730DB07EFD4E8E78120E0E700BFA7
:1002F000A5014100E5AF420035B04200202810B40E
:1003000004D1054CA4465DF8044B60472828F8D07A
:1003100001205DF8044B704705024100FF2AF0B54B
:10032000064685B00C46154606D100241848194BE0
:100330009847204605B0F0BD174B02A89847A02368
:100340008DF80D608DF80C3000238DF80E400224DE
:10035000124F134E8DF80F30002303220DF10701C9
:1003600003A8B84708B9CB24E3E7022C9DF807306F
:1003700005D1FF2B05D09D4204D10024D9E7AB4223
:10038000FBD003240A2102A8B0470028E4D0D0E71C
:1003900084B707000100402035B04200A5014100AC
:1003A000E5AF42002DE9F0471A4B042098471A4D5B
:1003B0001A4B98471A4E00201A4CB047296811B3BF
:1003C00019484FF00009DFF86C800023174AE0FB62
:1003D0000189174F40464946B847A0470120B0471A
:1003E000296899B110480027124E00230F4AE0FBFC
:1003F00001670F4D30463946A847A04723460E48AF
:10040000BDE8F04718473320A047E7E73320A0476F
:10041000F4E700BF111D41008C1A40203527410030
:10042000692941000100402000A3E111E0835A0046
:100430005D4E4300DF835A00086F0F00004B1847E2
:100440003D07410008B5024B9847002008BD00BF9A
:10045000A5074100F8B507460E4DE0200E46A84717
:10046000B0B90D4A182327FA03F126FA03F0083B26
:1004700002F8011FDBB21071F82BF4D10024074EF3
:10048000A319D879A84718B9013C14F1080FF7D17E
:10049000F8BD00BF1D064100F3E94120F4E9412009
:1004A00010B540F08000054B0C46984720B9204617
:1004B000034BBDE81040184710BD00BF1D064100AA
:1004C0009506410070B540F0C000054C0D46A047B0
:1004D00020B928462346BDE87040184770BD00BFCC
:1004E0001D06410070B506460B4C68200D46A0471E
:1004F00088B9F0B2A04770B96920A04758B9C6F3CF
:100500000720A04738B96420A04720B928462346D1
:10051000BDE87040184770BD1D06410070B5064625
:100520000B4C68200D46A04788B9F0B2A04770B9BF
:100530006920A04758B9C6F30720A04738B9202042
:10054000A04720B92846034BBDE87040184770BD4E
:100550001D0641009506410070B50546084C68200F
:10056000A04758B9E8B2A04740B96920A04728B9C8
:10057000C5F307202346BDE87040184770BD00BF93
:100580001D064100430000F00F0003F06003184314
:1005900070B540F09000054C0D46A04720B92846A4
:1005A0002346BDE87040184770BD00BF1D064100DE
:1005B000430000F00F0003F060031843064B10B532
:1005C00040F010000C46984720B92046034BBDE888
:1005D0001040184710BD00BF1D06410095064100A0
:1005E000014B1870704700BF780A402010B5034BCC
:1005F0009847034BBDE81040184700BFB928410099
:100600006128410010B5034B9847034BBDE81040EB
:10061000184700BF61284100B92841002DE9F04783
:1006200000258146154F0120A846DFF860A0B84795
:10063000134E144B144C9847B047A04749FA05F3A2
:10064000DB0716D588F00108D0470135A047082DF3
:10065000F4D10E4DB8F1000F0DD0A847A047A84720
:10066000A047A0470020B847094B98470020BDE8A5
:10067000F087B047E9E7B047F0E700BF4129410004
:10068000112941000DCB4000ED0541002129410019
:1006900041CB40002DE9F04F204F85B0204B019019
:1006A000B84600201F4D204E9847A84703A81F4B6F
:1006B0009847B847044620BBB04727462646A2467F
:1006C000DFF86C904FF0010BC847C04728B10BFA18
:1006D0000AF287F001071643F6B20AF1010AA847A9
:1006E000BAF1080FF0D1124B9847C047874212D198
:1006F000019B104D1E70A847A847204605B0BDE8D5
:10070000F08FB0474FF47A7103A80B4B984700283D
:10071000CFD00324F1E70224EFE700BF31294100E5
:1007200041294100B92841000506410035B0420089
:1007300061284100ED054100E5AF420038B50446AF
:100740000F4B08200F4D98470F4B98470F4B98477A
:1007500001200F4B984741F2C2300E4B98470120C1
:100760000D4B98470D4B9847204611240C4B98474A
:10077000013CA84714F0FF04FAD1204638BD00BF61
:10078000111D41000506410005284100D9274100FF
:1007900069294100010040204129410021294100EF
:1007A000E105410010B50020054B9847054B9847DF
:1007B000054B002098470020044BBDE81040184727
:1007C000412941003D284100111D41006929410096
:1007D0002DE9F0410A4B06460D4617469847094B4E
:1007E0000446984750B124EA050405EA070130465B
:1007F000054BE4B22143BDE8F0411847BDE8F08164
:1008000025094100C90841005509410010B50246BB
:10081000044B092003219847FD20034BBDE81040FD
:10082000184700BFD1074100010040200120014BC3
:10083000184700BF250941000138C0B206289ABFF9
:10084000014B185C00207047BF5143000B20014B47
:10085000184700BF2509410008B5024B9847C0F36F
:10086000C00008BD4D08410008B5024B9847C0F3D1
:10087000401008BD4D08410008B5024B984700F0F4
:10088000010008BD4D08410008B5054B187028B19E
:1008900040F46060034B9847002008BD012008BD6C
:1008A000911A4020A9AB4100014B1870704700BF5E
:1008B000901A4020024B187808B9024B184770472D
:1008C000911A4020492C4100024B1878B0FA80F070
:1008D00040097047911A402010B5054B00241C7048
:1008E000044B98472046044BBDE81040184700BF12
:1008F000911A4020552C4100A9AB4100082804D191
:100900000022064B1A70064B1847062803D1012215
:10091000024B1A70F7E70A28F9D0F4E750E44120B7
:10092000D9084100084B00F00F0070B51C6860F05A
:100930007F00064B064D21461E680123287028467D
:100940001A46B047207870BD000B4020DC0A4020DA
:100950007A0A4020084B00F00F00022260F03F00AE
:1009600030B4064C1D680023207020466170AC46F0
:10097000194630BC604700BFDC0A4020B60A402060
:10098000194A38B514680346184A190A1078184AE3
:1009900080B118481568052243708170190C1B0E30
:1009A000C170214603710123A847D0B1124B98476B
:1009B000002038BD1148007850B111481568042254
:1009C00043701B0C81702146C3700123A847ECE7DC
:1009D0000C48156803224370012381702146A84703
:1009E000E3E7207838BD00BF000B402050E44120F1
:1009F000DC0A4020950A402089084100901A4020D6
:100A0000850A4020820A40201B4A38B514680346F4
:100A10001A4A190A10781A4A80B11A48156805222C
:100A200043708170190C1B0EC170214603710223A3
:100A3000A847D0B1144B9847002038BD1348007820
:100A400050B113481568042243701B0C8170214675
:100A5000C3700223A847ECE70E48156803224370D1
:100A6000022381702146A847E3E76378207800EBF2
:100A7000032080B238BD00BF000B402050E441206D
:100A8000DC0A40208B0A402089084100901A40204F
:100A90007E0A40207B0A402038B50F4A03460F48A3
:100AA00014681A0A437082701A0C1B0E2146C27019
:100AB000052203710A4B1D680423A84750B9A0788A
:100AC000E378000400EB036023781844637800EBBC
:100AD000032038BD002038BD000B4020900A402084
:100AE000DC0A40202DE9F04788462649264A03467D
:100AF000097814689146254E020A254D81B1254892
:100B000021463668437082701A0C1B0E80F80580EF
:100B1000C270062203710023B0471F4B98472DE097
:100B20001E49097881B11E482146376843701B0C65
:100B300082700422C3700123B8470028EDD12378C6
:100B4000402B0AD04720E8E7164821463768437013
:100B5000012382700322B847EFE7D9F80070124BE7
:100B600087F8008098470123366821461A463846A0
:100B7000B0470028D1D12378402BE3D12B46BDE8E4
:100B8000F047184750E44120000B4020DC0A402089
:100B9000B5084100AA0A402089084100901A402067
:100BA000C20A4020BF0A40209D2C41002DE9F04799
:100BB0000C462B492B4A0346097815689146DFF805
:100BC000C480020A284E91B1284829464370827099
:100BD0001A0C44711B0E240AC2700371072284711F
:100BE0000023D8F80040A047214B984730E0214926
:100BF000097889B120482946D8F8007043701B0C49
:100C000082700422C3700123B8470028ECD12B78EE
:100C1000402B0BD04720E7E718482946D8F800704A
:100C20004370012382700322B847EEE7D9F80070C1
:100C3000134B3C70240A7C709847D8F8004001237D
:100C4000022229463846A04730B11920084B984760
:100C50003346BDE8F04718472B78402BDAD1F7E749
:100C600050E44120000B4020B50841009A0A402082
:100C700089084100901A4020BB0A4020B80A402051
:100C80009D2C4100DC0A40200E4A0B4670B50E4CEC
:100C90001168020A6371A270020C6070000EE270AB
:100CA0001A0A20712046A2711A0C1B0EE271092249
:100CB0002372064B1D680023A847054BBDE8704012
:100CC000184700BF000B4020A10A4020DC0A40204A
:100CD000B50841001D4A034670B51468190A1C4A3C
:100CE0001C4D10781C4A70B11C48166805224370D0
:100CF0008170190C1B0EC170214603710023B0478F
:100D0000174B984710E01748007888B116481668C6
:100D1000042243701B0C81702146C3700123B0472D
:100D200078B119200E4B98472B46BDE87040184704
:100D30000E48166803224370012381702146B04794
:100D4000EEE72378402BEFD04720D9E7000B402077
:100D500050E44120B5084100DC0A4020C60A40208A
:100D600089084100901A4020CE0A4020CB0A40203A
:100D70002DE9F0472A4F04462A4E3D68B0472A4BDA
:100D8000B146DFF8B0E01B788EF80100DFF8A880EC
:100D9000F3B10023022229467046D8F80060B0471C
:100DA00010B1224B984703E03F68013CA4B21CB944
:100DB0001F4BBDE8F0471847C84700233870012291
:100DC00029463846D8F80060B0470028EDD0E8E75B
:100DD0000123022229467046D8F80060B047002857
:100DE000DFD12B78402B01D04720DAE73F68DFF8CE
:100DF0004CA0013CA4B2002CDAD0D047C847012354
:100E0000387029461A463846D8F80060B04718B1FD
:100E1000064B19209847CBE72B78402BE9D0E3E726
:100E2000000B402089A0410050E441208908410086
:100E3000B5084100D50A4020DC0A40209D2C410025
:100E40001D4B2DE9F0471C6805461C4EB04720801D
:100E500003461B48DFF8788003224370214623882D
:100E6000B146D8F800701B0A83700123B84728B137
:100E7000144B9847144BBDE8F04718472378402B94
:100E800018D04720F4E72378402BFAD1013DADB2CA
:100E9000002DEFD0B847C847012320800222214609
:100EA0002046D8F80060B0470028ECD0054B192048
:100EB0009847DFE7054FE9E7000B402095A0410088
:100EC000D20A402089084100B50841009D2C41000C
:100ED000DC0A4020104B01222DE9F0411F68064634
:100EE0000E4B39461C6803460D48A0470D4B05467E
:100EF0001B7823B10024DFF83880B44207D315B142
:100F00002846094B9847094BBDE8F0411847381966
:100F10000121C0470134F0E7000B4020DC0A4020EB
:100F20008A0A4020D8E4412089084100B5084100E0
:100F3000AD9F4100104B114A2DE9F04146001F685A
:100F400014680122B3B239460D48A0470D4B05463F
:100F50001B783BB915B128460B4B98470B4BBDE8A6
:100F6000F04118470024DFF82880B442F2D0381945
:100F70000121C0470134F8E7000B4020DC0A402083
:100F8000890A4020D8E4412089084100B508410081
:100F9000AD9F41002DE9F04105460D480D4C0F462F
:100FA00065F01F0301222668037000231946B0472D
:100FB000094B1B780BB9094B98470822246800237A
:100FC0003846AA40A446194692B2BDE8F0416047AF
:100FD000790A4020DC0A402050E441209D2C410049
:100FE00070B560F01B03094C094A2370082315688B
:100FF0000122834020469BB2A84710B11920054B1F
:101000009847054BBDE87040184700BFB50A40201F
:10101000DC0A402089084100B5084100012810B4CD
:101020001AD90F4B01380F4C196882B20E4B1B783E
:1010300053B10E48002324684270120AA4468270FD
:1010400003225DF8044B604709482468427002227D
:10105000A4465DF8044B60475DF8044B704700BF41
:10106000000B4020DC0A402050E44120B00A402020
:10107000B30A402070B50446294B984794B141F219
:101080002B700021274D002341F22C72E5FB040157
:10109000254CA047254B9847254B9847254BBDE845
:1010A000704018470046004600460046004600468D
:1010B0000046004600460046004600460046004600
:1010C00000460046004600460046004600460046F0
:1010D00000460046004600460046004600460046E0
:1010E00000460046004600460046004600460046D0
:1010F00000460046004600460046004600460046C0
:1011000000460046004600460046004600460046AF
:10111000004600460046004600460046BCE700BFC9
:10112000BD1A410000A3E1115D4E430001004020C3
:10113000DD1A410089174100F7B50C4E19200C4DFE
:101140003746A8470B4C01A8A047322101A8B04759
:101150000028FAD01920A84701A8A047052101A816
:10116000B8470028FAD003B0F0BD00BFE5AF420099
:101170007510410035B0420073B50B4E01A80B4D00
:101180000B4B9847012101A8B047044648B9A8472E
:101190000028F7D046F2C720064B9847204602B0F9
:1011A00070BD3C20FBE700BFE5AF4200FD1A4100E7
:1011B00035B042000100402010B5084B0020984790
:1011C000074B0446984738B9C4F307141CB10F2CD9
:1011D00008BF392010BD392010BD00BF25094100CE
:1011E0005517410010B5084B9847082804D1042230
:1011F0000320064B11469847054B98470020054BA6
:10120000BDE81040184700BF65174100D1074100F5
:1012100035174100111D410008210320004B1847DC
:101220005509410070B508200B4B98470B4C0C4BEF
:101230009847A04778B90B4DA84760B9032207210A
:101240000220094B9847A04728B9A04718B92B4658
:10125000BDE87040184770BDFD08410055174100BA
:1012600019124100B9114100D107410010B5002009
:10127000164B9847164B98470446C8B90820154B9B
:101280009847154B98471548154B984750B9154B3B
:101290009847044660B9144B984758B9134BBDE8BA
:1012A00010401847124B9847124B98470028EED031
:1012B000204610BD104C1148A0471148A047114BC3
:1012C000984704460028F3D1E8E700BF75104100B5
:1012D00079114100FD08410019124100D551430028
:1012E000B918410069184100C9084100B50841001A
:1012F0005D174100590841000100402093952600E8
:101300004B633100251241002DE9F743394C074664
:101310000020394EA047394B9847A04640B9B04706
:1013200030B9374B98470446204603B0BDE8F083F8
:10133000344B9847344B9847B047044608B90024CB
:10134000F2E7062F3AD1314B9847314B9847314D50
:101350004FF4FD70304CA8470020A04741F2C23046
:10136000A8470120A0472D48A8472D4B98472D4B53
:10137000984741F2C230A8470020C047B0472A4EE4
:10138000044608B1B047CFE72848294B98470446A0
:10139000B047002CC8D1DFF8B48001A8DFF8B090C6
:1013A000244E254B9847C0470028BDD04FF4FA7112
:1013B00001A8C84720B93046A847F4E7002FB3D0AA
:1013C00038461E4B98475128044602D11C4B98477B
:1013D0000446002CA8D11B4B98470028AFD02046CC
:1013E000194B9847064B9847002814BF04461B2406
:1013F0009AE700BF751041002512410079114100A4
:1014000055174100391141005D1741000DCB4000D7
:10141000BD1A410001004020911342000FDE1E0062
:10142000DD1A41008917410041CB4000CC514300F7
:10143000B91841001B8B010035B042001D2B410043
:10144000892B41006D1241004D1A4100790841007D
:10145000E5AF420010B50F4B984710B1002420466D
:1014600010BD0D4B98470D4B04469847082803D1F3
:101470000B4B98470B4B98470B4B98470028EED1E6
:101480000A4B9847002CE9D000F00700084BBDE854
:1014900010401847C9084100551741006517410021
:1014A000391141005D174100E11741002D0841004D
:1014B00039084100F7B5614B0828614A0446614F7D
:1014C0000E461A60604A176059D106205F4DA84742
:1014D00020465F4B98475F4B984730465E4B984796
:1014E0000446002848D15D4B02201F685C4B3946FA
:1014F00098470446002835D1022207F108015948CF
:10150000594CA047594E10B9BB7A303B3370022278
:1015100007F10B015648A04718B97B7B554A303B71
:1015200013703B7C4D2B20D17B7CFC7B303B303CD3
:1015300003EB8303C4EB441203EB830304EB82024B
:101540009C0004EBC204A4B230784B4B012894BF3A
:10155000002001209847494B20469847484B984720
:1015600028B90024204603B0F0BD0024ECE7454B29
:10157000984704460028F4D00020A847F2E7062840
:10158000EFD1324B0520984720463F4B98473F4BC1
:1015900098473F4B98473F4E3F48B0473F4B98478F
:1015A00020462B4B98472B4B98473D4B9847054679
:1015B000002837D04FF47A7068433A4B984746F288
:1015C000C720B04741F294139D422DD840F6CA037C
:1015D0009D422BD840F24C439D4229D840F226230D
:1015E0009D4227D8B5F58C7F26D88D2D28BF0524A0
:1015F00064F03F0102202C4BC9B2984702202B4BCC
:10160000984700F007008DF80700B8470028A8D0D9
:101610009DF807309C42A4D0254B9847254B1B20B2
:1016200098479EE72448C8E70024E1E70124DFE764
:101630000224DDE70324DBE70424D9E7DC0A4020A9
:10164000A92C4100492C4100D80A4020111D41001D
:10165000D51641005D17410009134100000B4020E1
:10166000E10F4100C6514300D1DF4200921A4020F1
:10167000C9514300931A4020A9084100A117410015
:10168000E117410055144100FD084100791A41005D
:10169000BD1A41000100402084B70700DD1A410057
:1016A00049184100051F4100550941002509410025
:1016B000E51E4100612C410040420F00014B1878AB
:1016C000704700BF921A4020014B1878704700BF46
:1016D000931A402008281149114A124B18BF0B4693
:1016E00070B50446107053600CBF012000200E4BF3
:1016F0009847062C0DD0082C0DD00A2C14BF0025BD
:1017000005252046094B98472846094BBDE87040FF
:1017100018470325F5E70225F3E700BF40420F0015
:1017200054E44120A0860100912C41004D1A410053
:10173000991E410010B5044B9847044B9847002070
:10174000034BBDE810401847E51E4100191B41003E
:101750004D1A4100004B1847B5084100004B18478F
:10176000D9084100014B1878704700BF54E441206C
:1017700008B508B9024B5868024B9847002008BDCD
:1017800054E44120051F410010B5034B9847002049
:10179000024BBDE810401847351B4100711741004E
:1017A0000E4B020999895A8140F2DC521881C0001F
:1017B000914280B288BF9A819A89B2EBD01F09D931
:1017C000B2EB901F08D9B2EB501F94BF0122002248
:1017D0005A7070470322FBE70222F9E754E44120E4
:1017E00070B50F4C4FF47A700E4D63895843A8477B
:1017F0000D4B984718B140F2F7200C4B98470C4E10
:101800000020B04760780B4B9847A3894FF47A705B
:101810005843A8470020B047074BBDE87040184721
:1018200054E44120711741003992420001004020E8
:10183000250941000D084100B5084100014B988180
:10184000704700BF54E44120014B9889704700BFA6
:1018500054E441200146034B10B159210820184798
:10186000082018475509410070B50F4D64245921CF
:1018700008202E460D4B9847A84728B9013C14F084
:10188000FF04F9D13D2070BD64240020084B984727
:10189000B04720B1013C14F0FF04F9D1F2E7054B49
:1018A000BDE87040184700BF690841005509410074
:1018B00055184100B508410070B50C4D0446A847C5
:1018C00018B90B4BBDE87040184721460020094B62
:1018D0009847A8470028F4D0074B07209847237A59
:1018E0001841C307EDD4452070BD00BFC9084100B1
:1018F000B5084100950F41002509410000F01F0285
:101900004009012300F5001093400A0700F2077018
:101910004FEA40201ED54366CA061DD5C0F8943054
:101920008A061CD5036511F0C00F1AD003620A069F
:1019300019D5C0F88430026F11F0010F14BF1A439B
:101940009A4389070267426F4CBF134322EA03039D
:10195000436770470366DFE7C0F89030E0E7436510
:10196000E1E74362E3E7C0F88030E4E770B5124C8A
:101970000646124B0D4620689847B0421BD120689E
:101980000F4B9847A84216D12268530902F01F0254
:1019900003F5001303F207735B02D96B012303FA0B
:1019A00002F20A4204D0A3682BB1BDE87040184788
:1019B000E368002BF9D170BDA01A402051D440003B
:1019C00065D44000014B1870704700BF981A402042
:1019D000014B1878704700BF981A402008B50020C6
:1019E000034B98474FF00062024B1A6308BD00BFDB
:1019F0005DB54100000E0E4008B50020034B98472E
:101A00004FF00062024B5A6308BD00BF5DB5410054
:101A1000000E0E4008B50A20034B98474FF00062B5
:101A2000024B1A6308BD00BF5DB54100000E0E40B9
:101A300008B50A20034B98474FF00062024B5A63E7
:101A400008BD00BF5DB54100000E0E40062801D163
:101A5000014B1847014B184779B641009DB641002C
:101A6000044B4FF080525A631A61C3F8A0201A60E9
:101A7000704700BF00140E4070B50E4C4FF4005577
:101A80000D4E03210D202563B04708210D20656010
:101A9000B04765610021C4F8A0500C20B0474FF456
:101AA000805363606361C4F8A0304FF000636363E8
:101AB00070BD00BF000E0E40FD18410008B5054B7B
:101AC0009847054B4FF400525A631A61C3F8A0209F
