:020000040040BA
:10000000B0DB4020AD014000290240002902400041
:10001000290240002902400029024000000000009F
:100020000000000000000000000000002902400065
:10003000290240000000000029024000290240007F
:1000400071024000710240007102400071024000E4
:1000500071024000710240007102400071024000D4
:100060007102400000000000710240007102400077
:1000700071024000710240007102400071024000B4
:1000800071024000710240007102400071024000A4
:100090007102400071024000710240007102400094
:1000A0007102400071024000710240007102400084
:1000B0007102400071024000710240007102400074
:1000C0007102400071024000752A40007102400038
:1000D00000000000710240000000000071024000BA
:1000E0007102400071024000710240007102400044
:1000F0007102400071024000710240007102400034
:100100007102400071024000710240007102400023
:10011000710240000000000000000000000000002C
:100120007102400071024000710240007102400003
:1001300071024000000000007102400071024000A6
:1001400010B5054C237833B9044B13B10448AFF311
:1001500000800123237010BD300B40200000000000
:1001600000C040000C4B43B10C480D4910B5AFF333
:1001700000800C48036823B910BD0A48036833B9EE
:100180007047094B002BF7D0BDE810401847064BCD
:10019000002BF5D0184700BF0000000000C0400051
:1001A000340B4020047540000000000008B5174BD8
:1001B000174A9A4210D0174B144A9A420CD2013B6C
:1001C0009B1A23F0030304331344114951F8040B21
:1001D00042F8040B9A42F9D10F4B104A9A420AD2C4
:1001E000013B9B1A23F0030304331344002142F81C
:1001F000041B9342FBD10A4A0A4B23F07F0393600E
:1002000006F0D4FD00F056FCFEE700BF00004020E1
:1002100004754000300B4020B0D54020300B40200A
:1002200000ED00E00000400000B585B0EFF305836D
:1002300003930E4B5A6B02929A6B01929B6A009346
:10024000F02004F091F800BF42F2107005F098FA27
:1002500006F0BCF8039B0393029B0293019B01935E
:10026000009B009305B05DF804FB00BF00ED00E0CB
:1002700000B583B0EFF305830193F22004F074F826
:1002800000BF42F2107005F07BFA06F09FF8019B68
:10029000019303B05DF804FB014A024B1A607047FA
:1002A00000093D00E8034020014A024B1A607047F4
:1002B00000093D00E8034020164B984213D9164B25
:1002C000984215D9154B984216D9154B984217D913
:1002D000144B984218D9144B984294BF134A144AAD
:1002E000144B1A6070474FF08062124B1A607047CF
:1002F000114A104B1A607047104A0E4B1A60704733
:100300000F4A0C4B1A6070474FF00422094B1A60D9
:10031000704700BFBFF35E017FE7BD023FDB1C04F7
:10032000FFCE7B05BFC2DA067FB6390800050004A0
:1003300000060004000C0E4000010004000200044E
:100340000003000408B54FF40042244B5A60BFF389
:100350004F8FBFF36F8F224B0022C3F850225A6990
:1003600042F400325A61BFF34F8FBFF36F8F1D4AC3
:100370001D495160A1F580715160BFF34F8FBFF3EC
:100380006F8FD3F8902222F00102C3F89022D3F8A5
:10039000942222F00102C3F89422BFF34F8FBFF3DF
:1003A0006F8F0A2001F098FC0B2001F095FC0C20C7
:1003B00001F092FC102001F08FFC112001F08CFC68
:1003C0000A4B4FF400225A631A61C3F8A02000F0D0
:1003D000EFFC00B908BD00F0E1FCFBE750180E404F
:1003E00000ED00E0000C0E400C08005A00140E4016
:1003F000044BFF2103F5007203F8011B9342FBD16C
:10040000704700BF741040202DE9F041ADF57C7DB0
:10041000B14B1C78A4F1E1030C2B0ED8DFE813F0EC
:100420000F003F026F0259020F000F000F000F0074
:10043000B202D1020D000F000F00002300E00123E3
:1004400098420DD002217F2003F004FDE72003F045
:100450008BFF00BF42F2107005F092F905F0B6FF75
:10046000E13C0C2C00F21982DFE814F00D001C02B4
:100470004E023702A000E100620172018F02AF025A
:1004800017021D016F01FFF7B3FF944BE1221A70B1
:10049000BF225A7000229A700121D9701A715A71C4
:1004A00071A805F06FFA00B900BF8D4C2146719814
:1004B00005F0C8FF211D729805F0C4FF04F1080182
:1004C000739805F0BFFF874B186804F10C0105F025
:1004D000B9FFFE2201A94FF4FC4003F00DFB28BB3D
:1004E0009DF80430012B1CD913F0010F19D19C1E6B
:1004F00048BF0134641014F0FF0F12D014F0FF0451
:1005000009D001AB784A03EB440033F8021F02F82C
:10051000011F9842F9D1714B1C44002384F820300C
:1005200009E000226D4B83F8202004E000226B4B91
:1005300083F8202000BF6D4C21466D4B186805F0F4
:1005400081FF0023237101256571A371E371694B5C
:100550001B78E373684B1B78A373684B1B7863733A
:10056000674B1B7823735F4B586804F12C0105F02F
:1005700069FF04F130019F3C749805F063FF4FF46C
:1005800000722146284600F0B9FB002840F09F8009
:1005900000BF9CE05B49284604F082FC8046D4E121
:1005A0005949284604F07CFC064618E2FFF720FF74
:1005B0004A4C2546E52305F8013B04F073FF294624
:1005C00005F040FF04F08AFF04F13D0105F03AFF19
:1005D0004FF480722146012000F090FB002876D174
:1005E00000BF74E004F050FC0346002840F0638133
:1005F00004F006FF03465EE104F03CFC03460028DD
:1006000040F0598104F00EFF034654E1284604F0FF
:1006100048FB002840F0028204F036FC0646002821
:1006200040F0BC81284604F023FD0646B6E103F005
:1006300079FFB8B1294CB0236370E22003F094FE37
:1006400000BF40F6B83005F09BF8E12003F08CFEC7
:10065000E623237002222146012000F04FFB0028F0
:1006600035D116E0FBA803F049FF0028E2D1FB9A40
:10067000264B9A42DED104F0F3FB034658B100BF8B
:1006800016494B70E6230B700222012000F036FB66
:10069000E8B900BF1BE004F0D7FB0346002800F0D8
:1006A000D78100BFECE703F03DFF88B3E22003F001
:1006B0005BFE00BF40F6B83005F062F8E12003F0C1
:1006C00053FE04F0CDFB68B300BF05F07FFE0DF5CF
:1006D0007C7DBDE8F08100BF741240207410402082
:1006E0007A10402040090E40931040201311402002
:1006F000F4BF4000F8FF5F00F9FF5F00FAFF5F0002
:10070000FBFF5F004C0B4020741440205500AABB37
:10071000FBA803F0F3FE0028C8D1FB9AC04B9A4215
:10072000CFD0C3E704F090FB0028CED000BFCCE7C9
:10073000BC49E7230B700122104600F0DFFA08B92C
:1007400000BFC4E705F042FEC1E705F03FFEBEE78B
:10075000FFF74EFEB34CE82304F8103B04F0DCFA3C
:10076000214605F06FFEFBA803F0C8FE90B9AE4924
:10077000FB9805F067FEAD4B1868AD4905F062FEC9
:100780004DA805F085FA0646002440F6AD384DAF79
:10079000A44D1AE0A44940F6AD3005F053FEE22026
:1007A00003F0E2FD00BF40F6B83004F0E9FFE120BD
:1007B00003F0DAFDDFE700BF404604F140012944C1
:1007C00005F040FE0434102C03D0002EF3D1E05984
:1007D000F3E745A805F08CFA0746964C45AD04F1C1
:1007E000200640F6AD3808E000BF4046214605F03F
:1007F00029FE04340435A64203D0002FF4D1286822
:10080000F4E741A805F08EFA002842D141988A49C0
:1008100005F018FE75A805F087F800B900BF874CF1
:100820002146759805F00EFE04F11001769805F04A
:1008300009FE04F12001789805F004FE04F130016E
:10084000779805F0FFFD04F140017A9805F0FAFD74
:1008500004F15001799805F0F5FD04F160017B98F1
:1008600005F0F0FD764D286804F1700105F0EAFD11
:10087000686904F1800105F0E5FD4FF40072A4F110
:10088000C001012000F03AFA00287FF420AF00BF39
:100890001DE700BF40F6AD30B9E700BF17E70228FB
:1008A0007FF4D0AD674B5C78FA2C3FF49BAEFB2C09
:1008B0003FF4A2AE80235B49E2220A704C708B7039
:1008C0000322012000F01AFA00287FF400AF00BFD5
:1008D000FDE6B0F5424F7FF4B5ADFFF789FD514914
:1008E000E4230B70892381F8FF314FF4007201205B
:1008F00000F004FA00287FF4EAAE00BFE7E640F219
:100900000D2398427FF49EAD4F4C204605F08FFD9D
:100910000546201D05F08BFD074604F1080005F093
:1009200086FD064604F10B03484A04F20B2013F837
:10093000011F02F8011F9842F9D1284604F0DAF9A4
:1009400000287FF427AE4FF08608364C2146E3237B
:1009500001F8013B284605F075FD611D384605F09C
:1009600071FD04F10901304605F06CFD84F80D803D
:100970000E222146012000F0C1F900287FF4A7AE25
:1009800000BFA4E605287FF45DAD2F4805F04FFDBC
:10099000054604F0AFF9002838D18626214C2146BF
:1009A000E92301F8013B284605F04CFD667106225B
:1009B0002146012000F0A2F900287FF488AE00BF94
:1009C00085E6B0F5806F7FF43DAD1F4805F02FFD43
:1009D000054604F08FF900287FF4E2AD8626FFF784
:1009E00007FD104C2146EA2301F8013B284605F09B
:1009F00029FD84F8FF614FF400722146012000F0C8
:100A00007DF900287FF463AE00BF60E6284604F05D
:100A10006BF900287FF4FAAD8226BFE70026BDE718
:100A20005500AABB741040209410402000ED00E057
:100A3000A4104020F4104020141140203411402014
:100A4000000C0E4074124020751240204B0B4020C9
:100A5000074900234B70E6230B700222012000F0AF
:100A60004DF900283FF415AE05F0B0FC2FE600BFAD
:100A7000741040200C4BFF2103F5007203F8011B9A
:100A80009342FBD1094BFF2103F5424203F8011BBE
:100A90009342FBD1064BFF2103F5007203F8011BC3
:100AA0009342FBD1704700BF4C0B40207412402092
:100AB0007410402090B587B000AF0023FB75BB7564
:100AC0003B61FB60BB60684A536943F010035361AC
:100AD000FFF7E2FB05F034FB05F046FB05F080FB79
:100AE000624B5B6813F4004F04D14FF400425F4B3C
:100AF0005A6000BF4FF400225D4B1A6303F5806318
:100B00005B6803F4E063B3F5806F04D0594B5B6816
:100B100013F4E06F02D1962004F032FE05F0D6FC0B
:100B200000B100BF381D04F0E5FEFB79062B02D0B2
:100B30000623FB7100BF01233B717B710023BB7156
:100B4000786805F09BF900B100BF381D04F0D2FEB3
:100B5000FB79062B00D000BF03F010FD03F080FEF0
:100B600004F03AF800B100BF03F0ECFF00B100BFA1
:100B700003F093F97F2003F067F917217F2003F03A
:100B800069F9E12003F0F0FB00F014F908B101234A
:100B9000FB75002003F04AF905F0A0FC00B100BF8E
:100BA00007F1080003F0AAFCC8B9BA68324B9A42B0
:100BB00001D00123FB7504F0AFF8B87504F082FC96
:100BC0003861FB7DCBB1FB7D2BB9BB7D1BB9FA68CE
:100BD0003B699A4215D000F0C5F800BFFDE701233C
:100BE000FB75E22003F0C0FB00BF40F6B83004F014
:100BF000C7FDE12003F0B8FBDDE704F053FCF8602B
:100C0000E1E7FFF737FF72B6002301241B485A09BA
:100C100003F01F0104FA01F1603240F822100133A1
:100C2000402BF4D1BFF34F8FBFF36F8F0E4B144A9D
:100C30009A60BFF34F8FBFF36F8F126882F30888FB
:100C4000BFF34F8FBFF36F8F5A6922F400325A619E
:100C50000022C3F85022BFF34F8FBFF36F8F094BB1
:100C60001B689847B9E700BF00ED00E050180E4040
:100C700000140E4000180E405500AABB00E100E031
:100C800000C0400004C040000368013B0A2B15D897
:100C9000DFE803F015150615150A101414151500D4
:100CA0000022074B1A707047054B01225A70826868
:100CB0005A6070470022024B1A70704700BF70479D
:100CC000540D402070B504460D46164604F0A0FDB4
:100CD00032462946204605F017FB50B1064D41F239
:100CE00088366C7834B9304604F058FD0028F8D0C6
:100CF00000E00446204670BD540D402070B5044607
:100D00000D46164604F084FD01230E4A1370324648
:100D10002946204605F01CFB064670B1094C41F2FD
:100D20008835237863B1284604F038FD0028F8D0D0
:100D30000026044B1E7000BF02E00022014B1A7017
:100D4000304670BD540D402008B5044B00225A7047
:100D50001A705A60024805F0CDFA08BD540D4020C3
:100D6000890C400008B5FFF7EFFF0A4C0A4E0EE071
:100D70002A4631460020FFF7A5FF637813B9637850
:100D8000002BF5D0002363706068FFF73DFB4FF444
:100D90004245F4E7540D402074124020034B4FF4B9
:100DA00000625A61C3F8A020704700BF00140E40D3
:100DB00001207047F8B5032400250F27094E384657
:100DC00004F0DEFCF36B13F4006F01D00135EDB2DB
:100DD000631E13F0FF04F2D1012D94BF0020012007
:100DE000F8BD00BF00140E4008B500F023FDFFF76A
:100DF0005BFA08BD08B5092809D8DFE800F0050549
:100E0000050B0B0B0B0B0F13002000F03DFDFFF744
:100E10004BFA08BD012000F037FDF8E7022000F092
:100E200033FDF4E7032000F02FFDF0E708B500F0F4
:100E300037FF002001F0ECF801F0F4F808BD08B528
:100E400001F0F6F808BD08B50F48FFF735FA3E2166
:100E5000002000F09FFE00F0DFFE0028FBD000F035
:100E60000FFF0A4A0A4B9A6200F012FF0028FBD0DB
:100E7000022000F0EDFC002000F076FDFFF714FAF0
:100E80000148FFF719FA08BD00A3E111013F18203E
:100E900000060E40014B1878704700BF640D4020DB
:100EA00008B500F021F9C378034A13700BB1012093
:100EB00008BD05F004FA08BD640D402008B5034BD9
:100EC0001B7803B108BD05F007FAFBE7640D40206D
:100ED00008B5134B1B7813F0800F05D103F06003A6
:100EE000402B0FD0002008BD03F06003402B01D041
:100EF000002008BD0A4B5B780BB1002008BD05F04F
:100F0000F7F908BD064B5B783BB9054BDB880BB99D
:100F1000002008BD05F0EAF908BD002008BD00BFAB
:100F200074D5402000B583B000920B4602460021E4
:100F3000812002F0FDFA03B05DF804FB00B583B038
:100F400000920B4602460021022002F0F1FA03B0A3
:100F50005DF804FB00B583B000920B460246002109
:100F6000832002F0E5FA03B05DF804FB00B583B01E
:100F700000920B4602460021042002F0D9FA03B089
:100F80005DF804FB104B1B681A6853881A440378F9
:100F90001844904211D24378042B10D08B4209D0D0
:100FA00003781844904206D24378042B09D08B4230
:100FB000F6D107E0704700207047002070470020FE
:100FC00070470020704700BF6C0D402008B5034BF0
:100FD000987800F07F0002F039F908BD74D5402000
:100FE000194B1B794BB3184B1B681B681A7982424B
:100FF00025D970B4144A93605C881C44A34220D263
:101000000025012607E0104A93600FE01A78134488
:101010003546A3420CD25A78042AF7D19A788242F4
:10102000F4D1DA788A42F1D1002DECD1012002E02E
:10103000054A9360002070BC704700207047002074
:1010400070470020F7E700BF6C0D4020F8B504465C
:101050000021FFF7C5FF064608B93046F8BD0F4B23
:101060001B685B6853F82470FB689847014620466C
:10107000FFF7B6FF06460028EFD0084B9C68052511
:1010800029462046FFF77EFF044618B1807802F01B
:1010900029F9F5E77B689847DFE700BF6C0D402032
:1010A00070B50646FFF79CFF0346C8B10D4B9C6820
:1010B000052529462046FFF765FF044640B1828892
:1010C000C178807802F0ACFA03460028F1D107E03D
:1010D000044B1B685B6853F826301B68984703462F
:1010E000184670BD6C0D4020014B9868704700BFDA
:1010F0006C0D402008B501F0C3FF08BD38B50D4B9D
:101100001B7983B10B4B1B681B681B795BB10024F7
:10111000084D2046FFF79AFF0134E4B22B681B68A4
:101120001B79A342F5D8034B00221A7101229A8140
:1011300038BD00BF6C0D402008B502F041F8FFF744
:10114000DDFF08BD38B50D4B1B79B3B10B4B1B68E8
:101150001A6812798AB10024084D06E00134E4B21D
:101160002B681A681279A24207D95B6853F82430B9
:101170001B69002BF2D09847F0E738BD6C0D40207A
:1011800070B5984B00229A811A615A611B7813F04E
:10119000800F1CD113F0600F00F07781914B1B780A
:1011A00003F01F03012B00F089828E4B1B7803F0A4
:1011B0001F03022B00F0AA828A4B1B78C02B00F081
:1011C000CD82C12B00F0E1820023184670BD854A14
:1011D000D288002A00F0F08213F0600FDED113F005
:1011E0001F0307D17F494978062916D0082900F046
:1011F000F18059B1012B00F00F81022BCED1794B38
:101200005B78002B00F032810023FCE1022AC5D17B
:101210000221754802F060F850E1724B5B88DCB245
:10122000190A01390E2900F23282DFE811F00F00AD
:101230001E007A003002300240004E0030023002C0
:1012400030023002300230023002710001F0F4FF4F
:1012500028B9664B9868017802F03EF82CE0634BA1
:101260001868017802F038F826E001F0E5FF80B157
:101270005E4B9B685B7CA34290D95C4B1B6953F827
:101280003400418802F028F8564B9B6802225A70BD
:1012900012E0564B1B685B7CA3427FF67FAF534B3B
:1012A0005B6853F83400418802F016F8ECE74F4BC6
:1012B000D868017802F010F84A4BDA889B8993428B
:1012C00040F2FC80474B9A81F8E001F0B5FF88B905
:1012D000464B9B685B7CA3427FF660AF434B1B6928
:1012E00053F83400418801F0F7FF3E4B9B6807221A
:1012F0005A70E1E73D4B1B685B7CA3427FF64EAF23
:101300003A4B5B6853F83400418801F0E5FFECE7A5
:10131000364B586900283FF441AF418801F0DCFFAB
:10132000CAE7DBB2022B00F0498207D8002B4AD073
:10133000012B7FF433AF2E4A212110E0032B0CD078
:10134000EE2B7FF42BAF2B4B19788BB29A4238BF20
:10135000D1B2284801F0C0FFAEE7274A0C21013A7C
:101360002648002312F8014F20F8024F0133DBB268
:101370008B42F7D3490002311D4800F8381F01F0B5
:10138000ABFF184B9B78032B96D11D4805F0C4F892
:10139000002891D01A4B1B789A1ED2B2FC2A8BD807
:1013A00013F0010F88D1124981F83830144B5B7863
:1013B00081F83930134B9A73422A09D812491348DD
:1013C00005F04CFD78E70421114801F085FFD8E7CE
:1013D00000BF71E7012A7FF4E1AE01210D4801F061
:1013E0007BFF6BE074D54020780D4020D004402076
:1013F0007C054020BC04402088704000B40540209B
:1014000074D440206C0D402076D44020B605402096
:10141000B0054020700D40209F4949780A297FF48B
:10142000ECAE012A7FF4BAAE9C4B1B79002B3FF443
:10143000B5AE994B1C79994B1D682B681B79A3425B
:101440007FF6ACAE00212046FFF7CAFD00283FF42E
:10145000A5AE6B6853F82430DB6898478F4B03F8D0
:10146000100F0121184601F037FF27E0022A7FF410
:1014700095AE894B187901F063FF884B23F8120F62
:101480000221184601F028FF18E013F01F0340F076
:10149000AE80814A5278013A082A00F2A880DFE83B
:1014A00002F00FA61FA605A6A6A650007A4BDB8861
:1014B000002B7FF473AE7A4A774B1A61012384E6DE
:1014C000754BDB88002B7FF469AE734B5B88012B77
:1014D0007FF464AE714A938923F002039381EDE7B0
:1014E0006D4BDB88002B7FF459AE6B4B5B88022B76
:1014F00040F0CF8001F0A0FE00283FF44FAE664BD5
:101500001B79002B7FF44AAEFFF7F8FD624B9B88F6
:101510001B0A013B032B00F2CF80DFE803F0020639
:101520000A0E604A5C4B1A61C8E75F4A5A4B1A615F
:10153000C4E75E4A584B1A61C0E75D4A564B1A61D0
:10154000BCE7554BDB88002B7FF428AE01F092FE00
:1015500000283FF423AE01F06FFE002834D04E4B3C
:101560009A78544B9B685B7C9A423FF717AEFFF723
:10157000C5FD494B9B78494A1371002B9ED001F061
:101580005BFE48B345490B796FF060421A44494B02
:101590001B6903EBC2030B60404B1B681B681B7984
:1015A000002B8BD0002425463C4E29462046FFF7D1
:1015B00077FD00283FF4F2AD0134E4B233681B68D4
:1015C0001B79A342F1D879E7334B9A78394B1B68E2
:1015D0005B7C9A42CBDDE1E530490B796FF06042EC
:1015E0001A44344B5B6803EBC2030B60D4E7012B56
:1015F0000DD0022B7FF4D2AD274B5B78012B23D08B
:10160000032B31D00023002B7FF4DFADC6E5224A47
:1016100052780B2AEDD1204BDB88002B7FF4BEAD36
:101620001E4B1B79002B3FF4B9AD1B4B1C795D8819
:101630002046FFF70BFD00283FF4B0ADE9B220468D
:10164000FFF72EFD0346DEE7134BDB88002B7FF40C
:10165000A5AD114B5B88002B7FF4A0AD0E4B187924
:1016600001F0F8FE0346CEE70B4BDB88002B7FF43E
:1016700095AD094B5B88002B7FF490AD064C20792B
:1016800002F0D2F8207901F065FE0346BBE70023A3
:10169000B9E70023B7E700BF74D540206C0D4020A8
:1016A000CD0F40001D394000393940005539400008
:1016B00069394000D00440200023A4E7404B1B7947
:1016C000002B3FF479AD3F4B1C793D4B1D682B68D7
:1016D0001B79A3427FF670AD00212046FFF780FC06
:1016E00000283FF462AD6B6853F82450EB689847CC
:1016F00001462046FFF774FC00283FF456ADAB6866
:101700009847034600287FF460AD4EE52C4B1B79CB
:10171000002B3FF451AD2A4B1B681A681279002A3E
:101720003FF44AAD0024264E5B6853F82450EB6822
:10173000984701462046FFF753FC00283FF43CAD94
:10174000AB689847034600287FF43FAD0134E4B20C
:1017500033681A681279A242E6D82DE5194B5B78F6
:10176000EE2B01D0002330E5164B9B88042B01D0D3
:1017700000232AE514480388124AD188994228BFD9
:10178000194601F0A9FD01231FE50E4B5B78EE2BF6
:1017900001D0002319E50B4B9B88052B01D00023BA
:1017A00013E50A480388074AD188994228BF194699
:1017B00001F092FD012308E5002306E5044ACDE58A
:1017C0006C0D402074D5402094044020000440203B
:1017D000A00540200B4B1B682BB9EFF310833BB1E6
:1017E0000022084B1A71074A1368013313607047CF
:1017F00072B6BFF35F8F0022034B1A700122014BB8
:101800001A71F0E7880D4020F8054020074B1A6850
:10181000013A1A601B6843B9044B1B792BB10122B2
:10182000034B1A70BFF35F8F62B67047880D40207C
:10183000F8054020054A136B23F07003184310632A
:10184000936E13F0080FFBD0704700BF00060E40E8
:10185000032811D0042812D002280CBF4FF4807145
:101860000021084A136B23F440730B431363936EF8
:1018700013F0080FFBD070474FF44071F1E74FF4BD
:101880000071EEE700060E40054A136B23F00303D8
:1018900018431063936E13F0080FFBD0704700BF1E
:1018A00000060E40164B1A6B22F003021A639B6E61
:1018B00013F0080F0AD14FF4805311498A6E12F0C9
:1018C000080F03D1013BF9D1012070470C4A136B7B
:1018D00023F0700318431063936E13F0080F0AD1BE
:1018E0004FF4805306498A6E12F0080F05D1013B70
:1018F000F9D101207047002070470020704700BFD9
:1019000000060E40174A136B23F0030343F0010354
:101910001363936E13F0080F0AD14FF480531149EB
:101920008A6E12F0080F03D1013BF9D101207047F4
:101930000C4A136B23F0700318431063936E13F07B
:10194000080F0AD14FF4805306498A6E12F0080F2F
:1019500005D1013BF9D101207047002070470020DC
:10196000704700BF00060E40174A136B23F0700348
:1019700018431063936E13F0080F0AD14FF480538D
:1019800011498A6E12F0080F03D1013BF9D10120F1
:1019900070470D4A136B23F0030343F002031363F4
:1019A000936E13F0080F0AD14FF4805306498A6EE4
:1019B00012F0080F05D1013BF9D10120704700203A
:1019C00070470020704700BF00060E40164A136B98
:1019D00023F0700318431063936E13F0080F0AD1BD
:1019E0004FF4805310498A6E12F0080F03D1013B67
:1019F000F9D1012070470C4B1A6B42F003021A63B5
:101A00009B6E13F0080F0AD14FF4805306498A6E7B
:101A100012F0080F05D1013BF9D1012070470020D9
:101A200070470020704700BF00060E40012803D019
:101A3000044A054B1A607047034A9168034B0B43F5
:101A40009360F5E7080000A510180E40000010A5EF
:101A5000054B5B6913F0800F04D0044B986EC0F304
:101A6000C01070470020704710180E4000060E404E
:101A70000E490B6A0E4A1A430A620A46936E13F421
:101A8000003FFBD0094A116A0A4B0B4043F45C1338
:101A900018431062936E13F4003FFBD0034A116A9F
:101AA000054B0B4043F45C131362704700060E4075
:101AB000080037008FFFC8FFFFFFC8FE0B490B6A05
:101AC0000B4A1A430A620A46936E13F4003FFBD096
:101AD000064A116A074B0B4043F45C13184310622B
:101AE000936E13F4003FFBD0704700BF00060E401A
:101AF000080037008FFFC8FF034A116A034B0B40F1
:101B000043F45C131362704700060E4087FFC8FF62
:101B1000024B986E00F40030704700BF00060E4084
:101B200007490A6A22F00302064B1343000280B2FF
:101B3000184308620A46936E13F0010FFBD07047FA
:101B400000060E400100370003490A6A22F0030232
:101B5000024B13430B62704700060E400200370031
:101B6000034A136A23F0030343F45C1313627047C0
:101B700000060E40024B186A00F00200704700BFDA
:101B800000060E40024B986E00F00100704700BF47
:101B900000060E40A0B90E48036A090289B20D4A38
:101BA0001A400D4B1343194301620246936E13F022
:101BB000010FFBD0064A116A084B0B4313627047B2
:101BC00003490B6A064A1A40064B13430B627047DF
:101BD00000060E40FCFFC8FF01003700000037017F
:101BE000FCFFC8FE0200370138B9084A116A084BE9
:101BF0000B4043F45C1313627047044A116A054BAF
:101C00000B4043F45C131362704700BF00060E40A4
:101C1000FEFFC8FFFDFFC8FF024B986E00F4803046
:101C2000704700BF00060E40064B1B6A30B923F018
:101C3000807343F45C13034A1362704743F080736C
:101C4000F7E700BF00060E4010B40B4C4FF00053F6
:101C5000A3620A4B03EA004040F00050D2B21043A6
:101C6000090201F47C510843A0622246936E13F0EE
:101C7000020FFBD010BC704700060E400000FF07AB
:101C80004FF00052014B9A62704700BF00060E40B1
:101C9000024B986E00F00200704700BF00060E4035
:101CA0004FF44412034BDA611A46936E13F0400F5F
:101CB000FBD0704700060E40024AD36923F48033FC
:101CC000D361704700060E40024B986E00F0400052
:101CD000704700BF00060E403F281ED81F280CD8B2
:101CE000114B9A6901238340934318D0012303FACF
:101CF00000F00D4B18610020704720380A4BD3F8D4
:101D000008210123834093430BD0012303FA00F001
:101D1000054BC3F8000100207047012070470020E8
:101D200070470020704700BF00060E403F2822D8B1
:101D30001F280ED8114B9A6901238340934301D089
:101D400000207047012303FA00F00C4B586100207B
:101D500070472038094BD3F808210123834093436F
:101D600001D000207047012303FA00F0034BC3F8B1
:101D70000401002070470120704700BF00060E409C
:101D80006FF003020A4B1A611A46936923F00303AA
:101D900013F1040FF9D14FF0FF32054BC3F80021C6
:101DA0001A46D2F80831B3F1FF3FFAD1704700BFAD
:101DB00000060E406FF00302084B5A611A46936901
:101DC00033F00303FBD14FF0FF32044BC3F804217F
:101DD0001A46D2F80831002BFBD1704700060E409E
:101DE0003F2817D81F2809D80B4B9A69012303FAFB
:101DF00000F0104214BF184600207047064BD3F87D
:101E000008212038012303FA00F0104214BF1846BD
:101E1000002070470020704700060E40094A02EB80
:101E20008002136C23F47F63194311644FF48073B1
:101E300003FA00F0034B1A68024202D09A6E104275
:101E4000F9D0704700060E40094A02EB8002136C7D
:101E500023F00703194311644FF4807303FA00F071
:101E6000034B1A68024202D09A6E1042F9D07047B2
:101E700000060E400C4B00F1100243F822109A6E3F
:101E80004FF4807303FA00F0024209D14FF48053FB
:101E900005498A6E024205D1013BFAD10120704703
:101EA000002070470020704700060E4041F00101FD
:101EB0000C4B00F1100243F822109A6E4FF480731D
:101EC00003FA00F0024209D14FF4805305498A6EAB
:101ED000024205D1013BFAD1012070470020704732
:101EE0000020704700060E4041F002010C4B00F14B
:101EF000100243F822109A6E4FF4807303FA00F038
:101F0000024209D14FF4805305498A6E024205D13D
:101F1000013BFAD101207047002070470020704734
:101F200000060E4041F003010C4B00F1100243F893
:101F300022109A6E4FF4807303FA00F0024209D126
:101F40004FF4805305498A6E024205D1013BFAD114
:101F500001207047002070470020704700060E40A7
:101F600041F004010C4B00F1100243F822109A6E6C
:101F70004FF4807303FA00F0024209D14FF480530A
:101F800005498A6E024205D1013BFAD10120704712
:101F9000002070470020704700060E404FF4807309
:101FA00003FA00F0014B1860704700BF00060E40B6
:101FB0004FF4807303FA00F0014B5860704700BF84
:101FC00000060E404FF4E062014B1A60704700BFFC
:101FD00000060E404FF4E062014B5A60704700BFAC
:101FE00000060E40022807D8044B9A684FF480730D
:101FF00003FA00F0104070470020704700060E40C2
:10200000000200F47060014B9863704700060E40B8
:10201000000200F4706040F00100014B98637047CB
:1020200000060E402022014B1A60704700060E4049
:102030002022014B5A60704700060E40014B186683
:10204000704700BF00060E40014B5866704700BF46
:1020500000060E40014BD86E704700BF00060E40D0
:10206000014B986E704700BF00060E40034B1A6F7D
:10207000C0F3120010431867704700BF00060E40FF
:10208000034A136FC0F3120023EA0003136770477B
:1020900000060E40044A136923F004031361BFF3E2
:1020A0004F8F30BF704700BF00ED00E07047104A0F
:1020B000136F23F4C00343F480031367116A0D4BBD
:1020C0000B431362936E13F0080FFBD04FF4FA73B7
:1020D00000BF013BFCD1064A136A13F0080FFBD086
:1020E000034A136F23F4C00343F48003136770475C
:1020F00000060E4004003700064A136943F004034B
:102100001361054B054A1A609B68BFF34F8F20BFD0
:1021100030BF704700ED00E010180E40040000A52D
:10212000024A116A024B0B431362704700060E40CD
:1021300000003702034A136A23F0007343F45C1370
:102140001362704700060E40024A116A024B0B43AD
:102150001362704700060E4000003704034A136AFA
:1021600023F0806343F45C131362704700060E4053
:1021700020B9054A054BC3F8E4207047044A034BD5
:10218000C3F8E420704700BF00434D5000060E40E6
:1021900001434D50014BD3F8E800704700060E4054
:1021A000C31F162B0AD920381C280FD8012303FA85
:1021B00000F0074BC3F8380100207047012303FAF1
:1021C00000F0034BC3F8180100207047012070474E
:1021D00000060E4008B5C31F162B04D920381C2852
:1021E00017D9012008BD164BD3F8202101238340C5
:1021F000134201D0012008BD114AC2F81431D2F8AF
:102200002021134201D1002008BDFFF7C9FF0120A2
:1022100008BD0B4BD3F8402101238340134201D06A
:10222000012008BD064AC2F83431D2F840211342D9
:1022300001D1002008BDFFF7B3FF012008BD00BF9A
:1022400000060E40014BD3F81C01704700060E40FB
:10225000014BD3F82001704700060E40014BD3F824
:102260003C01704700060E40014BD3F84001704717
:1022700000060E402DE9F843431E042B00F20681B0
:10228000DFE813F00500050015001500F500804A91
:10229000136923F00403136101227E4B1A70BFF30C
:1022A0005F8F62B6BFF34F8F30BFBDE8F88304463F
:1022B00003280CBF00204FF40010FFF7F7FE72B6A2
:1022C000BFF35F8F0022734B1A700122724B1A709A
:1022D000724B1F6A1D6B724AD2F800809E6A714A67
:1022E0003A431A6205F00309B9F1010F40F2888000
:1022F00025F0030141F0010119631A46936E13F0B2
:10230000080FFBD011F0700F08D021F07001634B63
:1023100019631A46936E13F0080FFBD0FFF7B0FC59
:102320005E4A936E13F4003FFBD05C4A116A5E4B29
:102330000B4043F45C131362936E13F4803FFBD0A5
:1023400028F47063564A1360042C5BD0514C01236F
:102350002370BFF35F8F62B6FFF7A9FE72B6BFF3BB
:102360005F8F0023237017F0020F54D04B4A136A7B
:102370004E4919404E4B0B431362116A4D4B0B40B3
:1023800043F45C1313624C4B3340002B6DD046F08A
:102390000056424B9E620221B9F1020F04D13F4A1E
:1023A000936E13F0020FFBD03C4A136B23F07003C3
:1023B00005F0700003431363936E13F0080FFBD016
:1023C000374BC3F80080A3F5C0631D631A46936EB4
:1023D00013F0080FFBD0314A936E0B42FCD02E4B0A
:1023E00000221A705B681BB1984700222A4B5A6082
:1023F0000122284B1A70BFF35F8F62B6BDE8F883E5
:1024000029467FE7A2F5C062116A2C4B0B4043F4CA
:102410005C1313629AE717F0010FB4D01F4B1B6ACD
:1024200013F0010F0BD11D490B6A254A1A40254BA9
:1024300013430B620A46936E13F0010FFBD0174B48
:102440001B6A13F0807F08D1144A116A1E4B0B439C
:102450001362936E13F4803FFBD0104A116A154B40
:102460000B4043F45C1313628DE7002194E7084AA4
:10247000136943F004031361144A154B1A600122D7
:10248000044B1A70BFF35F8F62B630BFBDE8F883AC
:1024900000ED00E0F8054020900D402000060E40C1
:1024A000000C0E4008003700FFFFC8FEFCFFC8FE0E
:1024B0000200370187FFC8FF0000FF07FEFFC8FFCB
:1024C000FCFFC8FF0100370000003701040000A531
:1024D00010180E40024B187880F00100704700BFC2
:1024E000900D402008B5074B1B7813B900B1804709
:1024F00008BD72B6BFF35F8F0022034B1A70014B09
:10250000586008BD900D4020F805402010B48901A6
:102510004318022444504FF0FF319962196A5A60FF
:1025200010BC70470123C0F8C0307047C0F8C41019
:10253000704700EB81118A600020704789010523F4
:1025400043507047890102234350704700EB8111CB
:102550000869704700EB81114869704700EB8111F1
:102560008869704700EB8111C869704700EB8111E1
:102570004A61704700EB81118A61704700EB81115D
:10258000CA61704700EB81114A62704700EB81110C
:102590008A62704700EB8111C86A704700EB8111B5
:1025A000086A7047F0B486B00224019408240294AB
:1025B00020240394802404940A9CE40B0594B0EB3B
:1025C000510F14D84C0CA04217D2012501AF57F877
:1025D0002540B1FBF4F4260C84420AD386420DD97F
:1025E0000135052DF3D1002006B0F0BC7047002066
:1025F000FAE70020F8E70120F6E700252AB106A94E
:1026000001EB850151F8141C1160002BF3D01D6003
:102610000120E9E7C0F8C8107047C0F8CC10704737
:10262000D0F8D0007047D0F8D400704719B9044BE7
:10263000C0F8E4307047034BC0F8E430704700BF87
:10264000004D4954014D495482B0EFF31083B3FA61
:1026500083F35B09019372B6BFF35F8F00220C4BCB
:102660001A70019B01210B4A116023B1084B1970AC
:10267000BFF35F8F62B60222074B1A60074A00233E
:10268000136153619381064A137002B0704700BF13
:10269000F8054020208203406081034074D540202B
:1026A000A00D40200522034B1A704FF40022024B6C
:1026B0001A607047A00D4020F081034082B00322D1
:1026C0000F4B1A70EFF31083B3FA83F35B09019396
:1026D00072B6BFF35F8F00220A4B1A7001980A4945
:1026E00001220A60094B1A6008220A601A6028B1A8
:1026F0000122044B1A70BFF35F8F62B602B07047BD
:10270000A00D4020F805402060810340F081034087
:1027100008B5024B1B6903B1984708BD74D540202A
:1027200030B585B0EFF31083B3FA83F35B090193FF
:1027300072B6BFF35F8F00224F4B1A70019B0121CD
:102740004E4A116023B14C4B1970BFF35F8F62B6D4
:102750004B4B1B78032B47D0494B5B88494A9489E4
:10276000E41AA4B2C4B9464A91880B449BB2938040
:10277000444AD2889A423CD0414B9B79002B38D1B5
:10278000404B5B69002B52D0984700284FD0002265
:102790003B4B5A803B4B9C893F2C48D90022384BFD
:1027A0009A714024374B9A68354B5D88EFF310835C
:1027B000B3FA83F35B09029372B6BFF35F8F002114
:1027C0002D4B19700298304B1B6813F0020F32D05A
:1027D00028B10122284B1A70BFF35F8F62B6042222
:1027E000274B1A7005B030BDFFF792FFFFF72CFFA3
:1027F000F8E70422224B1A70EFF31083B3FA83F345
:102800005B09039372B6BFF35F8F00221A4B1A70F5
:10281000039A10231D490B6090310B60002AE1D010
:102820000122154B1A70BFF35F8F62B6DAE70122FF
:10283000134B9A71B6E7BFF34F8F44B12A44144B40
:1028400012F8011B03F8011BD9B2A142F8D3BFF360
:102850004F8F0B4B5A8814445C8001230B4A136042
:10286000903213600028BDD01A46034B1A70BFF394
:102870005F8F62B6B6E700BFF805402020820340B4
:10288000A00D402074D5402030810340608103407A
:10289000000010A0037D13F0010F13D010B50C46FB
:1028A000037D6FF300030375036853B1064951F8C4
:1028B000221011F4807F18BF42F080028168204608
:1028C000984710BD704700BF00810340431E03EBD3
:1028D00043015F4A02EBC102127F12F0010F00F0C8
:1028E000B680F0B583B00A46594901EBC20251697E
:1028F0001269914278D0521AB2F5803F1BD8170462
:10290000544C54F8205015F4807F18D054F82050BF
:10291000C5F302150824AC40013C144217D047F01F
:10292000080703EB43044A4D05EBC404257F6FF30E
:10293000410525770BE04FF480320027E0E754F89B
:102940002050C5F3C125012D37D047F01407424C64
:1029500004EB001403EB43053D4E06EBC505ED68A3
:1029600029446160EFF31081B1FA81F149090191C5
:1029700072B6BFF35F8F002538490D70019DE16885
:1029800011F0100F22D147F02107A76003EB43009D
:1029900006EBC0014869104448618A614FF000703D
:1029A00000FA03F32E4A9361002D4ED001222B4BE7
:1029B0001A70BFF35F8F62B647E054F82050C5F33A
:1029C00002150824AC40A242C1D8BEE72DB10121B6
:1029D000224A1170BFF35F8F62B603EB43021C49BA
:1029E00001EBC202516911611A4A52F8202012F417
:1029F000807F21D003EB4302154901EBC202127F15
:102A000012F0020F18D00122164B43F82020303B61
:102A100053F8203013F4803F02D0134B43F82020AA
:102A20000122124B43F820204FF4805202FA00F0AA
:102A3000A3F5F873986108E0024603EB4303002115
:102A40000B4800EBC300FFF725FF03B0F0BD704754
:102A5000A00D40200081034000830340F805402082
:102A6000008003406081034090810340F081034077
:102A7000A80D40202DE9F04385B0FFF72BFD20B9CC
:102A8000A34B5B6813F0010F11D0A14B5B6813F0EF
:102A9000040F16D09E4B04229A60D3F8043813F426
:102AA000405F0BD003F00AFC05B0BDE8F08372B6BE
:102AB000BFF35F8F0022974B1A70F5E7FEF742FBDA
:102AC000F0E7934B5B6813F0020F31D1904B5B68DA
:102AD00013F4805F24D0904B10221A6008221A60F1
:102AE000F03B1B6813F0040F28D18C4B1B6813F0CC
:102AF000010F04D08A4B1B6813F0010F7FD1874B65
:102B00001B6813F0020F7DD1844B1B6813F0080F74
:102B100040F01881814B1B6813F0100F40F02581A5
:102B2000804E01237A4A4FF0007E4FF4805C67E1CB
:102B30000222774B9A60FEF705FBB5E77A4B1B78CC
:102B4000002B3FD1754B1B68C3F30A53082B3ED1B2
:102B5000764A774B774813F8011B02F8011F83422E
:102B6000F9D1FEF70DFB002837D00422724B1A6012
:102B7000724B93F90030002B35DB704BDB88002B58
:102B80003AD0694B00229A805A8001211970102195
:102B9000694B1960EFF31083B3FA83F35B09019378
:102BA00072B6BFF35F8F5B4B1A70019B644A116072
:102BB000002B3FF479AF0122564B1A70BFF35F8FA1
:102BC00062B671E7FFF7A4FDFFF73EFDBAE7FFF736
:102BD00069FD0422584B1A6066E7FFF763FD042283
:102BE000554B1A6060E7504B00229A805A800222AF
:102BF0001A70FFF795FD57E7FFF760FD54E7FFF701
:102C00008FFD51E7484B1B78012B0BD0022B04D0D2
:102C1000042B02D0FFF746FD01E0FFF779FDFFF737
:102C200013FD41E73D4B1868C0F30A50434B9B89A5
:102C30003D4A54882218934201DA1B1B98B23F4B3D
:102C40009A6878B1631E1A44394B13F8011B02F8D5
:102C5000011FD9B28142F8D30444A4B2324B5C8044
:102C600040280CD0354B9C815B6913B198470028F4
:102C70002ED00222304B1A60FFF720FD14E72F4BB5
:102C8000DA88294B9B8823449A42EBDD2B4B9B89A6
:102C9000A34223D0284B02221A6010221A60EFF3BD
:102CA0001083B3FA83F35B09029372B6BFF35F8FAD
:102CB0000021184B1970029B21490A60002B3FF438
:102CC000F3AE0122134B1A70BFF35F8F62B6EBE6CF
:102CD000FFF7E8FC0222184B1A60E5E6174B5B6928
:102CE0004BB1984768B1104B9A8859880A449A802A
:102CF00000225A80CEE7FFF7D5FC02220E4B1A6065
:102D0000D2E6FFF7CFFC02220B4B1A60CCE600BFE5
:102D100000800340F80540202082034030810340BA
:102D2000C081034034810340A00D402073D5402072
:102D3000000010A0080010A06081034074D540205E
:102D4000F081034008229F4B1A60303B1B6813F050
:102D5000010F7FF4A9AE9C4B1B78032B7FF4A4AE2C
:102D60004FF40022994B1A609EE61022954B1A6090
:102D7000303B1B6813F0020F7FF496AE924B1B782A
:102D8000012B07D0042B7FF48FAE4FF400228F4B22
:102D90001A6089E6FFF792FC86E68D4B03EB001381
:102DA000DA6812F0010F7FF47FAE8A4A5161DB6866
:102DB0001B0C08D0844A7C00E51902EBC505696943
:102DC000CB1A6B612B61FFF781FD6DE6824B01220F
:102DD00049F803207B4949F801204FF4804249F823
:102DE000032007EB4707024600217C4800EBC700A1
:102DF000FFF750FD58E601330436052B00F0AB8099
:102E0000D8B21D465F1EB84614690EFA07F10C428F
:102E100002D054682142C0D111690CFA05F529424B
:102E2000E9D04FEA830906F19004D6F8901011F02A
:102E3000010F03D0316811F0010FC7D1216811F4DF
:102E4000805FD8D0316811F4405FD4D14FF4805204
:102E5000614B49F80320A3F508735D6108EB48084E
:102E6000594B03EBC80898F81C206FF3820288F8CE
:102E70001C205B4A59F8023023F4007349F80230F1
:102E8000524B4FF4002249F803204FF4802249F8B6
:102E9000032009E608224F4B9A60504D002401267A
:102EA0000134E4B2224631462846FFF7F3FC1835D8
:102EB000042CF5D1FEF722F9464B1A6822F07F0266
:102EC0001A601A6842F080021A6045490868454A4B
:102ED000024042F030020A600A6842F002020A60D0
:102EE000DA6942F00102DA61EFF31082B2FA82F29B
:102EF0005209039272B6BFF35F8F00213A4A1170F4
:102F00000399324A04201060022010604FF480526E
:102F10009A6129B10122344B1A70BFF35F8F62B6F8
:102F2000FFF792FBC0E52B4BD3F8002822F4804238
:102F3000C3F8002801225A6110229A61D3F80028B0
:102F400042F48042C3F8002800221F4B83F8682017
:102F500003F0A8F9A8E51F4B5B6813F0080F99D19F
:102F60001C4B1B6913F0010F04D01A4B5B6813F064
:102F7000010FD8D1174B1B6913F0100F3FF494AD1C
:102F8000144B5B6813F0100F3FF48EAD114AD2F86A
:102F9000003823F48043C2F800381346D3F80428DD
:102FA00012F4804F03D15A6812F0010FF6D0094A8B
:102FB0001023536101239361034A82F8683003F0C0
:102FC00077F971E560810340A00D4020F081034056
:102FD000008303400080034020820340A80D40206E
:102FE0000081034083E6FFFFF80540200020704782
:102FF00070B483B0EFF31083B3FA83F35B090193EA
:1030000072B6BFF35F8F00221A4B1A70019D012226
:10301000194B83F86820194AD2F8003823F480430A
:10302000C2F80038D2F8043813F4804FFAD0134BAA
:103030001A6822F480721A6008269E610121996143
:1030400010229A6104249C61022098619E609C6019
:103050009860D9609A60D3F8002842F48042C3F89F
:10306000002825B1034B1970BFF35F8F62B603B020
:1030700070BC7047F8054020A00D40200080034040
:1030800010B582B0EFF31083B3FA83F35B090193B9
:1030900072B6BFF35F8F0022384B1A70019C22205A
:1030A000FEF71AFEFDF7C2FE354BA02283F822235D
:1030B00004225A604FF48020FEF7D8FF314B4FF0C6
:1030C0000072C3F80028D3F8002842F40042C3F885
:1030D00000281A6822F480521A601A6822F44062AA
:1030E0001A60D3F8002822F48042C3F800281A4658
:1030F000D2F8043813F4804FFAD0234B1A7F02F031
:10310000FE026FF382021A7793F8342002F0FE0277
:103110006FF3820283F8342093F84C2002F0FE0211
:103120006FF3820283F84C2093F8642002F0FE02D1
:103130006FF3820283F864201249D1F8002842F428
:103140008042C1F8002893F869308BB90E4B0122F8
:1031500083F86920002283F86820FFF749FF2CB12B
:103160000122064B1A70BFF35F8F62B602B010BD2A
:103170000022054B83F86820EFE700BFF8054020E8
:1031800000E100E000800340A00D40200A4BD3F88E
:10319000002822F48042C3F800281A6842F48072A2
:1031A0001A60D3F8002842F48042C3F800280022B5
:1031B000024B83F86820704700800340A00D402038
:1031C00010B582B0EFF31083B3FA83F35B09019378
:1031D00072B6BFF35F8F0022144B1A70019C144A21
:1031E000D2F8003823F48043C2F80038FFF7CEFF4E
:1031F000104B93F869301BB100220E4B83F8692005
:103200000B4AD2F8003823F40043C2F80038FDF727
:1032100016FE2220FEF78AFD2CB10122034B1A7004
:10322000BFF35F8F62B602B010BD00BFF80540204B
:1032300000800340A00D4020034BD3F8040810F495
:10324000405018BF0120704700800340084B1A68A7
:1032500022F080021A601A6822F07F0200F07F00DC
:1032600002431A601A6842F080021A60704700BF79
:1032700000800340024B186800F07F00704700BFD9
:1032800000800340024B186AC0F3CA00704700BFB9
:1032900000800340024B186AC0F30D00704700BF66
:1032A000008003400A4B93F8683003B17047012255
:1032B000074B83F86820074BD3F8002822F480429C
:1032C000C3F800281A6842F400721A60EEE700BFE3
:1032D000A00D402000800340014B98609981704709
:1032E00074D5402000F00F02042A00D9704770B551
:1032F0001148C369012101FA02F423EA0403C361FE
:1033000000F5807050F8223023F0020340F822309C
:10331000561E0A4C04F1080306FA01F5A81903EB3E
:10332000C000FFF7B7FA354404EBC504237F6FF301
:103330008203237770BD00BF00800340A00D4020B2
:1033400000F00F00024B53F82000C0F3C04070475C
:10335000C081034000F00F03042B5DD8354A52F8BA
:10336000232012F4002F59D110B483B0591E01EB61
:103370004104314A02EBC402127F12F0040F4FD114
:1033800012F0010F50D1EFF31082B2FA82F252091B
:10339000019272B6BFF35F8F0024284A1470019C1B
:1033A00010F0800F18D1264951F8232022F4007222
:1033B00041F823204021234A42F823104FF40021F2
:1033C000903242F82310002C32D001201B4B187091
:1033D000BFF35F8F62B624E01B4A52F8232012F439
:1033E000405FE0D001EB4101134A02EBC1010A7FCB
:1033F00042F004020A774FF48052144941F8232026
:1034000002FA03F3124A936184B101200B4B187046
:10341000BFF35F8F62B604E0002070470120704761
:10342000012003B010BC70470020FAE70120F8E744
:103430000120F6E7C0810340A00D4020F8054020A0
:10344000008103406081034030810340F0810340EC
:103450000080034000F00F00042851D810B5431E2F
:1034600003EB43012C4A02EBC102127F12F0040F5E
:1034700048D00A46284901EBC202117F6FF382014E
:10348000117782004FF48051244C44F82010814081
:10349000A4F508746161224951F8201011F4002F3D
:1034A00014D02049515811F0400F06D040201E4939
:1034B00050504FF48020903150504FF40020174965
:1034C00050501A48115841F40071115003EB430257
:1034D000114901EBC202127F12F0010F01D101204C
:1034E00010BD5800C21801EBC202147F6FF3000434
:1034F0001477034401EBC3018B689847012010BD8A
:10350000002070478200064951F8201011F4002F66
:10351000C7D1012010BD00BFA00D40202082034074
:10352000C08103403081034060810340008103403B
:1035300000F00F0004285FD8F0B583B0344CE56983
:10354000012484402C4259D0324C54F8204014F4C9
:10355000002F56D1441E04EB44062F4D05EBC60543
:103560002D7F15F0040F4ED1EFF31085B5FA85F5D8
:103570006D09019572B6BFF35F8F0026274D2E703F
:10358000019F04EB4405244E06EBC5052D7F15F085
:10359000010F09D0002F38D00122204B1A70BFF341
:1035A0005F8F62B600202AE004EB44051A4E06EB5A
:1035B000C5052E7F46F001062E772FB10126174D47
:1035C0002E70BFF35F8F62B6134D67003E1905EB97
:1035D000C606F260336100227261B261089AB2607D
:1035E000002B08BF41F00101337F61F341033377C2
:1035F000FFF76CF9012002E000207047002003B0C3
:10360000F0BD0020FBE70020F9E70020F7E700BF4E
:1036100000800340C0810340A00D4020F8054020F9
:103620002DE9F04F83B000F00F04042C00F2E68087
:10363000774BDD690123A3402B4040F0E48001F08B
:103640000305022D22D0032D27D0012D01D0002308
:10365000D5E04FF0010E6F4E06EB840556F824C0FE
:103660006D4F0CEA0707C90201F4C05140B20028AF
:10367000B8BF4FF48073A2F5806080B2B0F57C4F84
:103680000ED3082A2BD95200013A0BE0022C94BF2A
:103690004FF0000E4FF0010EDDE74FF0000EDAE7BD
:1036A00040F2FF72B2FA82F241EA8E011943C2F18E
:1036B0001C0341EA031323F4D06323F00303DB0468
:1036C000DB0C3B4346F824300127A740BFB2032C54
:1036D0001CD8524A04234E484FF0010E06E00F2238
:1036E000E0E7013B043AD9B28C420FD2C6690EFA28
:1036F00003F10E42F5D00F43BFB2C66926EA0101BD
:10370000C161116821F002011160EAE704EB440392
:10371000434E06EBC306DFF80C91DFF8F4804FF060
:10372000010A1EE001EB41033E4A02EBC3039C6821
:10373000002C6AD02B6813F4807F18BF40F0800003
:1037400001EB4101374B03EBC101024649690120FE
:10375000A047002353E0013404351836E3B2042BAC
:103760004AD8E0B247FA04F313F0010FF3D0611E18
:1037700001EB410309EBC3031A7F02F0010E6FF363
:1037800000021A772B6843F002032B60D8F81C2044
:103790000AFA04F31343C8F81C302B6B13F4802F80
:1037A000C0D02B6843F400732B60BEF1000FD2D061
:1037B00056F80C3C56F8082C9A1A46F80C2C2B6834
:1037C00013F4807F18BF40F0800056F810BC56F804
:1037D00014CC01EB410109EBC101097F56F8183CFB
:1037E0000093ABEB02036244C1F34001FFF7A0FE7C
:1037F00003460028AFD102E0012300E00023184671
:1038000003B0BDE8F08F0023F9E70023F7E700BF1E
:10381000008003400081034083E6FFFF10810340E6
:10382000A80D4020A00D402070B500F00F02541EDE
:103830004FF00073A34016494B61164B03EB021384
:1038400000259D604FF4805393404B6110F0800F32
:1038500008D104EB440401210F4800EBC400FFF73A
:1038600019F870BD93000D4818440D4D1D444FF4D8
:10387000005601F5E071194404E02E600B6813F462
:10388000005FFBD1036813F4405FF6D1E1E700BFAE
:103890000080034000830340A80D40203081034096
:1038A000F081034000F00F0004282BD838B5184BE6
:1038B000DA6901238340134226D0431E03EB4304FD
:1038C000144A02EBC402127F12F0010F1ED1124CF7
:1038D00054F8200010F4002F02D112F0040F0ED083
:1038E0000C485C00E21800EBC202157F45F00105B0
:1038F0001577234400EBC3008160012038BD884761
:10390000012038BD00207047002038BD002038BDA0
:1039100000800340A00D4020C0810340054A136889
:1039200023F4406343F400631360136843F40053CB
:103930001360704700800340054A136823F4406316
:1039400043F400631360136843F4804313607047CB
:1039500000800340034A136823F4406343F4006388
:103960001360704700800340F0B48EB0204C6E4668
:1039700004F13007354620686168A268E3680FC526
:1039800010342E46BC42F5D12068286023792B7173
:10399000184BDA6922F00102DA61174A11681748F8
:1039A000084041F2301101431160116841F00201F9
:1039B0001160DA6942F00102DA611A6822F44062A9
:1039C00042F400621A601A6842F400421A600C4A1B
:1039D0006B460DF1350013F8011B02F8011F8342FD
:1039E000F9D14FF48042074B1A600EB0F0BC70471B
:1039F00098704000008003400081034083E6FFFF91
:103A0000FFFF0FA02082034010B500F073FF68B9DC
:103A1000094B187800F0FE0001F00CF8044600F0A5
:103A200097FF38B9201C18BF012010BD00F090FF8F
:103A3000012010BD012010BDF905402010B582B055
:103A400044F620630193019B8BB10124204601F0D1
:103A500089FEFFF7D9FF034630B1019B013B01937B
:103A6000019B002BF2D10223184602B010BD0223A5
:103A7000FAE738B504460D4600F002FF08BB1D4BBF
:103A8000187800F0FE0000F0D5FFF0B9200A00F031
:103A9000D1FFF0B9E0B200F0CDFFF0B900F02AFF9D
:103AA000F8B9144B187840F0010000F0C3FFE0B9FA
:103AB000284601F041F800F04BFF003018BF01200C
:103AC00038BD00F045FF012038BD00F041FF012066
:103AD00038BD00F03DFF012038BD00F039FF012066
:103AE00038BD00F035FF012038BD00F031FF012066
:103AF00038BD00BFF905402010F4004F54D170B517
:103B000005460E461446531E13F4004F01D0032001
:103B100070BD00F0B5FED0B9244B187800F0FE005F
:103B200000F088FFB8B9280A00F084FFB8B9E8B2FD
:103B300000F080FFB8B900F0DDFEC0B91B4B18786B
:103B400040F0010000F076FFA8B9CCB922E000F007
:103B5000FFFE012070BD00F0FBFE012070BD00F0F3
:103B6000F7FE012070BD00F0F3FE012070BD00F0F3
:103B7000EFFE012070BD00F0EBFE012070BD2E466F
:103B8000012C0DD0751C304600F0D0FF013CA4B2D2
:103B9000002CF4D100F0DCFE003018BF012070BD15
:103BA000304600F0C9FFF5E702207047F9054020D4
:103BB0000AB9042070472DE9F04190B0154600F095
:103BC0003F02C2F14002954203DD032010B0BDE880
:103BD000F0811F460E46044600F052FEF0B92E4B0F
:103BE000187800F0FE0000F025FFD8B9200A00F098
:103BF00021FFD8B9E0B200F01DFFD8B9B04618F8DF
:103C0000010B00F017FFC8B9A8EB0603DBB2AB420B
:103C1000F5D300F09DFEA8B10120D7E700F098FE93
:103C20000120D3E700F094FE0120CFE700F090FEE2
:103C30000120CBE700F08CFE0120C7E700F088FEF2
:103C40000120C3E7FFF7FAFE012820D00FB90020BA
:103C5000BCE72A4669462046FFF74EFF08B102201E
:103C6000B4E732789DF800309A4212D10023013334
:103C7000DBB29AB2954208D9F15C10AA1A4412F844
:103C8000402C9142F3D00220A0E700209EE70120C3
:103C90009CE702209AE700BFF905402070B582B08A
:103CA00004460D46164600F0EBFDB8B9224B1878D5
:103CB00000F0FE0000F0BEFEA8B9200A00F0BAFE37
:103CC000A8B9E0B200F0B6FEA8B9284600F0B2FEEE
:103CD000A8B900F03DFEB0B1012002E000F038FECE
:103CE000012002B070BD00F033FE0120F9E700F0C2
:103CF0002FFE0120F5E700F02BFE0120F1E700F098
:103D000027FE0120EDE7FFF799FE012810D00EB93C
:103D10000020E6E70DF107012046FFF7AAFE012883
:103D200008D09DF80700A84214BF02200020D8E761
:103D30000120D6E70220D4E7F905402010F4004F17
:103D400033D12DE9F04105460E4614461F46531E59
:103D500013F4004F2BD18318B3F5004F02DD05207B
:103D6000BDE8F08132B34FF040083F2C11D93B46FB
:103D7000424631462846FFF71BFF01281DD040353B
:103D8000ADB24036403CA4B2002CEED10020BDE8DC
:103D9000F0813B46224631462846FFF709FF0128BD
:103DA00014BF00200120BDE8F081032070470420EB
:103DB000BDE8F0810020BDE8F0810120BDE8F08180
:103DC0002DE9F04190B080460F4600250DF13F04EB
:103DD0004026A8B26A1E42440DF1FF3312F8011FBB
:103DE00003F8011FA342F9D13B4632466946FFF76B
:103DF000DFFE012805D04035B5F5004FE9D10020A0
:103E000000E0022010B0BDE8F08108B54FF4004298
:103E100001460020FFF770FE003018BF012008BDEA
:103E2000014B1878704700BF100E402000F00700CB
:103E3000034B1870400060F05F00024B1870704731
:103E4000100E4020F9054020014B1870704700BF4C
:103E5000180E402030B97F22064B5A7029B1054B0D
:103E600099707047034A5070F8E71722014B9A7017
:103E7000704700BF180E402038B505460C4600F0CC
:103E80008DFB2A2000F064FC284600F061FC2046EF
:103E900000F05EFC00F0EAFB38BD08B500210846E2
:103EA000FFF7EAFFAA210C20FFF7E6FFAA210D2069
:103EB000FFF7E2FF08BD08B500210C20FFF7DCFF8B
:103EC00000210D20FFF7D8FF00210220FFF7D4FFCB
:103ED00000210320FFF7D0FF00210420FFF7CCFFD3
:103EE00000210620FFF7C8FF00210720FFF7C4FFCD
:103EF00000210820FFF7C0FF08BD08B500210C20F5
:103F0000FFF7BAFF00210220FFF7B6FF00210320D0
:103F1000FFF7B2FF00210420FFF7AEFF08BD08B590
:103F200000210D20FFF7A8FF00210620FFF7A4FFC6
:103F300000210720FFF7A0FF00210820FFF79CFFCA
:103F400008BD70B582B006460D4600F027FB2A205A
:103F500000F0FEFB044638B100F088FB9DF8073006
:103F60002B70204602B070BD304600F0F1FB0446D5
:103F70000028F1D100F04CFB2B2000F0E9FB0446B7
:103F80000028E9D10DF1070000F064FCE4E770B50A
:103F900006460D4600F002FB2A2000F0D9FB04463D
:103FA00018B100F063FB204670BD304600F0D0FB36
:103FB00004460028F5D1284600F0CAFB0446F0E785
:103FC00070B582B00F4B1E5C0F4B1E700025022493
:103FD00003E00134E4B20A2C11D00DF107012046B0
:103FE000FFF7AFFF0543EDB29DF80730002BF0D08F
:103FF00031462046FFF7CBFF0543EDB2E9E72846FF
:1040000002B070BDD0704000180E402070B504465C
:104010000D46C2B1FF210C20FFF72EFF3A4E7178FA
:104020000A20FFF729FFB1780B20FFF725FF202199
:104030000120FFF721FF062C64D8DFE804F0574A7F
:104040003D3023160900AA210C20FFF715FFF2E7E7
:1040500000210220FFF710FF00210320FFF70CFFD3
:1040600029460420FFF708FF70BD00210220FFF75A
:1040700003FF29460320FFF7FFFE00210420FFF77E
:10408000FBFE70BD00210220FFF7F6FE294603204B
:10409000FFF7F2FE29460420FFF7EEFE70BD294629
:1040A0000220FFF7E9FE00210320FFF7E5FE0021D3
:1040B0000420FFF7E1FE70BD29460220FFF7DCFE79
:1040C00000210320FFF7D8FE29460420FFF7D4FE85
:1040D00070BD29460220FFF7CFFE29460320FFF7D7
:1040E000CBFE00210420FFF7C7FE70BD2946022049
:1040F000FFF7C2FE29460320FFF7BEFE2946042033
:10410000FFF7BAFE70BD00BF180E402070B5044620
:104110000D46C2B1FF210D20FFF7AEFE3A4E717879
:104120000A20FFF7A9FEB1780B20FFF7A5FE20219A
:104130000120FFF7A1FE062C64D8DFE804F0574AFF
:104140003D3023160900AA210D20FFF795FEF2E766
:1041500000210620FFF790FE00210720FFF78CFECC
:1041600029460820FFF788FE70BD00210620FFF7D2
:1041700083FE29460720FFF77FFE00210820FFF776
:104180007BFE70BD00210620FFF776FE2946072042
:10419000FFF772FE29460820FFF76EFE70BD294624
:1041A0000620FFF769FE00210720FFF765FE0021CA
:1041B0000820FFF761FE70BD29460620FFF75CFE70
:1041C00000210720FFF758FE29460820FFF754FE7C
:1041D00070BD29460620FFF74FFE29460720FFF74E
:1041E0004BFE00210820FFF747FE70BD2946062040
:1041F000FFF742FE29460720FFF73EFE294608202A
:10420000FFF73AFE70BD00BF180E402070B505469E
:104210000C461646FFF74FFEE6B1FF210C20FFF7D4
:104220002BFEFF210D20FFF727FE424E71780A205A
:10423000FFF722FEB1780B20FFF71EFE20210120A0
:10424000FFF71AFE062D74D8DFE805F05B4A393017
:104250001F160D00AA210C20FFF70EFEAA210D202B
:10426000FFF70AFEEEE721460420FFF705FE214690
:104270000820FFF701FE70BD21460320FFF7FCFD7B
:1042800021460720FFF7F8FD70BD21460320FFF708
:10429000F3FD21460420FFF7EFFD21460720FFF73D
:1042A000EBFD21460820FFF7E7FD70BD2146022007
:1042B000FFF7E2FD21460620FFF7DEFD70BD214637
:1042C0000220FFF7D9FD21460420FFF7D5FD214646
:1042D0000620FFF7D1FD21460820FFF7CDFD70BD78
:1042E00021460220FFF7C8FD21460320FFF7C4FD49
:1042F00021460620FFF7C0FD21460720FFF7BCFD41
:1043000070BD21460220FFF7B7FD21460320FFF7CD
:10431000B3FD21460420FFF7AFFD21460620FFF73D
:10432000ABFD21460720FFF7A7FD21460820FFF738
:10433000A3FD70BD180E402010B50C461146012893
:1043400008D010B102280AD010BD1A462046FFF747
:104350005DFE10BD1A462046FFF7D8FE10BD1A4676
:104360002046FFF753FF10BD10B5634B7F225A70F4
:1043700017229A70092800F0918021D8042865D06E
:104380000FD801285BD0002852D0022865D003281E
:1043900006D10022584B19780620FFF7B7FE10BD52
:1043A00010BD062867D05FD307286BD0082806D138
:1043B0000022514B19780120FFF728FF10BD10BDD6
:1043C000EC2800F0908018D8E1286ED00AD9E228B5
:1043D00072D0E72810D10122474B19780320FFF74C
:1043E00095FE10BD0A2806D10122434B19780620FC
:1043F000FFF70CFF10BD10BD10BDF12863D00AD926
:10440000F22869D0F32812D101223B4B19780420FD
:10441000FFF7FCFE10BDF02808D1374B02229A703E
:10442000012219780020FFF7F1FE10BD10BD10BD6C
:104430000022314B19780620FFF7E8FD10BD00225D
:104440002D4B19780120FFF7E1FD10BD00222A4B0A
:1044500019780120FFF75AFE10BD0022264B19786B
:104460000320FFF7D3FD10BD0022234B1978032052
:10447000FFF74CFE10BD00221F4B19780620FFF7F6
:10448000C5FE10BD1C4C002221781046FFF7BEFD72
:10449000002221780120FFF739FE10BD0122164BC2
:1044A00019780320FFF7B2FE10BD0022124B1978D5
:1044B0000220FFF7ABFE10BD01220F4B197803203D
:1044C000FFF724FE10BD0C4B02229A7001221978CE
:1044D0000420FFF79BFE10BD0122074B1978002036
:1044E000FFF794FE10BD044B02229A700122197846
:1044F0000320FFF70BFE10BD180E402010B582B050
:10450000044602A9002341F8043D042247F6C07086
:10451000FFF7F2FA18B100BF012002B010BD019BF5
:104520002360FAE700B583B002A9084B41F8043DC7
:104530000123042247F6C070FFF700FC20B100BF42
:10454000012003B05DF804FB0020FAE75500AABB88
:1045500000B583B002A94FF0FF3341F8043D0123B9
:10456000042247F6C070FFF7E9FB20B100BF01202D
:1045700003B05DF804FB0020FAE700BF064B2022E1
:104580005A6340225A635A6942F020025A615A69BA
:1045900042F040025A617047000E0E4010B51B4CAD
:1045A000636943F040036361012001F0DBF8636954
:1045B00043F020036361052001F0D4F8E36B13F0AE
:1045C000200F01D10C2010BDE36B13F0400F01D17F
:1045D0000C2010BD236943F040032361052001F046
:1045E000C1F8236943F020032361052001F0BAF8E4
:1045F000E36B13F0200F01D00D2010BDE36B03F02F
:104600004003002B14BF0D20002010BD000E0E40F3
:1046100010B5154C636943F040036361012001F05C
:10462000A1F8636943F020036361052001F09AF863
:10463000236943F040032361052001F093F82369C7
:1046400043F020032361052001F08CF8E36B13F0A5
:10465000200F01D00E2010BDE36B03F04003002BB0
:1046600014BF0E20002010BD000E0E4010B5154CDA
:10467000236943F020032361012001F073F82369CB
:1046800043F040032361012001F06CF8636943F0BB
:1046900020036361052001F065F8636943F040037E
:1046A0006361052001F05EF8E36B13F0200F01D188
:1046B0000F2010BDE36B03F04003002B0CBF0F2055
:1046C000002010BD000E0E4010B50F4C236943F0C2
:1046D00020032361012001F045F8236943F04003E2
:1046E0002361012001F03EF8636943F02003636118
:1046F000052001F037F8236943F0200323610520EA
:1047000001F030F810BD00BF000E0E4010B50F4C88
:10471000236943F020032361012001F023F863693A
:1047200043F040036361012001F01CF8636943F02A
:1047300020036361052001F015F8236943F020038D
:104740002361052001F00EF810BD00BF000E0E40E1
:104750002DE9F04105460826234C4FF001080527B6
:1047600018E0636943F040036361404600F0FAFFDC
:104770006D00EDB2636943F020036361384600F0D9
:10478000F1FF236943F020032361042000F0EAFFD6
:10479000013E07D015F0800FE3D1236943F04003B9
:1047A0002361E2E7104C636943F040036361012039
:1047B00000F0D8FF636943F020036361052000F037
:1047C000D1FFE36B03F04003002B0CBF0024042453
:1047D000054A136943F020031361052000F0C2FF6E
:1047E0002046BDE8F08100BF000E0E402DE9F843E1
:1047F000804608254FF00009124C01270526636901
:1048000043F040036361384600F0ACFF636943F056
:1048100020036361304600F0A5FFE36BC3F3801310
:1048200043EA49035FFA83F9236943F020032361D4
:10483000042000F097FF013DE1D188F80090BDE829
:10484000F88300BF000E0E4008B5FFF7CFFFFFF75B
:104850003BFF08BD08B5FFF7C9FFFFF757FF08BDCD
:10486000064B10225A6308225A635A6942F010021A
:104870005A615A6942F008025A617047000E0E40B0
:1048800010B51B4C636943F008036361012000F01D
:1048900069FF636943F010036361052000F062FF64
:1048A000E36B13F0100F01D10C2010BDE36B13F07C
:1048B000080F01D10C2010BD236943F008032361C8
:1048C000052000F04FFF236943F01003236105200A
:1048D00000F048FFE36B13F0100F01D00D2010BD66
:1048E000E36B03F00803002B14BF0D20002010BD64
:1048F000000E0E4010B5154C636943F00803636168
:10490000012000F02FFF636943F01003636105206D
:1049100000F028FF236943F008032361052000F01D
:1049200021FF236943F010032361052000F01AFFE3
:10493000E36B13F0100F01D00E2010BDE36B03F0FA
:104940000803002B14BF0E20002010BD000E0E40E7
:1049500010B5154C236943F010032361012000F0CA
:1049600001FF236943F008032361012000F0FAFEF0
:10497000636943F010036361052000F0F3FE63698F
:1049800043F008036361052000F0ECFEE36B13F0D5
:10499000100F01D10F2010BDE36B03F00803002BB3
:1049A0000CBF0F20002010BD000E0E4010B50F4CA4
:1049B000236943F010032361012000F0D3FE236933
:1049C00043F008032361012000F0CCFE636943F04B
:1049D00010036361052000F0C5FE236943F0100356
:1049E0002361052000F0BEFE10BD00BF000E0E408A
:1049F00010B50F4C236943F010032361012000F030
:104A0000B1FE636943F008036361012000F0AAFE70
:104A1000636943F010036361052000F0A3FE23697E
:104A200043F010032361052000F09CFE10BD00BF81
:104A3000000E0E402DE9F04105460826234C4FF0AC
:104A40000108052718E0636943F0080363614046E5
:104A500000F088FE6D00EDB2636943F010036361FE
:104A6000384600F07FFE236943F0100323610420E1
:104A700000F078FE013E07D015F0800FE3D12369E6
:104A800043F008032361E2E7104C636943F0080335
:104A90006361012000F066FE636943F01003636107
:104AA000052000F05FFEE36B03F00803002B0CBF52
:104AB00000240424054A136943F010031361052000
:104AC00000F050FE2046BDE8F08100BF000E0E4011
:104AD0002DE9F843804608254FF00009124C0127C4
:104AE0000526636943F008036361384600F03AFE27
:104AF000636943F010036361304600F033FEE36BFB
:104B0000C3F3C00343EA49035FFA83F9236943F01F
:104B100010032361042000F025FE013DE1D188F857
:104B20000090BDE8F88300BF000E0E4008B5FFF707
:104B3000CFFFFFF73BFF08BD08B5FFF7C9FFFFF741
:104B400057FF08BD70B5234C1023636308236363CC
:104B5000636943F010036361636943F008036361B1
:104B6000192000F0FFFDE36B13F0080F17D10925A2
:104B70000526236943F010032361304600F0F2FD5F
:104B8000636943F010036361304600F0EBFDE36BB3
:104B900013F0080F03D16B1E13F0FF05E9D10D4B85
:104BA000DB6B13F0080F01D10B2070BD094C23699A
:104BB00043F008032361052000F0D4FD052000F038
:104BC000D1FD636943F008036361052000F0CAFD6D
:104BD000002070BD000E0E4070B5234C202363638F
:104BE00040236363636943F020036361636943F0B7
:104BF00040036361192000F0B5FDE36B13F0400F33
:104C000017D109250526236943F020032361304687
:104C100000F0A8FD636943F020036361304600F0B3
:104C2000A1FDE36B13F0400F03D16B1E13F0FF05E2
:104C3000E9D10D4BDB6B13F0400F01D10B2070BDA0
:104C4000094C236943F040032361052000F08AFDED
:104C5000052000F087FD636943F040036361052090
:104C600000F080FD002070BD000E0E4059B10139EA
:104C700050F8043BB3F1FF3F07D10139B1F1FF3FD9
:104C8000F6D101207047002070470020704708B51A
:104C9000C0F308031BB98021FFF7E8FF08BD00201F
:104CA00008BD08B5C0F30C0323B94FF40061FFF74A
:104CB000DDFF08BD002008BD08B54FF4FA21024809
:104CC000FFF7D4FF08BD00BF00C0400008B54FF497
:104CD00040514FF48000FFF7C9FF08BDC0F3080042
:104CE000B0FA80F040097047C0F30C00B0FA80F0D1
:104CF00040097047034B0344B3F5FA1F2CBF002053
:104D0000012070470040BFFFA0F58000B0F5404F84
:104D10002CBF00200120704708B501210148FFF792
:104D2000A5FF08BD00C0400008B501F0CDF908B1ED
:104D3000602008BD01F0CEF908B1612008BD01F086
:104D4000CFF908B1622008BD01F0D0F908B16320A5
:104D500008BD01F0D1F908B1642008BD01F0D2F915
:104D600008B1652008BD01F0D3F960B901F0DCF9A4
:104D700058B901F0DFF950B901F0D0F9002814BF9B
:104D80007420002008BD662008BD702008BD712079
:104D900008BD2DE9F041A4B080460E46174668468E
:104DA00000F076FF054620B90136B0453DD84446AF
:104DB0000BE0FFF7B9FF03460028F5D01DE09BB9D3
:104DC000B5B904F58044B44233D8A4F58000800B13
:104DD00024AB034413F8803C002FF0D0002BEFD11C
:104DE00000F032FF0546EBE700F040FF0546E7E73D
:104DF000FFF79AFF03460028E3D0184624B0BDE829
:104E0000F081A3B908F58048B0450CD8A8F5800317
:104E100024AA02EB933313F8803C002FF1D0002B2F
:104E2000F0D17223E9E70023E7E7C223E5E7732324
:104E3000E3E7684600F02CFF0028E7D0FFF774FF97
:104E400003460028E2D0D8E708B50122024903480A
:104E5000FFF79FFF08BD00BFFFBF5F0000C040001D
:104E600008B5012202494FF48000FFF792FF08BD08
:104E7000FF7F400008B5002202494FF48000FFF791
:104E800088FF08BDFF7F400008B5002202490348A3
:104E9000FFF77FFF08BD00BFFFBF5F0000C04000FD
:104EA0002DE9F84304460D4601F010FBC4F3080356
:104EB0001BB181231846BDE8F88306464FF4007203
:104EC0002946204601F09AFF002800F0CC802046B9
:104ED000FFF7DDFE08B98423ECE72946204600F001
:104EE0001DFE78B9BFF34F8FBFF36F8F86B94FF4B4
:104EF00000722946204601F081FF002814BF832359
:104F00000023D7E7FFF710FF03460028EAD0D1E7D8
:104F1000564BD3F88020C2F34E3E02F00700043017
:104F2000C2F3C90CBCFA8CF808F01F08BFF34F8F0E
:104F30005A6922F480325A614FF0FF3606FA00F9BE
:104F40000EFA00F006FA08F60CFA08F81F46624658
:104F5000434643EA0001C7F87412013A3344B2F100
:104F6000FF3FF6D10EF1FF3E4844BEF1FF3FEED1C8
:104F7000BFF34F8FBFF36F8F4FF400722946204667
:104F800001F03CFFB8BB394BD3F88070C7F34E3605
:104F900007F007000430C7F3C907B7FA87FE0EF021
:104FA0001F0EBFF34F8F4FF0FF3404FA00FC06FAD8
:104FB00000F004FA0EF407FA0EFE1D463A46734658
:104FC00043EA0001C5F86012013A2344B2F1FF3F01
:104FD000F6D1013E6044B6F1FF3FEFD1BFF34F8FF2
:104FE000224A536943F480335361BFF34F8FBFF3B9
:104FF0006F8F00235EE71D4BD3F88070C7F34E36EA
:1050000007F007000430C7F3C907B7FA87FE0EF0B0
:105010001F0EBFF34F8F4FF0FF3404FA00FC06FA67
:1050200000F004FA0EF407FA0EFE1D463A467346E7
:1050300043EA0001C5F86012013A2344B2F1FF3F90
:10504000F6D1013E6044B6F1FF3FEFD1BFF34F8F81
:10505000064A536943F480335361BFF34F8FBFF364
:105060006F8F832326E7002324E700BF00ED00E0D5
:105070002DE9F041044601F029FA694B2344B3F5C8
:10508000FA1F03D386231846BDE8F0810546C4F312
:105090000C030BB18223F6E72046FFF702FE08B1AE
:1050A0000023F0E7600A00F02BFD60B9BFF34F8FDB
:1050B000BFF36F8F6DB92046FFF7F3FD00280CBFDB
:1050C00085230023DFE7FFF72FFE03460028EDD0FE
:1050D000D9E7544BD3F88020C2F34E3702F00700D3
:1050E0000430C2F3C90EBEFA8EFC0CF01F0CBFF3E5
:1050F0004F8F5A6922F480325A614FF0FF3505FA1A
:1051000000F807FA00F005FA0CF50EFA0CFC1E4642
:105110007246634643EA0001C6F87412013A2B4412
:10512000B2F1FF3FF6D1013F4044B7F1FF3FEFD16D
:10513000BFF34F8FBFF36F8F2046FFF7B2FDB8B3B9
:10514000384BD3F88070C7F34E3607F007000430B1
:10515000C7F3C907B7FA87FE0EF01F0EBFF34F8FD4
:105160004FF0FF3404FA00FC06FA00F004FA0EF4E3
:1051700007FA0EFE1D463A46734643EA0001C5F89B
:105180006012013A2344B2F1FF3FF6D1013E604480
:10519000B6F1FF3FEFD1BFF34F8F224A536943F47B
:1051A00080335361BFF34F8FBFF36F8F00236AE7E4
:1051B0001C4BD3F88070C7F34E3607F0070004305D
:1051C000C7F3C907B7FA87FE0EF01F0EBFF34F8F64
:1051D0004FF0FF3404FA00FC06FA00F004FA0EF473
:1051E00007FA0EFE1D463A46734640EA0301C5F82B
:1051F0006012013A2344B2F1FF3FF6D1013E604410
:10520000B6F1FF3FEFD1BFF34F8F064A536943F426
:1052100080335361BFF34F8FBFF36F8F852332E726
:105220000040BFFF00ED00E02DE9F04F83B00546E0
:105230000C4601F04BF90190C5F30C0323B1822316
:10524000184603B0BDE8F08F661EB5F5C00F01D259
:10525000F92E01D9C123F3E7002C00F0948005F565
:105260000055664C4FF0FF3871E0FFF75DFD0346D7
:10527000002878D0E4E7D4F88030C3F34E3C03F044
:1052800007000430C3F3C909B9FA89FA0AF01F0A02
:10529000BFF34F8F636923F48033636108FA00FB27
:1052A0000CFA00F008FA0AFE09FA0AFA4A465346CE
:1052B00043EA0001C4F87412013A7344B2F1FF3FAB
:1052C000F6D10CF1FF3C5844BCF1FF3FEED1BFF3E7
:1052D0004F8FBFF36F8F3846FFF7E3FC002854D0A1
:1052E000D4F88030C3F34E3E03F007000430C3F31C
:1052F000C90CBCFA8CF909F01F09BFF34F8F08FAEB
:1053000000FA0EFA00F008FA09F70CFA09F96246F9
:105310004B4643EA0001C4F86012013A3B44B2F143
:10532000FF3FF6D10EF1FF3E5044BEF1FF3FEED1FC
:10533000BFF34F8F636943F480336361BFF34F8FD3
:10534000BFF36F8F731E05F50055D6B11E46A5F548
:1053500000573846FFF7A5FC0028F3D1780A00F083
:10536000CFFB002881D1BFF34F8FBFF36F8F019B1D
:10537000002B80D13846FFF794FC0028E2D185232A
:105380005EE700235CE700235AE71C4BD3F88060FC
:10539000C6F34E3E06F007000430C6F3C906B6FA5F
:1053A00086F707F01F07BFF34F8F4FF0FF3404FA63
:1053B00000FC0EFA00F0BC4006FA07F71D46324624
:1053C0003B4643EA0001C5F86012013A2344B2F1BA
:1053D000FF3FF6D10EF1FF3E6044BEF1FF3FEED13C
:1053E000BFF34F8F054A536943F480335361BFF3D2
:1053F0004F8FBFF36F8F852322E700BF00ED00E0E2
:1054000008B50648FFF734FE034608B1184608BD44
:10541000FA210348FFF708FF0346F7E700E05F00C3
:1054200000C0400008B506214FF48000FFF7FCFEE5
:1054300008BDF8B5064600F061F818B900BFC025F0
:105440002846F8BDFFF716FD05460028F8D1FFF7FE
:10545000E9FF05460028F3D14FF480040F4FA4F56F
:10546000800131442046FFF71BFD054698B904F53D
:105470000074BC42F3D1FFF7F3FC05460028DFD1EE
:10548000304600F051F8044600F028F88442D7D0A6
:1054900000BFC325D4E700BFD2E700BF00C0400073
:1054A000400A704700B583B001200090034B0022F2
:1054B000034900F073F803B05DF804FBFC3F1F00E4
:1054C00000C04000014B1868704700BFFCFF5F0040
:1054D000014B1868704700BFFCBF400000B583B0A7
:1054E000012000904BF6FC730022034900F056F8AF
:1054F00003B05DF804FB00BFFFBF400070B582B091
:1055000004464BF6FC75284400F091FF0646012046
:1055100000902B460022214600F040F8864214BF3E
:105520000020012002B070BD10B582B001240094AB
:105530004BF6FC7300220146204600F02FF802B023
:1055400010BD10B5044B1C68FFF7C8FFA04214BF84
:105550000020012010BD00BFFCBF4000024B4FF0F7
:10556000FF321A605A607047FC054020054B5A68AC
:105570005040C0B2044951F8200080EA122058601F
:10558000704700BFFC054020DC704000024B5868AB
:10559000C0435860704700BFFC0540202DE9F04132
:1055A0000D4617461E469DF8188080B946B1EC1985
:1055B0003E44354414F8010BFFF7D8FFAC42F9D153
:1055C000B8F1000F06D1054B5868BDE8F081FFF730
:1055D000C5FFEBE7FFF7DAFFF5E700BFFC0540206A
:1055E000014B1868704700BFFC054020014B186054
:1055F000704700BFFC054020014B5868704700BF52
:10560000FC054020014B1879704700BFFC05402085
:10561000014B5879704700BFFC054020014B987939
:10562000704700BFFC054020014BD879704700BF90
:10563000FC054020044B5B6803701A0A42701A0C88
:1056400082701B0EC3707047FC05402000BF00BF76
:10565000FEE70023034A13600121034A1170034A45
:10566000136070478CD5402090D54020200E4020FC
:10567000014B1868704700BF8CD540201B4B1B782E
:10568000FBB100BF1A4B1860B0F5A06F27D00DD842
:1056900040F20113984216D0B0F5817F05D1154A2A
:1056A000137843F00203137070477047B0F5C06F72
:1056B0000FD0B0F5006F05D10E4A137843F01003F8
:1056C0001370704770470B4A137843F0010313704F
:1056D0007047084A137843F0040313707047054A73
:1056E000137843F008031370704700BF90D5402033
:1056F0008CD54020200E402008B5EC20FEF734FE6B
:10570000FEE700BF0023024A1360024A136070479D
:10571000ACD5402098D540200023044A1360044AA9
:105720001360044A1370044A13707047A8D54020D0
:105730009CD54020A0D54020A1D54020074B19681A
:1057400000EB4000064BA3FB0030C008034A13687F
:10575000CB1A23F07F439842F9D8704718E000E055
:10576000CDCCCCCC70B5064600F04AFD05463224BF
:1057700004FB06F400F044FD401B8442FAD870BDDF
:1057800058B170B5054600244FF47A763046FFF7DD
:10579000E9FF0134A542F9D170BD704710B5144B33
:1057A0001B788BB100F02CFD124B1860124B1B685C
:1057B000C01A124B1B6898428CBF01220022104B6A
:1057C0001A700F4B187810BD044600F019FD0A4BF3
:1057D0001860084B18604CF2503000FB04F0074B87
:1057E00018600122024B1A700022054B1A70E8E77C
:1057F000A0D540209CD54020A8D54020A4D540204D
:10580000A1D54020014B1878704700BFA1D540209A
:10581000034B1878002203490A701A70704700BFC2
:10582000A1D54020A0D5402038B50546FFF7F0FFB0
:10583000044608B9204638BD2846FFF71FFFF9E7A0
:10584000064B1868064B1B68C01A064BA3FB0030BA
:10585000800900EB80008000704700BF9CD540208D
:10586000A8D54020D34D621000207047054B002280
:105870001A705A709A70DA701A715A719A71DA71D4
:105880001A7270472C0E4020194B1B6813F4002F1E
:1058900014BF01220022027013F4802F14BF0122D2
:1058A0000022427013F4003F14BF012200228270D4
:1058B00013F4803F14BF01220022C27013F0080FBE
:1058C00014BF01220022027113F0040F14BF012241
:1058D0000022427113F0020F14BF012200228271D4
:1058E00013F0010F14BF01230023C371704700BFE1
:1058F000080C0E400B4B1B6813F0806F14BF012285
:105900000022027013F4803F14BF00220122427073
:10591000C3F30322C27013F0010F14BF012300234D
:1059200083707047000C0E4010B5134B1B7813B9F1
:10593000114B5B78CBB1114A0023D3609361536163
:10594000136102F1200302F50872002143F8041FDD
:105950009342FBD109490024CC610C624FF40672DA
:105960000C3101F07BFA204610BD4FF40672044959
:1059700001F074FA012010BD040640202C0E4020D6
:10598000380E402030B405460E4B1B7813B90D4B32
:105990009B7883B10C4B0024C3F82442C3F82842FF
:1059A000C3F82C42C3F8304203F509730FCB85E8E6
:1059B0000F0030BC7047054B0FCB85E80F0001206E
:1059C000F7E700BF040640202C0E40205010402076
:1059D000114B1878B0B95B78EBB90F4A907898B949
:1059E000D378C3B9107988B95379A3B9907978B9C4
:1059F0000A4B1B787BB9D27962B9074B187A80F0D1
:105A000001007047002070471846704718467047DD
:105A100018467047184670472C0E40200406402058
:105A200030B583B040F0B44040EA0124FFF71EFFD8
:105A3000314B1C60FFF7ECFE304D012408E04FF4C1
:105A40007A70FFF7ABFE20BB9DF80730002B48D1E2
:105A50006846FFF719FF9DF8003003B12C709DF8E0
:105A6000013003B16C709DF8023003B1AC709DF849
:105A7000033003B1EC709DF8043003B12C719DF834
:105A8000053003B16C719DF80630002BD7D0AC7196
:105A9000D5E70122194BDA71312003B030BD174B25
:105AA0005B780BB11120F8E7144B9B780BB11220F7
:105AB000F3E7124BDB780BB11320EEE70F4B1B79AA
:105AC0005BB90E4B5B790BB11520E6E70B4B9B796D
:105AD000002B14BF16200020DFE71420DDE7002094
