:020000040040BA
:1000000008DC4020AD0140002902400029024000E8
:10001000290240002902400029024000000000009F
:100020000000000000000000000000002902400065
:10003000290240000000000029024000290240007F
:1000400071024000710240007102400071024000E4
:1000500071024000710240007102400071024000D4
:100060007102400000000000710240007102400077
:1000700071024000710240007102400071024000B4
:1000800071024000710240007102400071024000A4
:100090007102400071024000710240007102400094
:1000A0007102400071024000710240007102400084
:1000B0007102400071024000710240007102400074
:1000C00071024000710240000D2F4000710240009B
:1000D00000000000710240000000000071024000BA
:1000E0007102400071024000710240007102400044
:1000F0007102400071024000710240007102400034
:100100007102400071024000710240007102400023
:10011000710240000000000000000000000000002C
:100120007102400071024000710240007102400003
:1001300071024000000000007102400071024000A6
:1001400010B5054C237833B9044B13B10448AFF311
:1001500000800123237010BD800B402000000000B0
:1001600000C040000C4B43B10C480D4910B5AFF333
:1001700000800C48036823B910BD0A48036833B9EE
:100180007047094B002BF7D0BDE810401847064BCD
:10019000002BF5D0184700BF0000000000C0400051
:1001A000840B4020907F40000000000008B5174BF2
:1001B000174A9A4210D0174B144A9A420CD2013B6C
:1001C0009B1A23F0030304331344114951F8040B21
:1001D00042F8040B9A42F9D10F4B104A9A420AD2C4
:1001E000013B9B1A23F0030304331344002142F81C
:1001F000041B9342FBD10A4A0A4B23F07F0393600E
:1002000007F0CCFA00F0BEFDFEE700BF0000402082
:10021000907F4000800B402008D64020800B40207B
:1002200000ED00E00000400000B585B0EFF305836D
:1002300003930E4B5A6B02929A6B01929B6A009346
:10024000F02004F08BFA00BF42F2107005F054FE6B
:1002500006F0BCFC039B0393029B0293019B01935A
:10026000009B009305B05DF804FB00BF00ED00E0CB
:1002700000B583B0EFF305830193F22004F06EFA2A
:1002800000BF42F2107005F037FE06F09FFC019BA4
:10029000019303B05DF804FB014A024B1A607047FA
:1002A00000093D0030044020014A024B1A607047AB
:1002B00000093D0030044020164B984213D9164BDC
:1002C000984215D9154B984216D9154B984217D913
:1002D000144B984218D9144B984294BF134A144AAD
:1002E000144B1A6070474FF08062124B1A607047CF
:1002F000114A104B1A607047104A0E4B1A60704733
:100300000F4A0C4B1A6070474FF00422094B1A60D9
:10031000704700BFBFF35E017FE7BD023FDB1C04F7
:10032000FFCE7B05BFC2DA067FB6390800050004A0
:1003300000060004000C0E4000010004000200044E
:100340000003000430B587B00023059301930293A6
:10035000039304934FF40042654B5A6005A805F0DF
:1003600085FE9DF81730062B03D006238DF8173035
:1003700000BF01238DF814308DF8153000238DF85F
:100380001630059806F058F900B100BFBFF34F8F43
:10039000BFF36F8F574B0022C3F85022BFF34F8F2C
:1003A000BFF36F8F5A6942F400325A61BFF34F8F27
:1003B000BFF36F8F01A806F085F848B99DF80B30A0
:1003C0003BB106F0EBF800B100BF06F0EDFB00E03A
:1003D00000BFBFF34F8FBFF36F8F464BD3F8902210
:1003E00022F00102C3F89022D3F8942222F00102F5
:1003F000C3F89422BFF34F8FBFF36F8F0A2001F031
:10040000B7FE0B2001F0B4FE0C2001F0B1FE10206D
:1004100001F0AEFE112001F0ABFE00F0E9FE002875
:1004200062D1354B10255D61C3F8A05020245C617A
:10043000C3F8A04040205861C3F8A0008021596152
:10044000C3F8A0104FF480725A61C3F8A0201D6653
:10045000C3F894505D655D62C3F880501D6F25F050
:1004600010051D675D6F25F010055D671C66C3F8FC
:1004700094405C655C62C3F880401C6F24F02004EB
:100480001C675C6F24F020045C671866C3F8940056
:1004900058655862C3F88000186F20F04000186754
:1004A000586F20F0400058671966C3F894105965DA
:1004B0005962C3F88010196F21F080011967596FD4
:1004C00021F0800159671A66C3F894205A655A6270
:1004D000C3F880201A6F22F480721A675A6F22F4D0
:1004E00080725A6707B030BD00F042FE99E700BF46
:1004F00050180E4000ED00E000140E40044BFF21A8
:1005000003F5007203F8011B9342FBD1704700BF53
:10051000C41040202DE9F041ADF5836D054600245F
:10052000CDF814444FF48003CDF810344FF4067224
:1005300021467EA807F024FA7A947B947C947D94DB
:100540009022214656A807F01BFA202221464EA8E9
:1005500007F016FA4A944B944C944D942422214669
:1005600041A807F00DFA4FF0FF334193AF4B1C78D1
:10057000A4F1E1030F2B11D8DFE813F012005103AF
:100580000E0390031200120012001200A6036B0368
:100590001000120012001000B802DC02002300E07C
:1005A00001239D4209D0E72004F0D8F800BF42F2B1
:1005B000107005F0A1FC06F009FBE13C0F2C00F2E5
:1005C0009382DFE814F010002F03EE026F03DB00CC
:1005D0001701A001B00184034A0391027601AD0125
:1005E00091029602BA02FFF789FF914BE1221A703D
:1005F000BF225A7000229A700121D9701A715A7163
:100600007AA805F07BFD00B900BF8A4C21467A9894
:1006100006F038FB211D7B9806F034FB04F108013D
:100620007C9806F02FFB844B186804F10C0106F04F
:1006300029FBFE2201A94FF4FC4003F0A9FC00288D
:1006400059D19DF80430012B1CD913F0010F19D199
:10065000023B48BF01335B1013F0FF0F12D013F0C1
:10066000FF0409D001AB754A03EB440033F8021FC5
:1006700002F8011F9842F9D16D4B2344002283F800
:10068000202003E000226A4B83F820206C4C214696
:100690006C4B186806F0F6FA002222710121617194
:1006A000A271E271684A1278E273684A1278A27302
:1006B000674A12786273674A1278227306F05CFB0D
:1006C00048B306F059FB002836D05B4B5868624CA3
:1006D000214606F0D7FA211D7D9806F0D3FA4FF493
:1006E0000072A4F1CB01012000F0F2FC002840F0E0
:1006F000F48000BFF1E000224D4B83F82020E2207F
:1007000004F02CF800BF40F6B83005F0F5FBE1200E
:1007100004F024F8BAE706F031FB10B906F030FB1C
:1007200028B106F059FB4D4906F0ACFAC9E74B4930
:10073000002006F0A7FAC4E706F020FB10B906F087
:100740001FFB50B106F048FB20B96320444906F076
:1007500099FABAE706F07AFBF8E74149632006F018
:1007600091FAB2E73F49284604F0B0FD804639E2ED
:100770003D49284604F0AAFD064678E2FFF7BEFE92
:100780002B4C2546E52305F8013B05F045FA2946A3
:1007900006F078FA05F05CFA04F13D0106F072FA11
:1007A0004FF480722146012000F092FC002840F0B6
:1007B000948000BF91E004F07DFD0346002840F0E6
:1007C0003A8205F081F8034635E204F069FD0346FC
:1007D000002840F0308205F089F803462BE204F04F
:1007E00069FD0646002840F07A82284604F06EFE35
:1007F000064674E204F0A6F8C0B30D4CB023637053
:10080000E22003F0ABFF00BF40F6B83005F074FB08
:10081000E12003F0A3FFE6232370022221460120FA
:1008200000F056FC002858D139E000BFC412402027
:10083000C4104020CA10402040090E40E310402060
:1008400063114020F4BF4000F8FF5F00F9FF5F0034
:10085000FAFF5F00FBFF5F008F1140207F114020F7
:10086000831140209C0B4020C41440200DF2144002
:1008700004F054F80028C0D1DDF81424BB4B9A4290
:10088000BBD104F003FD034658B100BFB8494B701B
:10089000E6230B700222012000F01AFCE8B900BF29
:1008A0001BE004F0E7FC0346002800F0338200BFA1
:1008B000ECE704F047F8A0B1E22003F04FFF00BFDF
:1008C00040F6B83005F018FBE12003F047FF04F0D4
:1008D000DDFC90B100BF06F079F90DF5836DBDE840
:1008E000F0810DF2144004F019F80028E4D1DDF88D
:1008F00014249E4B9A42EAD0DEE704F0BBFC0028A9
:10090000E9D000BFE7E79A49E7230B7001221046C0
:1009100000F0DEFB08B900BFDFE706F057F9DCE7BF
:1009200006F054F9D9E7FFF7E9FDE822904B1A7079
:100930000DF5826006F0D2FA012828D0DDF8100407
:1009400006F0C3FA18B94FF48003CDF81034DDF87F
:10095000100404F0F5FB874906F094F90DF21440F9
:1009600003F0DCFF18BB8449DDF8140406F08AF9B3
:10097000824B1868824906F085F956A805F058FDA3
:100980000646002440F6AD3856AF794D2AE04FF4C4
:100990008003CDF81034E22003F0E0FE00BF40F603
:1009A000B83005F0A9FAE12003F0D8FEC6E7724995
:1009B00040F6AD3006F066F9E22003F0CFFE00BF4E
:1009C00040F6B83005F098FAE12003F0C7FECFE713
:1009D00000BF404604F14001294406F053F90434B5
:1009E000102C03D0002EF3D1E059F3E74EA805F008
:1009F0004FFD0746634C4EAD04F1200640F6AD387E
:100A000008E000BF4046214606F03CF904340435B6
:100A1000A64203D0002FF4D12868F4E74AA805F0D5
:100A200051FD002842D14A98574906F02BF97EA87B
:100A300005F036FB00B900BF544C21467E9806F005
:100A400021F904F110017F9806F01CF904F120014E
:100A5000819806F017F904F13001809806F012F938
:100A600004F14001839806F00DF904F150018298D9
:100A700006F008F904F16001849806F003F9444D8A
:100A8000286804F1700106F0FDF8686904F180013E
:100A900006F0F8F84FF40072A4F1C001012000F054
:100AA00017FB00287FF419AF00BF16E700BF40F620
:100AB000AD30B9E7E22003F051FE00BF40F6B83098
:100AC00005F01AFAE12003F049FEB02422E0E2200A
:100AD00003F044FE00BF40F6B83005F00DFAE12007
:100AE00003F03CFEB02430E000BFF6E6402D7FF47A
:100AF0005AAD284D42AC4AAE284606F0B8F844F844
:100B0000040B0435B442F7D141A806F0C1F900281E
:100B1000D0D10024FFF7F2FC1549EF230B7081F8C8
:100B20003F404022012000F0D3FA00287FF4D5AEE8
:100B300000BFD2E6402D7FF436AD164806F097F898
:100B400006F0B2F90028C2D10024FFF7D7FC08490B
:100B5000F0230B7081F83F404022012000F0B8FAEA
:100B600000287FF4BAAE00BFB7E600BF5500AABBAD
:100B7000C4104020D4104020E410402000ED00E0DC
:100B8000F410402044114020641140208411402082
:100B9000000C0E40C512402040F20D239D427FF410
:100BA00002AD644C204606F062F80546201D06F0B2
:100BB0005EF8074604F1080006F059F8064604F10D
:100BC0000B035D4A04F20B2013F8011F02F8011F0A
:100BD0008342F9D1284604F0A1FA00287FF4C2AD7F
:100BE0004FF08608554C2146E32301F8013B284687
:100BF00006F048F8611D384606F044F804F1090192
:100C0000304606F03FF884F80D800E222146012080
:100C100000F05EFA00287FF460AE00BF5DE6022DB2
:100C20007FF4C1AC464B5C78FA2C3FF4C4ADFB2C8E
:100C30003FF4CBAD80234149E2220A704C708B70A7
:100C40000322012000F044FA00287FF446AE00BFE2
:100C500043E6B5F5806F7FF4A6AC364806F007F89A
:100C6000054604F05BFA00287FF482AD8626FFF784
:100C700045FC324C2146EA2301F8013B284606F0A8
:100C800001F884F8FF614FF400722146012000F062
:100C90001FFA00287FF421AE00BF1EE6B5F5424FD3
:100CA0007FF481ACFFF72AFC2449E4230B708923ED
:100CB00081F8FF314FF40072012000F009FA00289A
:100CC0007FF40BAE00BF08E6052D7FF46CAC19482D
:100CD00005F0CDFF054604F021FA98B98626174C99
:100CE0002146E92301F8013B284605F0CBFF667158
:100CF00006222146012000F0EBF900287FF4EDAD3B
:100D000000BFEAE5284604F003FA00287FF467AD47
:100D10008226E4E7094900234B70E6230B70022288
:100D2000012000F0D5F900283FF4B9AD05F04EFFE1
:100D3000D3E500BFC51240209B0B4020C4104020CB
:100D4000C41240200C4BFF2103F5007203F8011B75
:100D50009342FBD1094BFF2103F5424203F8011BEB
:100D60009342FBD1064BFF2103F5007203F8011BF0
:100D70009342FBD1704700BF9C0B4020C41240201F
:100D8000C410402030B58FB000218DF837100123FA
:100D90008DF836308DF835108DF834108DF833100D
:100DA0008DF832108DF831100B910A91099124229F
:100DB000684606F0E5FD4FF0FF330093A14A536902
:100DC00043F010035361FFF767FA05F0A9FD05F042
:100DD000BBFD05F0F5FD9C4B5B6813F4004F04D19F
:100DE0004FF40042984B5A6000BF05F0D5FF002831
:100DF00040F08A8005F0D0FF002840F0888003F0A2
:100E0000CDFD03F03FFF04F0F9F800B100BF04F09E
:100E1000ABF800B100BF03F08DFA7F2003F060FA59
:100E200017217F2003F062FAE12003F097FC0020F5
:100E300003F048FA00238DF83130684606F00AF8CE
:100E400001286DD0814806F049F801286CD09DF842
:100E50003130002B6CD1009806F03BF88DF8330050
:100E60007A4B186806F031F88DF832009DF833306F
:100E700013B19DF832301BB9754A744B1A6000BF2C
:100E800004F0C4FD00F0F9F900F0C2F9002860D1C7
:100E900005F044FF00287BD109A803F03FFD00289E
:100EA00040F08280099A6B4B9A4202D001238DF860
:100EB0003730664C206804F043F98DF8360020681E
:100EC00004F051FD8DF83500206804F03AFD8DF8EE
:100ED000340004F0B1FE0B909DF83730002B72D037
:100EE0009DF8373063B99DF836304BB99DF83530F1
:100EF00033B19DF834301BB10A9A0B9B9A4266D0ED
:100F000000F01AF900BFFDE700F0B5F972E705F04F
:100F10007BFE00283FF473AF962004F0EDFF6EE7F0
:100F200001238DF831308DE701238DF831308EE7C4
:100F300000238DF833308DF83230E22003F00EFCC0
:100F400000BF40F6B83004F0D7FFE12003F006FC04
:100F50008CE701238DF8373005F010FF18B905F044
:100F60000FFF002894D0E82003F0F8FB0C24FA25AA
:100F7000284604F0C1FF00F04BF910B1013CF7D155
:100F800002E000238DF83730E12003F0E7FB7FE734
:100F9000E22003F0E3FB00BF40F6B83004F0ACFF02
:100FA000E12003F0DBFB77E701238DF83730E22007
:100FB00003F0D4FB00BF40F6B83004F09DFFE12001
:100FC00003F0CCFB75E704F027FE0A9088E7FFF7F3
:100FD000B9FE72B6002301241F4813F0800F07D119
:100FE0005A0903F01F0104FA01F1603240F822109F
:100FF0000133402BF1D1BFF34F8FBFF36F8F134CF1
:10100000236823F07F020F4B9A60BFF34F8FBFF32B
:101010006F8FBFF34F8FBFF36F8F5A6922F4003287
:101020005A610022C3F85022BFF34F8FBFF36F8F76
:10103000206804F066FC80F3088823685B689847A2
:1010400060E700BF00ED00E050180E40340440207F
:1010500000C040005500AABB00E100E00368013B6E
:101060000A2B15D8DFE803F015150615150A10141C
:10107000141515000022074B1A707047054B01220A
:101080005A7082685A6070470022024B1A7070478B
:1010900000BF7047A40D402070B504460D461646AB
:1010A00004F072FF32462946204605F02BFD50B170
:1010B000064D41F288366C7834B9304604F02AFF88
:1010C0000028F8D000E00446204670BDA40D402062
:1010D00070B504460D46164604F056FF01230E4A2D
:1010E000137032462946204605F030FD064670B1A1
:1010F000094C41F28835237863B1284604F00AFF91
:101100000028F8D00026044B1E7000BF02E0002229
:10111000014B1A70304670BDA40D402008B5044B39
:1011200000225A701A705A60024805F0E1FC08BDAE
:10113000A40D40205D10400008B5FFF7EFFF0A4CFA
:101140000A4E0EE02A4631460020FFF7A5FF6378DD
:1011500013B96378002BF5D0002363706068FFF744
:10116000D9F94FF44245F4E7A40D4020C4124020C1
:101170001E4B4FF080725A61C3F8A0201A66C3F864
:1011800090205A655A62C3F880201A6F22F080724C
:101190001A675A6F22F080725A674FF400025A6140
:1011A000C3F8A0201A66C3F890205A655A62C3F8A3
:1011B0008020196F21F400011967596F21F4000193
:1011C0005967A3F500735A61C3F8A0201A66C3F8E3
:1011D00090205A655A62C3F880201A6F22F40002E8
:1011E0001A675A6F22F400025A67704700140E40C3
:1011F00008B505F0C1FD034608B1184608BD05F065
:10120000BDFD03460028F8D105F0BAFD0346F4E71A
:10121000F8B5FFF7EDFF034608B91846F8BD0324FB
:1012200000250F27124E03E0631E13F0FF0409D0C0
:10123000384604F061FEF36B13F4000FF4D001356F
:10124000EDB2F1E7012D01D80023E6E705F094FDAA
:1012500003460028E1D105F091FD20B905F090FD8D
:1012600003460028D9D005F0CFFC0346D5E700BFE0
:1012700000120E40704770477047704708B500F085
:1012800025FDFFF711F808BD08B5092809D8DFE8E2
:1012900000F00505050B0B0B0B0B0F13002000F0E6
:1012A0003FFDFFF701F808BD012000F039FDF8E728
:1012B000022000F035FDF4E7032000F031FDF0E7F7
:1012C00008B500F039FF002001F0EEF801F0F6F863
:1012D00008BD08B501F0F8F808BD08B50F48FEF7DD
:1012E000EBFF3E21002000F0A1FE00F0E1FE00280F
:1012F000FBD000F011FF0A4A0A4B9A6200F014FF7B
:101300000028FBD0022000F0EFFC002000F078FD68
:10131000FEF7CAFF0148FEF7CFFF08BD00A3E111A9
:10132000013F182000060E40014B1878704700BF9F
:10133000B40D402008B500F021F9C378034A1370BA
:101340000BB1012008BD05F0B8FB08BDB40D40206D
:1013500008B5034B1B7803B108BD05F0BBFBFBE7E9
:10136000B40D402008B5134B1B7813F0800F05D146
:1013700003F06003402B0FD0002008BD03F0600392
:10138000402B01D0002008BD0A4B5B780BB1002038
:1013900008BD05F0ABFB08BD064B5B783BB9054BC0
:1013A000DB880BB9002008BD05F09EFB08BD0020BE
:1013B00008BD00BFC4D5402000B583B000920B46E5
:1013C00002460021812002F0FFFA03B05DF804FB21
:1013D00000B583B000920B4602460021022002F0C5
:1013E000F3FA03B05DF804FB00B583B000920B463E
:1013F00002460021832002F0E7FA03B05DF804FB07
:1014000000B583B000920B4602460021042002F092
:10141000DBFA03B05DF804FB104B1B681A685388B5
:101420001A4403781844904211D24378042B10D008
:101430008B4209D003781844904206D24378042B9B
:1014400009D08B42F6D107E070470020704700209A
:101450007047002070470020704700BFBC0D40203F
:1014600008B5034B987800F07F0002F03BF908BD07
:10147000C4D54020194B1B794BB3184B1B681B6814
:101480001A79824225D970B4144A93605C881C444E
:10149000A34220D20025012607E0104A93600FE006
:1014A0001A7813443546A3420CD25A78042AF7D14D
:1014B0009A788242F4D1DA788A42F1D1002DECD1C7
:1014C000012002E0054A9360002070BC70470020B4
:1014D0007047002070470020F7E700BFBC0D402098
:1014E000F8B504460021FFF7C5FF064608B93046A7
:1014F000F8BD0F4B1B685B6853F82470FB68984776
:1015000001462046FFF7B6FF06460028EFD0084BFD
:101510009C68052529462046FFF77EFF044618B142
:10152000807802F02BF9F5E77B689847DFE700BF8A
:10153000BC0D402070B50646FFF79CFF0346C8B1BE
:101540000D4B9C68052529462046FFF765FF04469C
:1015500040B18288C178807802F0AEFA0346002854
:10156000F1D107E0044B1B685B6853F826301B6819
:1015700098470346184670BDBC0D4020014B986843
:10158000704700BFBC0D402008B501F0C5FF08BD85
:1015900038B50D4B1B7983B10B4B1B681B681B794E
:1015A0005BB10024084D2046FFF79AFF0134E4B2F6
:1015B0002B681B681B79A342F5D8034B00221A71D4
:1015C00001229A8138BD00BFBC0D402008B502F051
:1015D00043F8FFF7DDFF08BD38B50D4B1B79B3B1FC
:1015E0000B4B1B681A6812798AB10024084D06E07B
:1015F0000134E4B22B681A681279A24207D95B68F9
:1016000053F824301B69002BF2D09847F0E738BD1F
:10161000BC0D402070B5984B00229A811A615A6126
:101620001B7813F0800F1CD113F0600F00F077814E
:10163000914B1B7803F01F03012B00F089828E4B26
:101640001B7803F01F03022B00F0AA828A4B1B7841
:10165000C02B00F0CD82C12B00F0E18200231846A0
:1016600070BD854AD288002A00F0F08213F0600F26
:10167000DED113F01F0307D17F494978062916D020
:10168000082900F0F18059B1012B00F00F81022BE5
:10169000CED1794B5B78002B00F032810023FCE146
:1016A000022AC5D10221754802F062F850E1724B5E
:1016B0005B88DCB2190A01390E2900F23282DFE8B8
:1016C00011F00F001E007A003002300240004E0080
:1016D000300230023002300230023002300271003B
:1016E00001F0F6FF28B9664B9868017802F040F8DF
:1016F0002CE0634B1868017802F03AF826E001F01C
:10170000E7FF80B15E4B9B685B7CA34290D95C4B4A
:101710001B6953F83400418802F02AF8564B9B6845
:1017200002225A7012E0564B1B685B7CA3427FF684
:101730007FAF534B5B6853F83400418802F018F8D0
:10174000ECE74F4BD868017802F012F84A4BDA8880
:101750009B89934240F2FC80474B9A81F8E001F06C
:10176000B7FF88B9464B9B685B7CA3427FF660AFAE
:10177000434B1B6953F83400418801F0F9FF3E4B9D
:101780009B6807225A70E1E73D4B1B685B7CA342D4
:101790007FF64EAF3A4B5B6853F83400418801F056
:1017A000E7FFECE7364B586900283FF441AF41882A
:1017B00001F0DEFFCAE7DBB2022B00F0498207D856
:1017C000002B4AD0012B7FF433AF2E4A212110E0A9
:1017D000032B0CD0EE2B7FF42BAF2B4B19788BB255
:1017E0009A4238BFD1B2284801F0C2FFAEE70C21BF
:1017F000264A013A2648002312F8014F20F8024FEA
:101800000133DBB28B42F7D3490002311D4800F8A7
:10181000381F01F0ADFF184B9B78032B96D11D4864
:1018200005F09AFA002891D01A4B1B789A1ED2B272
:10183000FC2A8BD813F0010F88D1124981F8383077
:10184000144B5B7881F83930134B9A73422A09D8CC
:101850001249134805F0FAFF78E70421114801F016
:1018600087FFD8E700BF71E7012A7FF4E1AE0121CD
:101870000D4801F07DFF6BE0C4D54020C80D40202D
:101880001C054020C805402008054020147B40006E
:1018900000064020C4D44020BC0D4020C6D44020C7
:1018A00002064020FC054020C00D40209F49497899
:1018B0000A297FF4ECAE012A7FF4BAAE9C4B1B7967
:1018C000002B3FF4B5AE994B1C79994B1D682B68E2
:1018D0001B79A3427FF6ACAE00212046FFF7CAFD7C
:1018E00000283FF4A5AE6B6853F82430DB689847B6
:1018F0008F4B03F8100F0121184601F039FF27E044
:10190000022A7FF495AE894B187901F065FF884B68
:1019100023F8120F0221184601F02AFF18E013F0F5
:101920001F0340F0AE80814A5278013A082A00F243
:10193000A880DFE802F00FA61FA605A6A6A6500005
:101940007A4BDB88002B7FF473AE7A4A774B1A61AF
:10195000012384E6754BDB88002B7FF469AE734B63
:101960005B88012B7FF464AE714A938923F00203F4
:101970009381EDE76D4BDB88002B7FF459AE6B4B09
:101980005B88022B40F0CF8001F0A2FE00283FF4DC
:101990004FAE664B1B79002B7FF44AAEFFF7F8FD84
:1019A000624B9B881B0A013B032B00F2CF80DFE8D0
:1019B00003F002060A0E604A5C4B1A61C8E75F4AF0
:1019C0005A4B1A61C4E75E4A584B1A61C0E75D4A38
:1019D000564B1A61BCE7554BDB88002B7FF428AED1
:1019E00001F094FE00283FF423AE01F071FE0028C0
:1019F00034D04E4B9A78544B9B685B7C9A423FF7AD
:101A000017AEFFF7C5FD494B9B78494A1371002B70
:101A10009ED001F05DFE48B345490B796FF06042FE
:101A20001A44494B1B6903EBC2030B60404B1B6814
:101A30001B681B79002B8BD0002425463C4E294681
:101A40002046FFF777FD00283FF4F2AD0134E4B201
:101A500033681B681B79A342F1D879E7334B9A7836
:101A6000394B1B685B7C9A42CBDDE1E530490B7951
:101A70006FF060421A44344B5B6803EBC2030B60A7
:101A8000D4E7012B0DD0022B7FF4D2AD274B5B782E
:101A9000012B23D0032B31D00023002B7FF4DFADAB
:101AA000C6E5224A52780B2AEDD1204BDB88002B69
:101AB0007FF4BEAD1E4B1B79002B3FF4B9AD1B4B21
:101AC0001C795D882046FFF70BFD00283FF4B0AD80
:101AD000E9B22046FFF72EFD0346DEE7134BDB8815
:101AE000002B7FF4A5AD114B5B88002B7FF4A0ADDC
:101AF0000E4B187901F0FAFE0346CEE70B4BDB885C
:101B0000002B7FF495AD094B5B88002B7FF490ADE3
:101B1000064C207902F0D4F8207901F067FE0346E4
:101B2000BBE70023B9E70023B7E700BFC4D54020D7
:101B3000BC0D402061144000B53D4000D13D400047
:101B4000ED3D4000013E40001C0540200023A4E77D
:101B5000414B1B79002B3FF479AD404B1C793E4B38
:101B60001D682B681B79A3427FF670AD00212046CB
:101B7000FFF780FC00283FF462AD6B6853F82450F7
:101B8000EB68984701462046FFF774FC00283FF4B5
:101B900056ADAB689847034600287FF460AD4EE52C
:101BA0002D4B1B79002B3FF451AD2B4B1B681A6852
:101BB0001279002A3FF44AAD0024274E5B6853F89F
:101BC0002450EB68984701462046FFF753FC002855
:101BD0003FF43CADAB689847034600287FF43FAD27
:101BE0000134E4B233681A681279A242E6D82DE5CE
:101BF0001A4B5B78EE2B01D0002330E5174B9B8806
:101C0000042B01D000232AE515480388134AD18804
:101C1000994228BF194601F0ABFD01231FE50F4B88
:101C20005B78EE2B01D0002319E50C4B9B88052B2C
:101C300001D0002313E50B480388084AD188994254
:101C400028BF194601F094FD012308E5002306E5AD
:101C50000F21054ACDE500BFBC0D4020C4D5402072
:101C6000E00440204C044020EC0540200B4B1B6856
:101C70002BB9EFF310833BB10022084B1A71074ACE
:101C8000136801331360704772B6BFF35F8F002291
:101C9000034B1A700122014B1A71F0E7D80D402056
:101CA00044064020074B1A68013A1A601B6843B982
:101CB000044B1B792BB10122034B1A70BFF35F8FCA
:101CC00062B67047D80D402044064020054A136B89
:101CD00023F0700318431063936E13F0080FFBD0CA
:101CE000704700BF00060E40032811D0042812D010
:101CF00002280CBF4FF480710021084A136B23F4B3
:101D000040730B431363936E13F0080FFBD07047BF
:101D10004FF44071F1E74FF40071EEE700060E401A
:101D2000054A136B23F0030318431063936E13F0FB
:101D3000080FFBD0704700BF00060E40164B1A6B11
:101D400022F003021A639B6E13F0080F0AD14FF4BE
:101D5000805311498A6E12F0080F03D1013BF9D16B
:101D6000012070470C4A136B23F070031843106373
:101D7000936E13F0080F0AD14FF4805306498A6E10
:101D800012F0080F05D1013BF9D101207047002066
:101D900070470020704700BF00060E40174A136BC3
:101DA00023F0030343F001031363936E13F0080F52
:101DB0000AD14FF4805311498A6E12F0080F03D1F3
:101DC000013BF9D1012070470C4A136B23F07003DB
:101DD00018431063936E13F0080F0AD14FF4805329
:101DE00006498A6E12F0080F05D1013BF9D1012096
:101DF0007047002070470020704700BF00060E406B
:101E0000174A136B23F0700318431063936E13F09B
:101E1000080F0AD14FF4805311498A6E12F0080F4F
:101E200003D1013BF9D1012070470D4A136B23F018
:101E3000030343F002031363936E13F0080F0AD1F8
:101E40004FF4805306498A6E12F0080F05D1013B0A
:101E5000F9D101207047002070470020704700BF73
:101E600000060E40164A136B23F0700318431063EC
:101E7000936E13F0080F0AD14FF4805310498A6E05
:101E800012F0080F03D1013BF9D1012070470C4B30
:101E90001A6B42F003021A639B6E13F0080F0AD10B
:101EA0004FF4805306498A6E12F0080F05D1013BAA
:101EB000F9D101207047002070470020704700BF13
:101EC00000060E40012803D0044A054B1A607047F3
:101ED000034A9168034B0B439360F5E7080000A5A4
:101EE00010180E40000010A5054B5B6913F0800F21
:101EF00004D0044B986EC0F3C010704700207047A8
:101F000010180E4000060E400E490B6A0E4A1A4386
:101F10000A620A46936E13F4003FFBD0094A116A25
:101F20000A4B0B4043F45C1318431062936E13F496
:101F3000003FFBD0034A116A054B0B4043F45C138E
:101F40001362704700060E40080037008FFFC8FF7D
:101F5000FFFFC8FE0B490B6A0B4A1A430A620A4686
:101F6000936E13F4003FFBD0064A116A074B0B40F7
:101F700043F45C1318431062936E13F4003FFBD0DC
:101F8000704700BF00060E40080037008FFFC8FFF3
:101F9000034A116A034B0B4043F45C13136270470E
:101FA00000060E4087FFC8FF024B986E00F4003019
:101FB000704700BF00060E4007490A6A22F003027C
:101FC000064B1343000280B2184308620A46936E20
:101FD00013F0010FFBD0704700060E4001003700E0
:101FE00003490A6A22F00302024B13430B62704753
:101FF00000060E4002003700034A136A23F0030371
:1020000043F45C131362704700060E40024B186ADB
:1020100000F00200704700BF00060E40024B986EB1
:1020200000F00100704700BF00060E40A0B90E4846
:10203000036A090289B20D4A1A400D4B1343194332
:1020400001620246936E13F0010FFBD0064A116A3B
:10205000084B0B431362704703490B6A064A1A4048
:10206000064B13430B62704700060E40FCFFC8FF8F
:102070000100370000003701FCFFC8FE02003701F5
:1020800038B9084A116A084B0B4043F45C131362D9
:102090007047044A116A054B0B4043F45C1313620A
:1020A000704700BF00060E40FEFFC8FFFDFFC8FFDF
:1020B000024B986E00F48030704700BF00060E405F
:1020C000064B1B6A30B923F0807343F45C13034A58
:1020D0001362704743F08073F7E700BF00060E40BD
:1020E00010B40B4C4FF00053A3620A4B03EA0040BC
:1020F00040F00050D2B21043090201F47C51084371
:10210000A0622246936E13F0020FFBD010BC704702
:1021100000060E400000FF074FF00052014B9A628C
:10212000704700BF00060E40024B986E00F00200A0
:10213000704700BF00060E404FF44412034BDA61B3
:102140001A46936E13F0400FFBD0704700060E4006
:10215000024AD36923F48033D361704700060E40EE
:10216000024B986E00F04000704700BF00060E4022
:102170003F281ED81F280CD8114B9A690123834091
:10218000934318D0012303FA00F00D4B186100208F
:10219000704720380A4BD3F808210123834093432A
:1021A0000BD0012303FA00F0054BC3F80001002017
:1021B000704701207047002070470020704700BF23
:1021C00000060E403F2822D81F280ED8114B9A69CE
:1021D00001238340934301D000207047012303FA79
:1021E00000F00C4B5861002070472038094BD3F8A1
:1021F000082101238340934301D00020704701232D
:1022000003FA00F0034BC3F80401002070470120DB
:10221000704700BF00060E406FF003020A4B1A61C0
:102220001A46936923F0030313F1040FF9D14FF019
:10223000FF32054BC3F800211A46D2F80831B3F13A
:10224000FF3FFAD1704700BF00060E406FF0030257
:10225000084B5A611A46936933F00303FBD14FF0E0
:10226000FF32044BC3F804211A46D2F80831002B80
:10227000FBD1704700060E403F2817D81F2809D809
:102280000B4B9A69012303FA00F0104214BF184661
:1022900000207047064BD3F808212038012303FAA9
:1022A00000F0104214BF184600207047002070470D
:1022B00000060E40094A02EB8002136C23F47F6390
:1022C000194311644FF4807303FA00F0034B1A684A
:1022D000024202D09A6E1042F9D0704700060E40BA
:1022E000094A02EB8002136C23F0070319431164BF
:1022F0004FF4807303FA00F0034B1A68024202D0D5
:102300009A6E1042F9D0704700060E400C4B00F157
:10231000100243F822109A6E4FF4807303FA00F013
:10232000024209D14FF4805305498A6E024205D119
:10233000013BFAD101207047002070470020704710
:1023400000060E4041F001010C4B00F1100243F871
:1023500022109A6E4FF4807303FA00F0024209D102
:102360004FF4805305498A6E024205D1013BFAD1F0
:1023700001207047002070470020704700060E4083
:1023800041F002010C4B00F1100243F822109A6E4A
:102390004FF4807303FA00F0024209D14FF48053E6
:1023A00005498A6E024205D1013BFAD101207047EE
:1023B000002070470020704700060E4041F00301E6
:1023C0000C4B00F1100243F822109A6E4FF4807308
:1023D00003FA00F0024209D14FF4805305498A6E96
:1023E000024205D1013BFAD101207047002070471D
:1023F0000020704700060E4041F004010C4B00F134
:10240000100243F822109A6E4FF4807303FA00F022
:10241000024209D14FF4805305498A6E024205D128
:10242000013BFAD10120704700207047002070471F
:1024300000060E404FF4807303FA00F0014B186061
:10244000704700BF00060E404FF4807303FA00F09F
:10245000014B5860704700BF00060E404FF4E06229
:10246000014B1A60704700BF00060E404FF4E06257
:10247000014B5A60704700BF00060E40022807D883
:10248000044B9A684FF4807303FA00F010407047D1
:102490000020704700060E40000200F47060014BFF
:1024A0009863704700060E40000200F4706040F030
:1024B0000100014B9863704700060E402022014B3B
:1024C0001A60704700060E402022014B5A60704788
:1024D00000060E40014B1866704700BF00060E4014
:1024E000014B5866704700BF00060E40014BD86E86
:1024F000704700BF00060E40014B986E704700BF4A
:1025000000060E40034B1A6FC0F312001043186709
:10251000704700BF00060E40034A136FC0F312005D
:1025200023EA00031367704700060E40044A13694C
:1025300023F004031361BFF34F8F30BF704700BF18
:1025400000ED00E07047104A136F23F4C00343F41A
:1025500080031367116A0D4B0B431362936E13F0E4
:10256000080FFBD04FF4FA7300BF013BFCD1064AC1
:10257000136A13F0080FFBD0034A136F23F4C00350
:1025800043F480031367704700060E4004003700D1
:10259000064A136943F004031361054B054A1A60A8
:1025A0009B68BFF34F8F20BF30BF704700ED00E046
:1025B00010180E40040000A5024A116A024B0B439A
:1025C0001362704700060E4000003702034A136A88
:1025D00023F0007343F45C131362704700060E404F
:1025E000024A116A024B0B431362704700060E4009
:1025F00000003704034A136A23F0806343F45C133A
:102600001362704700060E4020B9054A054BC3F817
:10261000E4207047044A034BC3F8E420704700BF2E
:1026200000434D5000060E4001434D50014BD3F87E
:10263000E800704700060E40C31F162B0AD9203849
:102640001C280FD8012303FA00F0074BC3F8380108
:1026500000207047012303FA00F0034BC3F8180170
:10266000002070470120704700060E4008B5C31FC8
:10267000162B04D920381C2817D9012008BD164B69
:10268000D3F8202101238340134201D0012008BD4B
:10269000114AC2F81431D2F82021134201D100208E
:1026A00008BDFFF7C9FF012008BD0B4BD3F840213F
:1026B00001238340134201D0012008BD064AC2F81D
:1026C0003431D2F84021134201D1002008BDFFF778
:1026D000B3FF012008BD00BF00060E40014BD3F838
:1026E0001C01704700060E40014BD3F820017047D3
:1026F00000060E40014BD3F83C01704700060E4027
:10270000014BD3F84001704700060E402DE9F84315
:10271000431E042B00F20681DFE813F005000500DC
:1027200015001500F500804A136923F004031361B6
:1027300001227E4B1A70BFF35F8F62B6BFF34F8FDB
:1027400030BFBDE8F883044603280CBF00204FF4D7
:102750000010FFF7F7FE72B6BFF35F8F0022734BD6
:102760001A700122724B1A70724B1F6A1D6B724AEB
:10277000D2F800809E6A714A3A431A6205F0030952
:10278000B9F1010F40F2888025F0030141F0010109
:1027900019631A46936E13F0080FFBD011F0700FF7
:1027A00008D021F07001634B19631A46936E13F041
:1027B000080FFBD0FFF7B0FC5E4A936E13F4003FA6
:1027C000FBD05C4A116A5E4B0B4043F45C1313620E
:1027D000936E13F4803FFBD028F47063564A136065
:1027E000042C5BD0514C01232370BFF35F8F62B682
:1027F000FFF7A9FE72B6BFF35F8F0023237017F0B7
:10280000020F54D04B4A136A4E4919404E4B0B43AA
:102810001362116A4D4B0B4043F45C1313624C4B33
:102820003340002B6DD046F00056424B9E62022191
:10283000B9F1020F04D13F4A936E13F0020FFBD09F
:102840003C4A136B23F0700305F0700003431363DD
:10285000936E13F0080FFBD0374BC3F80080A3F53D
:10286000C0631D631A46936E13F0080FFBD0314A04
:10287000936E0B42FCD02E4B00221A705B681BB18A
:10288000984700222A4B5A600122284B1A70BFF346
:102890005F8F62B6BDE8F88329467FE7A2F5C06284
:1028A000116A2C4B0B4043F45C1313629AE717F048
:1028B000010FB4D01F4B1B6A13F0010F0BD11D4940
:1028C0000B6A254A1A40254B13430B620A46936E46
:1028D00013F0010FFBD0174B1B6A13F0807F08D158
:1028E000144A116A1E4B0B431362936E13F4803F1C
:1028F000FBD0104A116A154B0B4043F45C13136272
:102900008DE7002194E7084A136943F0040313613B
:10291000144A154B1A600122044B1A70BFF35F8FE3
:1029200062B630BFBDE8F88300ED00E04406402009
:10293000E00D402000060E40000C0E40080037005D
:10294000FFFFC8FEFCFFC8FE0200370187FFC8FF7B
:102950000000FF07FEFFC8FFFCFFC8FF01003700B3
:1029600000003701040000A510180E40024B187833
:1029700080F00100704700BFE00D402008B5074B14
:102980001B7813B900B1804708BD72B6BFF35F8FE3
:102990000022034B1A70014B586008BDE00D402027
:1029A0004406402010B489014318022444504FF0DB
:1029B000FF319962196A5A6010BC70470123C0F850
:1029C000C0307047C0F8C410704700EB81118A60B6
:1029D0000020704789010523435070478901022375
:1029E0004350704700EB81110869704700EB81117B
:1029F0004869704700EB81118869704700EB8111CD
:102A0000C869704700EB81114A61704700EB811182
:102A10008A61704700EB8111CA61704700EB811138
:102A20004A62704700EB81118A62704700EB8111A6
:102A3000C86A704700EB8111086A7047F0B486B02D
:102A400002240194082402942024039480240494F2
:102A50000A9CE40B0594B0EB510F14D84C0CA04227
:102A600017D2012501AF57F82540B1FBF4F4260C2D
:102A700084420AD386420DD90135052DF3D10020B9
:102A800006B0F0BC70470020FAE70020F8E701200C
:102A9000F6E700252AB106A901EB850151F8141CBF
:102AA0001160002BF3D01D600120E9E7C0F8C810C9
:102AB0007047C0F8CC107047D0F8D0007047D0F8FD
:102AC000D400704719B9044BC0F8E4307047034B89
:102AD000C0F8E430704700BF004D4954014D4954DF
:102AE00082B0EFF31083B3FA83F35B09019372B6FC
:102AF000BFF35F8F00220C4B1A70019B01210B4A20
:102B0000116023B1084B1970BFF35F8F62B60222C8
:102B1000074B1A60074A0023136153619381064AE9
:102B2000137002B0704700BF44064020208203406B
:102B300060810340C4D54020F00D40200522034BA6
:102B40001A704FF40022024B1A607047F00D4020BB
:102B5000F081034082B003220F4B1A70EFF3108311
:102B6000B3FA83F35B09019372B6BFF35F8F002260
:102B70000A4B1A7001980A4901220A60094B1A602F
:102B800008220A601A6028B10122044B1A70BFF3B0
:102B90005F8F62B602B07047F00D402044064020BF
:102BA00060810340F081034008B5024B1B6903B10B
:102BB000984708BDC4D5402030B585B0EFF31083E9
:102BC000B3FA83F35B09019372B6BFF35F8F002200
:102BD0004F4B1A70019B01214E4A116023B14C4B9F
:102BE0001970BFF35F8F62B64B4B1B78032B47D036
:102BF000494B5B88494A9489E41AA4B2C4B9464A4D
:102C000091880B449BB29380444AD2889A423CD02C
:102C1000414B9B79002B38D1404B5B69002B52D044
:102C2000984700284FD000223B4B5A803B4B9C8951
:102C30003F2C48D90022384B9A714024374B9A6870
:102C4000354B5D88EFF31083B3FA83F35B0902938E
:102C500072B6BFF35F8F00212D4B19700298304B75
:102C60001B6813F0020F32D028B10122284B1A70D2
:102C7000BFF35F8F62B60422274B1A7005B030BDD8
:102C8000FFF792FFFFF72CFFF8E70422224B1A70A0
:102C9000EFF31083B3FA83F35B09039372B6BFF3C8
:102CA0005F8F00221A4B1A70039A10231D490B6084
:102CB00090310B60002AE1D00122154B1A70BFF34E
:102CC0005F8F62B6DAE70122134B9A71B6E7BFF362
:102CD0004F8F44B12A44144B12F8011B03F8011B17
:102CE000D9B2A142F8D3BFF34F8F0B4B5A8814448B
:102CF0005C8001230B4A1360903213600028BDD022
:102D00001A46034B1A70BFF35F8F62B6B6E700BF77
:102D10004406402020820340F00D4020C4D54020CE
:102D20003081034060810340000010A0037D13F058
:102D3000010F13D010B50C46037D6FF3000303752C
:102D4000036853B1064951F8221011F4807F18BF6F
:102D500042F0800281682046984710BD704700BF4E
:102D600000810340431E03EB43015F4A02EBC102B3
:102D7000127F12F0010F00F0B680F0B583B00A4662
:102D8000594901EBC20251691269914278D0521A35
:102D9000B2F5803F1BD81704544C54F8205015F45A
:102DA000807F18D054F82050C5F302150824AC4099
:102DB000013C144217D047F0080703EB43044A4D87
:102DC00005EBC404257F6FF3410525770BE04FF435
:102DD00080320027E0E754F82050C5F3C125012DCB
:102DE00037D047F01407424C04EB001403EB4305C3
:102DF0003D4E06EBC505ED6829446160EFF3108197
:102E0000B1FA81F14909019172B6BFF35F8F0025D4
:102E100038490D70019DE16811F0100F22D147F083
:102E20002107A76003EB430006EBC001486910448B
:102E300048618A614FF0007000FA03F32E4A9361F3
:102E4000002D4ED001222B4B1A70BFF35F8F62B65C
:102E500047E054F82050C5F302150824AC40A242C4
:102E6000C1D8BEE72DB10121224A1170BFF35F8F97
:102E700062B603EB43021C4901EBC20251691161C6
:102E80001A4A52F8202012F4807F21D003EB43022B
:102E9000154901EBC202127F12F0020F18D0012275
:102EA000164B43F82020303B53F8203013F4803F7A
:102EB00002D0134B43F820200122124B43F820206C
:102EC0004FF4805202FA00F0A3F5F873986108E01D
:102ED000024603EB430300210B4800EBC300FFF75E
:102EE00025FF03B0F0BD7047F00D40200081034086
:102EF000008303404406402000800340608103407B
:102F000090810340F0810340F80D40202DE9F0430B
:102F100085B0FFF72BFD20B9A34B5B6813F0010FC1
:102F200011D0A14B5B6813F0040F16D09E4B042206
:102F30009A60D3F8043813F4405F0BD003F0BCFD63
:102F400005B0BDE8F08372B6BFF35F8F0022974BE8
:102F50001A70F5E7FEF740FBF0E7934B5B6813F060
:102F6000020F31D1904B5B6813F4805F24D0904BFB
:102F700010221A6008221A60F03B1B6813F0040F3D
:102F800028D18C4B1B6813F0010F04D08A4B1B68AF
:102F900013F0010F7FD1874B1B6813F0020F7DD117
:102FA000844B1B6813F0080F40F01881814B1B689D
:102FB00013F0100F40F02581804E01237A4A4FF024
:102FC000007E4FF4805C67E10222774B9A60FEF747
:102FD00003FBB5E77A4B1B78002B3FD1754B1B6881
:102FE000C3F30A53082B3ED1764A774B774813F840
:102FF000011B02F8011F8342F9D1FEF70BFB0028E9
:1030000037D00422724B1A60724B93F90030002BB8
:1030100035DB704BDB88002B3AD0694B00229A805D
:103020005A80012119701021694B1960EFF3108348
:10303000B3FA83F35B09019372B6BFF35F8F5B4B07
:103040001A70019B644A1160002B3FF479AF012292
:10305000564B1A70BFF35F8F62B671E7FFF7A4FD9E
:10306000FFF73EFDBAE7FFF769FD0422584B1A60EF
:1030700066E7FFF763FD0422554B1A6060E7504B8B
:1030800000229A805A8002221A70FFF795FD57E7B6
:10309000FFF760FD54E7FFF78FFD51E7484B1B78C2
:1030A000012B0BD0022B04D0042B02D0FFF746FDDE
:1030B00001E0FFF779FDFFF713FD41E73D4B18688D
:1030C000C0F30A50434B9B893D4A548822189342CF
:1030D00001DA1B1B98B23F4B9A6878B1631E1A4401
:1030E000394B13F8011B02F8011FD9B28142F8D302
:1030F0000444A4B2324B5C8040280CD0354B9C81F8
:103100005B6913B1984700282ED00222304B1A6019
:10311000FFF720FD14E72F4BDA88294B9B882344C7
:103120009A42EBDD2B4B9B89A34223D0284B0222F2
:103130001A6010221A60EFF31083B3FA83F35B096D
:10314000029372B6BFF35F8F0021184B1970029B78
:1031500021490A60002B3FF4F3AE0122134B1A7091
:10316000BFF35F8F62B6EBE6FFF7E8FC0222184B75
:103170001A60E5E6174B5B694BB1984768B1104B95
:103180009A8859880A449A8000225A80CEE7FFF72D
:10319000D5FC02220E4B1A60D2E6FFF7CFFC0222CA
:1031A0000B4B1A60CCE600BF008003404406402071
:1031B0002082034030810340C081034034810340BA
:1031C000F00D4020C3D54020000010A0080010A042
:1031D00060810340C4D54020F081034008229F4B0A
:1031E0001A60303B1B6813F0010F7FF4A9AE9C4BB3
:1031F0001B78032B7FF4A4AE4FF40022994B1A6086
:103200009EE61022954B1A60303B1B6813F0020FAC
:103210007FF496AE924B1B78012B07D0042B7FF4E2
:103220008FAE4FF400228F4B1A6089E6FFF792FCB5
:1032300086E68D4B03EB0013DA6812F0010F7FF482
:103240007FAE8A4A5161DB681B0C08D0844A7C003F
:10325000E51902EBC5056969CB1A6B612B61FFF7B4
:1032600081FD6DE6824B012249F803207B4949F834
:1032700001204FF4804249F8032007EB470702463C
:1032800000217C4800EBC700FFF750FD58E60133F2
:103290000436052B00F0AB80D8B21D465F1EB84641
:1032A00014690EFA07F10C4202D054682142C0D1D1
:1032B00011690CFA05F52942E9D04FEA830906F1B4
:1032C0009004D6F8901011F0010F03D0316811F07E
:1032D000010FC7D1216811F4805FD8D0316811F493
:1032E000405FD4D14FF48052614B49F80320A3F5DD
:1032F00008735D6108EB4808594B03EBC80898F860
:103300001C206FF3820288F81C205B4A59F80230B7
:1033100023F4007349F80230524B4FF4002249F86D
:1033200003204FF4802249F8032009E608224F4B7E
:103330009A60504D002401260134E4B22246314601
:103340002846FFF7F3FC1835042CF5D1FEF720F9D9
:10335000464B1A6822F07F021A601A6842F0800217
:103360001A6045490868454A024042F030020A6046
:103370000A6842F002020A60DA6942F00102DA6188
:10338000EFF31082B2FA82F25209039272B6BFF3DF
:103390005F8F00213A4A11700399324A042010606D
:1033A000022010604FF480529A6129B10122344BFF
:1033B0001A70BFF35F8F62B6FFF792FBC0E52B4B2D
:1033C000D3F8002822F48042C3F8002801225A6171
:1033D00010229A61D3F8002842F48042C3F80028F2
:1033E00000221F4B83F8682003F05AFBA8E51F4B0F
:1033F0005B6813F0080F99D11C4B1B6913F0010F88
:1034000004D01A4B5B6813F0010FD8D1174B1B691E
:1034100013F0100F3FF494AD144B5B6813F0100FD2
:103420003FF48EAD114AD2F8003823F48043C2F83D
:1034300000381346D3F8042812F4804F03D15A6899
:1034400012F0010FF6D0094A102353610123936152
:10345000034A82F8683003F029FB71E5608103407C
:10346000F00D4020F08103400083034000800340C2
:1034700020820340F80D40200081034083E6FFFFD7
:10348000440640200020704770B483B0EFF31083EF
:10349000B3FA83F35B09019372B6BFF35F8F002227
:1034A0001A4B1A70019D0122194B83F86820194AA2
:1034B000D2F8003823F48043C2F80038D2F8043838
:1034C00013F4804FFAD0134B1A6822F480721A60FA
:1034D00008269E610121996110229A6104249C6151
:1034E000022098619E609C609860D9609A60D3F8D1
:1034F000002842F48042C3F8002825B1034B19701C
:10350000BFF35F8F62B603B070BC704744064020C3
:10351000F00D40200080034010B582B0EFF310831F
:10352000B3FA83F35B09019372B6BFF35F8F002296
:10353000384B1A70019C2220FEF71AFEFDF7C0FEE0
:10354000354BA02283F8222304225A604FF48020B6
:10355000FEF7D8FF314B4FF00072C3F80028D3F8C4
:10356000002842F40042C3F800281A6822F480526E
:103570001A601A6822F440621A60D3F8002822F414
:103580008042C3F800281A46D2F8043813F4804F5A
:10359000FAD0234B1A7F02F0FE026FF382021A77F1
:1035A00093F8342002F0FE026FF3820283F8342095
:1035B00093F84C2002F0FE026FF3820283F84C2055
:1035C00093F8642002F0FE026FF3820283F8642015
:1035D0001249D1F8002842F48042C1F8002893F83B
:1035E00069308BB90E4B012283F86920002283F8E1
:1035F0006820FFF749FF2CB10122064B1A70BFF378
:103600005F8F62B602B010BD0022054B83F86820C0
:10361000EFE700BF4406402000E100E000800340E7
:10362000F00D40200A4BD3F8002822F48042C3F862
:1036300000281A6842F480721A60D3F8002842F415
:103640008042C3F800280022024B83F868207047AC
:1036500000800340F00D402010B582B0EFF31083DE
:10366000B3FA83F35B09019372B6BFF35F8F002255
:10367000144B1A70019C144AD2F8003823F480438A
:10368000C2F80038FFF7CEFF104B93F869301BB13A
:1036900000220E4B83F869200B4AD2F8003823F43D
:1036A0000043C2F80038FDF714FE2220FEF78AFD21
:1036B0002CB10122034B1A70BFF35F8F62B602B0C8
:1036C00010BD00BF4406402000800340F00D4020A4
:1036D000034BD3F8040810F4405018BF0120704782
:1036E00000800340084B1A6822F080021A601A68B2
:1036F00022F07F0200F07F0002431A601A6842F055
:1037000080021A60704700BF00800340024B1868B7
:1037100000F07F00704700BF00800340024B186A32
:10372000C0F3CA00704700BF00800340024B186A14
:10373000C0F30D00704700BF008003400A4B93F8B0
:10374000683003B170470122074B83F86820074BAC
:10375000D3F8002822F48042C3F800281A6842F403
:1037600000721A60EEE700BFF00D402000800340B9
:10377000014B986099817047C4D5402000F00F023A
:10378000042A00D9704770B51148C369012101FAB4
:1037900002F423EA0403C36100F5807050F822307C
:1037A00023F0020340F82230561E0A4C04F10803AD
:1037B00006FA01F5A81903EBC000FFF7B7FA354484
:1037C00004EBC504237F6FF38203237770BD00BF32
:1037D00000800340F00D402000F00F00024B53F832
:1037E0002000C0F3C0407047C081034000F00F03C9
:1037F000042B5DD8354A52F8232012F4002F59D1FA
:1038000010B483B0591E01EB4104314A02EBC402EB
:10381000127F12F0040F4FD112F0010F50D1EFF3CD
:103820001082B2FA82F25209019272B6BFF35F8F30
:103830000024284A1470019C10F0800F18D12649EA
:1038400051F8232022F4007241F823204021234A1A
:1038500042F823104FF40021903242F82310002C3C
:1038600032D001201B4B1870BFF35F8F62B624E08B
:103870001B4A52F8232012F4405FE0D001EB4101D3
:10388000134A02EBC1010A7F42F004020A774FF4A7
:103890008052144941F8232002FA03F3124A93613B
:1038A00084B101200B4B1870BFF35F8F62B604E048
:1038B0000020704701207047012003B010BC704702
:1038C0000020FAE70120F8E70120F6E7C081034075
:1038D000F00D4020440640200081034060810340F9
:1038E00030810340F08103400080034000F00F006E
:1038F000042851D810B5431E03EB43012C4A02EBB8
:10390000C102127F12F0040F48D00A46284901EB89
:10391000C202117F6FF38201117782004FF4805150
:10392000244C44F820108140A4F5087461612249B8
:1039300051F8201011F4002F14D02049515811F0E3
:10394000400F06D040201E4950504FF48020903147
:1039500050504FF40020174950501A48115841F464
:103960000071115003EB4302114901EBC202127FB7
:1039700012F0010F01D1012010BD5800C21801EB57
:10398000C202147F6FF300041477034401EBC301F8
:103990008B689847012010BD0020704782000649BF
:1039A00051F8201011F4002FC7D1012010BD00BF25
:1039B000F00D402020820340C0810340308103404D
:1039C000608103400081034000F00F0004285FD8AD
:1039D000F0B583B0344CE569012484402C4259D0C1
:1039E000324C54F8204014F4002F56D1441E04EBFE
:1039F00044062F4D05EBC6052D7F15F0040F4ED163
:103A0000EFF31085B5FA85F56D09019572B6BFF330
:103A10005F8F0026274D2E70019F04EB4405244E36
:103A200006EBC5052D7F15F0010F09D0002F38D00A
:103A30000122204B1A70BFF35F8F62B600202AE08C
:103A400004EB44051A4E06EBC5052E7F46F0010631
:103A50002E772FB10126174D2E70BFF35F8F62B600
:103A6000134D67003E1905EBC606F2603361002274
:103A70007261B261089AB260002B08BF41F0010187
:103A8000337F61F341033377FFF76CF9012002E0E4
:103A900000207047002003B0F0BD0020FBE70020AD
:103AA000F9E70020F7E700BF00800340C081034032
:103AB000F00D4020440640202DE9F04F83B000F087
:103AC0000F04042C00F2E680774BDD690123A3404C
:103AD0002B4040F0E48001F00305022D22D0032D9D
:103AE00027D0012D01D00023D5E04FF0010E6F4EFD
:103AF00006EB840556F824C06D4F0CEA0707C9028F
:103B000001F4C05140B20028B8BF4FF48073A2F551
:103B1000806080B2B0F57C4F0ED3082A2BD95200BA
:103B2000013A0BE0022C94BF4FF0000E4FF0010E53
:103B3000DDE74FF0000EDAE740F2FF72B2FA82F2F0
:103B400041EA8E011943C2F11C0341EA031323F435
:103B5000D06323F00303DB04DB0C3B4346F8243043
:103B60000127A740BFB2032C1CD8524A04234E4859
:103B70004FF0010E06E00F22E0E7013B043AD9B214
:103B80008C420FD2C6690EFA03F10E42F5D00F43F4
:103B9000BFB2C66926EA0101C161116821F00201C4
:103BA0001160EAE704EB4403434E06EBC306DFF87B
:103BB0000C91DFF8F4804FF0010A1EE001EB4103A5
:103BC0003E4A02EBC3039C68002C6AD02B6813F4B6
:103BD000807F18BF40F0800001EB4101374B03EBC1
:103BE000C101024649690120A047002353E0013486
:103BF00004351836E3B2042B4AD8E0B247FA04F38E
:103C000013F0010FF3D0611E01EB410309EBC30375
:103C10001A7F02F0010E6FF300021A772B6843F04F
:103C200002032B60D8F81C200AFA04F31343C8F8E7
:103C30001C302B6B13F4802FC0D02B6843F400731F
:103C40002B60BEF1000FD2D056F80C3C56F8082C71
:103C50009A1A46F80C2C2B6813F4807F18BF40F09A
:103C6000800056F810BC56F814CC01EB410109EB6A
:103C7000C101097F56F8183C0093ABEB0203624484
:103C8000C1F34001FFF7A0FE03460028AFD102E0D8
:103C9000012300E00023184603B0BDE8F08F0023A5
:103CA000F9E70023F7E700BF0080034000810340ED
:103CB00083E6FFFF10810340F80D4020F00D402007
:103CC00070B500F00F02541E4FF00073A340164968
:103CD0004B61164B03EB021300259D604FF480539C
:103CE00093404B6110F0800F08D104EB4404012194
:103CF0000F4800EBC400FFF719F870BD93000D48A2
:103D000018440D4D1D444FF4005601F5E07119445F
:103D100004E02E600B6813F4005FFBD1036813F41A
:103D2000405FF6D1E1E700BF00800340008303401D
:103D3000F80D402030810340F081034000F00F0077
:103D400004282BD838B5184BDA6901238340134275
:103D500026D0431E03EB4304144A02EBC402127F35
:103D600012F0010F1ED1124C54F8200010F4002F55
:103D700002D112F0040F0ED00C485C00E21800EBE8
:103D8000C202157F45F001051577234400EBC300FF
:103D90008160012038BD8847012038BD0020704770
:103DA000002038BD002038BD00800340F00D4020C9
:103DB000C0810340054A136823F4406343F4006361
:103DC0001360136843F4005313607047008003408E
:103DD000054A136823F4406343F4006313601368D7
:103DE00043F480431360704700800340034A136824
:103DF00023F4406343F40063136070470080034082
:103E0000F0B48EB0204C6E4604F130073546206881
:103E10006168A268E3680FC510342E46BC42F5D134
:103E20002068286023792B71184BDA6922F001028F
:103E3000DA61174A11681748084041F2301101430E
:103E40001160116841F002011160DA6942F001026B
:103E5000DA611A6822F4406242F400621A601A6859
:103E600042F400421A600C4A6B460DF1350013F81B
:103E7000011B02F8011F8342F9D14FF48042074B26
:103E80001A600EB0F0BC7047247B400000800340F5
:103E90000081034083E6FFFFFFFF0FA02082034065
:103EA00010B500F039FF68B9094B187800F0FE0032
:103EB00000F0D2FF044600F05DFF38B9201C18BFA7
:103EC000012010BD00F056FF012010BD012010BDE3
:103ED0004506402010B582B044F620630193019B53
:103EE0008BB10124204601F0F9FFFFF7D9FF03460B
:103EF00030B1019B013B0193019B002BF2D10223C6
:103F0000184602B010BD0223FAE738B504460D4644
:103F100000F0C8FE08BB1D4B187800F0FE0000F052
:103F20009BFFF0B9200A00F097FFF0B9E0B200F073
:103F300093FFF0B900F0F0FEF8B9144B187840F098
:103F4000010000F089FFE0B9284601F007F800F011
:103F500011FF003018BF012038BD00F00BFF012019
:103F600038BD00F007FF012038BD00F003FF01203D
:103F700038BD00F0FFFE012038BD00F0FBFE01203F
:103F800038BD00F0F7FE012038BD00BF45064020D7
:103F900010F4004F54D170B505460E461446531E1A
:103FA00013F4004F01D0032070BD00F07BFED0B9A8
:103FB000244B187800F0FE0000F04EFFB8B9280A34
:103FC00000F04AFFB8B9E8B200F046FFB8B900F017
:103FD000A3FEC0B91B4B187840F0010000F03CFF75
:103FE000A8B9CCB922E000F0C5FE012070BD00F0F8
:103FF000C1FE012070BD00F0BDFE012070BD00F0CB
:10400000B9FE012070BD00F0B5FE012070BD00F0CA
:10401000B1FE012070BD2E46012C0DD0751C30461E
:1040200000F096FF013CA4B2002CF4D100F0A2FEF7
:10403000003018BF012070BD304600F08FFFF5E75B
:1040400002207047450640200AB9042070472DE938
:10405000F04190B0154600F03F02C2F14002954297
:1040600003DD032010B0BDE8F0811F460E46044674
:1040700000F018FEF0B92E4B187800F0FE0000F0AA
:10408000EBFED8B9200A00F0E7FED8B9E0B200F0A4
:10409000E3FED8B9B04618F8010B00F0DDFEC8B950
:1040A000A8EB0603DBB2AB42F5D300F063FEA8B188
:1040B0000120D7E700F05EFE0120D3E700F05AFEB2
:1040C0000120CFE700F056FE0120CBE700F052FEC2
:1040D0000120C7E700F04EFE0120C3E7FFF7FAFE1C
:1040E000012820D00FB90020BCE72A4669462046A7
:1040F000FFF74EFF08B10220B4E732789DF8003098
:104100009A4212D100230133DBB29AB2954208D908
:10411000F15C10AA1A4412F8402C9142F3D002200C
:10412000A0E700209EE701209CE702209AE700BF5D
:104130004506402070B582B004460D46164600F094
:10414000B1FDB8B9224B187800F0FE0000F084FEF3
:10415000A8B9200A00F080FEA8B9E0B200F07CFE09
:10416000A8B9284600F078FEA8B900F003FEB0B167
:10417000012002E000F0FEFD012002B070BD00F061
:10418000F9FD0120F9E700F0F5FD0120F5E700F069
:10419000F1FD0120F1E700F0EDFD0120EDE7FFF773
:1041A00099FE012810D00EB90020E6E70DF10701B5
:1041B0002046FFF7AAFE012808D09DF80700A84274
:1041C00014BF02200020D8E70120D6E70220D4E760
:1041D0004506402010F4004F33D12DE9F04105464B
:1041E0000E4614461F46531E13F4004F2BD183185E
:1041F000B3F5004F02DD0520BDE8F08132B34FF08A
:1042000040083F2C11D93B46424631462846FFF72D
:104210001BFF01281DD04035ADB24036403CA4B252
:10422000002CEED10020BDE8F0813B46224631460D
:104230002846FFF709FF012814BF00200120BDE830
:10424000F081032070470420BDE8F0810020BDE824
:10425000F0810120BDE8F0812DE9F04190B0804669
:104260000F4600250DF13F044026A8B26A1E4244C5
:104270000DF1FF3312F8011F03F8011FA342F9D11A
:104280003B4632466946FFF7DFFE012805D0403540
:10429000B5F5004FE9D1002000E0022010B0BDE8E4
:1042A000F08108B54FF4004201460020FFF770FE90
:1042B000003018BF012008BD014B1878704700BFBF
:1042C000600E402000F00700034B1870400060F0C3
:1042D0005F00024B18707047600E4020450640207A
:1042E000014B1870704700BF680E402030B97F2224
:1042F000064B5A7029B1054B99707047034A5070AC
:10430000F8E71722014B9A70704700BF680E4020F3
:10431000704738B505460C4600F052FBC02000F04F
:1043200029FC284600F026FC204600F023FC00F083
:10433000AFFB38BD08B500210846FFF7EAFFAA2108
:104340000820FFF7E6FF08BD08B500210820FFF7A9
:10435000E0FF00210220FFF7DCFF00210320FFF730
:10436000D8FF00210420FFF7D4FF08BD08B50021C5
:104370000820FFF7CEFF00210220FFF7CAFF00212F
:104380000320FFF7C6FF00210420FFF7C2FF08BD8E
:1043900070B582B006460D4600238DF8073000F058
:1043A0000FFBC02000F0E6FB044638B100F070FBC4
:1043B0009DF807302B70204602B070BD304600F0EB
:1043C000D9FB04460028F1D100F034FBC12000F0F5
:1043D000D1FB04460028E9D10DF1070000F04CFCA8
:1043E000E4E730B583B00E4B1C5C0E4B1C700DF136
:1043F00007010020FFF7CCFF0546FF220A4B1A7089
:1044000011460820FFF785FF05210120FFF781FFF6
:1044100021460620FFF77DFF284603B030BD00BFD0
:104420005C7B4000680E4020DCD5402070B506461D
:104430000D4600F0C5FAC02000F09CFB044618B100
:1044400000F026FB204670BD304600F093FB04468A
:104450000028F5D1284600F08DFB0446F0E770B542
:1044600004460D46CAB1FF210820FFF752FF494E0E
:1044700071780620FFF74DFFB1780720FFF749FF5D
:1044800020210120FFF745FF072C00F28180DFE8A3
:1044900004F064574A3D30231609AA210820FFF78B
:1044A00038FFF1E700210220FFF733FF002103204E
:1044B000FFF72FFF29460420FFF72BFF70BD0021D7
:1044C0000220FFF726FF29460320FFF722FF0021E5
:1044D0000420FFF71EFF70BD00210220FFF719FF27
:1044E00029460320FFF715FF29460420FFF711FF97
:1044F00070BD29460220FFF70CFF00210320FFF7C3
:1045000008FF00210420FFF704FF70BD29460220A8
:10451000FFF7FFFE00210320FFF7FBFE29460420E2
:10452000FFF7F7FE70BD29460220FFF7F2FE29468D
:104530000320FFF7EEFE00210420FFF7EAFE70BD26
:1045400029460220FFF7E5FE29460320FFF7E1FE9A
:1045500029460420FFF7DDFE70BDFF220E4B1A70C6
:1045600011460820FFF7D5FEFF210220FFF7D1FEFC
:1045700064210320FFF7CDFE00210420FFF7C9FED0
:1045800005210120FFF7C5FE29460620FFF7C1FEE1
:1045900070BD00BF680E4020DCD5402008B508463D
:1045A00011461A46FFF75BFF08BD70B504460D467D
:1045B00042B9601E06286DD8DFE800F06053463926
:1045C0002C1F1200344E71780620FFF7A2FEB1783E
:1045D0000720FFF79EFE20210120FFF79AFEE8E763
:1045E00000210620FFF795FE00210720FFF791FE2E
:1045F00029460820FFF78DFE70BD00210620FFF739
:1046000088FE29460720FFF784FE00210820FFF7D7
:1046100080FE70BD00210620FFF77BFE29460720A3
:10462000FFF777FE29460820FFF773FE70BD294685
:104630000620FFF76EFE00210720FFF76AFE00212B
:104640000820FFF766FE70BD29460620FFF761FED1
:1046500000210720FFF75DFE29460820FFF759FEDD
:1046600070BD29460620FFF754FE29460720FFF7B4
:1046700050FE00210820FFF74CFE70BD29460620A1
:10468000FFF747FE29460720FFF743FE294608208B
:10469000FFF73FFE70BD00BF680E402070B50446B6
:1046A0000D461646FFF750FECEB1FF210820FFF75A
:1046B00030FE294E71780620FFF72BFEB1780720D7
:1046C000FFF727FE20210120FFF723FE601E0628AA
:1046D00040D8DFE800F0332A211C130E0900AA217C
:1046E0000820FFF716FEF1E729460420FFF711FE28
:1046F00070BD29460320FFF70CFE70BD294603203C
:10470000FFF707FE29460420FFF703FE70BD294688
:104710000220FFF7FEFD70BD29460220FFF7F9FDDC
:1047200029460420FFF7F5FD70BD29460220FFF75A
:10473000F0FD29460320FFF7ECFD70BD294602205D
:10474000FFF7E7FD29460320FFF7E3FD2946042094
:10475000FFF7DFFD70BD00BF680E402008B56E4B4F
:104760007F225A7017229A700A2800F0978013D976
:10477000ED2800F0C38047D8E72800F0A68035D8A0
:10478000E12800F09B80E2282FD10122624B1978AA
:104790000420FFF764FE08BD042860D00DD9072867
:1047A0006ED016D8052863D0062811D100225A4BA6
:1047B00019780720FFF753FE08BD012848D00028CC
:1047C0003FD002284DD0032801D100BF08BD08BD4D
:1047D00008BD08285BD0092806D101224E4B197864
:1047E0000420FFF73CFE08BD08BD08BDE8285CD0EA
:1047F000EC2808D1484B02229A7001221978042033
:10480000FFF72DFE08BD08BDF12867D00DD8EE28B2
:104810007BD0F02808D1404B02229A7001221978EF
:104820001046FFF71CFE08BD08BDF2285FD0F32834
:1048300006D10122384B19780520FFF710FE08BD7C
:1048400008BD0022344B19780720FFF708FE08BD89
:104850000022314B19780220FFF701FE08BD00BF8E
:1048600008BD00222C4B19780420FFF7F8FD08BD85
:1048700000BF0022284B19780420FFF7F0FD08BD87
:104880000022254B19780120FFF7E9FD08BD002221
:10489000214B19780220FFF7E2FD08BD01221E4BD3
:1048A00019780720FFF7DBFD08BD1B4B02229A7029
:1048B000012219780320FFF7D2FD08BD0022164B14
:1048C00019780320FFF7CBFD08BD134B02229A7025
:1048D000012219780420FFF7C2FD08BD0E4B022209
:1048E0009A70012219780520FFF7B9FD08BD012251
:1048F000094B19781046FFF7B2FD08BD0022064BA0
:1049000019781046FFF7ABFD08BD0022024B19785D
:104910000620FFF7A4FD08BD680E402010B582B048
:10492000044602A9002341F8043D042247F6C07062
:10493000FFF72EFB18B100BF012002B010BD019B94
:104940002360FAE700B583B002A9084B41F8043DA3
:104950000123042247F6C070FFF73CFC20B100BFE2
:10496000012003B05DF804FB0020FAE75500AABB64
:1049700000B583B002A94FF0FF3341F8043D012395
:10498000042247F6C070FFF725FC20B100BF0120CC
:1049900003B05DF804FB0020FAE700BF074B4FF0BF
:1049A00080525A634FF000625A635A6942F0805253
:1049B0005A615A6942F000625A61704700140E4011
:1049C00010B51B4C636943F000636361012001F083
:1049D00085FA636943F080536361052001F07EFA34
:1049E000E36B13F0805F01D10C2010BDE36B13F07B
:1049F000006F01D10C2010BD236943F000632361D7
:104A0000052001F06BFA236943F0805323610520F0
:104A100001F064FAE36B13F0805F01D00D2010BD4C
:104A2000E36B03F00063002B14BF0D20002010BDCA
:104A300000140E4010B5154C636943F000636361C8
:104A4000012001F04BFA636943F080536361052054
:104A500001F044FA236943F000632361052001F06B
:104A60003DFA236943F080532361052001F036FAB3
:104A7000E36B13F0805F01D00E2010BDE36B03F0F9
:104A80000063002B14BF0E20002010BD00140E4048
:104A900010B5154C236943F080532361012001F0C8
:104AA0001DFA236943F000632361012001F016FA27
:104AB000636943F080536361052001F00FFA636975
:104AC00043F000636361052001F008FAE36B13F023
:104AD000805F01D10F2010BDE36B03F00063002B5A
:104AE0000CBF0F20002010BD00140E4010B50F4C5D
:104AF000236943F080532361012001F0EFF923691A
:104B000043F000632361012001F0E8F9636943F099
:104B100080536361052001F0E1F9236943F080537C
:104B20002361052001F0DAF910BD00BF00140E402A
:104B300010B50F4C236943F080532361012001F02D
:104B4000CDF9636943F000636361012001F0C6F9A8
:104B5000636943F080536361052001F0BFF9236965
:104B600043F080532361052001F0B8F910BD00BF68
:104B700000140E402DE9F04105460826234C4FF065
:104B80000108052718E0636943F00063636140464C
:104B900001F0A4F96D00EDB2636943F080536361E5
:104BA000384601F09BF9236943F0805323610420C8
:104BB00001F094F9013E07D015F0800FE3D123698D
:104BC00043F000632361E2E7104C636943F0006344
:104BD0006361012001F082F9636943F080536361EE
:104BE000052001F07BF9E36B03F00063002B0CBFA1
:104BF00000240424054A136943F0805313610520FF
:104C000001F06CF92046BDE8F08100BF00140E40B1
:104C10002DE9F843804608254FF00009124C012782
:104C20000526636943F000636361384601F056F975
:104C3000636943F080536361304601F04FF9E36BE1
:104C4000C3F3C06343EA49035FFA83F9236943F07E
:104C500080532361042001F041F9013DE1D188F83E
:104C60000090BDE8F88300BF00140E4008B5FFF7C0
:104C7000CFFFFFF73BFF08BD08B5FFF7C9FFFFF700
:104C800057FF08BD064B10225A6308225A635A691F
:104C900042F010025A615A6942F008025A617047A4
:104CA000000E0E4010B51B4C636943F008036361AE
:104CB000012001F013F9636943F0100363610520DB
:104CC00001F00CF9E36B13F0100F01D10C2010BDB3
:104CD000E36B13F0080F01D10C2010BD236943F0E2
:104CE00008032361052001F0F9F8236943F010035C
:104CF0002361052001F0F2F8E36B13F0100F01D0EF
:104D00000D2010BDE36B03F00803002B14BF0D2032
:104D1000002010BD000E0E4010B5154C636943F025
:104D200008036361012001F0D9F8636943F01003BF
:104D30006361052001F0D2F8236943F00803236181
:104D4000052001F0CBF8236943F01003236105200F
:104D500001F0C4F8E36B13F0100F01D00E2010BD6A
:104D6000E36B03F00803002B14BF0E20002010BDDE
:104D7000000E0E4010B5154C236943F0100323615B
:104D8000012001F0ABF8236943F0080323610120FF
:104D900001F0A4F8636943F010036361052001F09A
:104DA0009DF8636943F008036361052001F096F8FC
:104DB000E36B13F0100F01D10F2010BDE36B03F074
:104DC0000803002B0CBF0F20002010BD000E0E406A
:104DD00010B50F4C236943F010032361012001F04B
:104DE0007DF8236943F008032361012001F076F880
:104DF000636943F010036361052001F06FF82369D4
:104E000043F010032361052001F068F810BD00BFD6
:104E1000000E0E4010B50F4C236943F010032361C0
:104E2000012001F05BF8636943F00803636101202E
:104E300001F054F8636943F010036361052001F049
:104E40004DF8236943F010032361052001F046F873
:104E500010BD00BF000E0E402DE9F04105460826AA
:104E6000234C4FF00108052718E0636943F008035D
:104E70006361404601F032F86D00EDB2636943F0C2
:104E800010036361384601F029F8236943F01003E9
:104E90002361042001F022F8013E07D015F0800FB5
:104EA000E3D1236943F008032361E2E7104C63690F
:104EB00043F008036361012001F010F8636943F0D7
:104EC00010036361052001F009F8E36B03F00803A8
:104ED000002B0CBF00240424054A136943F010037F
:104EE0001361052000F0FAFF2046BDE8F08100BF05
:104EF000000E0E402DE9F843804608254FF00009CA
:104F0000124C01270526636943F0080363613846A4
:104F100000F0E4FF636943F010036361304600F082
:104F2000DDFFE36BC3F3C00343EA49035FFA83F990
:104F3000236943F010032361042000F0CFFF013DFB
:104F4000E1D188F80090BDE8F88300BF000E0E4064
:104F500008B5FFF7CFFFFFF73BFF08BD08B5FFF728
:104F6000C9FFFFF757FF08BD70B5234C10236363DB
:104F700008236363636943F010036361636943F06B
:104F800008036361192000F0A9FFE36B13F0080F19
:104F900017D109250526236943F010032361304604
:104FA00000F09CFF636943F010036361304600F03A
:104FB00095FFE36B13F0080F03D16B1E13F0FF0591
:104FC000E9D10D4BDB6B13F0080F01D10B2070BD45
:104FD000094C236943F008032361052000F07EFF9C
:104FE000052000F07BFF636943F00803636105203F
:104FF00000F074FF002070BD000E0E4070B5244C10
:105000004FF0805363634FF000636363636943F061
:1050100080536361636943F000636361192000F0AA
:105020005DFFE36B13F0006F17D109250526236997
:1050300043F080532361304600F050FF636943F032
:1050400080536361304600F049FFE36B13F0006F5B
:1050500003D16B1E13F0FF05E9D10D4BDB6B13F091
:10506000006F01D10B2070BD094C236943F0006330
:105070002361052000F032FF052000F02FFF636957
:1050800043F000636361052000F028FF002070BD3D
:1050900000140E4059B1013950F8043BB3F1FF3F01
:1050A00007D10139B1F1FF3FF6D10120704700204F
:1050B00070470020704708B5C0F308031BB9802172
:1050C000FFF7E8FF08BD002008BD08B5C0F30C03DA
:1050D00023B94FF40061FFF7DDFF08BD002008BDD4
:1050E00008B54FF4FA210248FFF7D4FF08BD00BF0E
:1050F00000C0400008B54FF440514FF48000FFF766
:10510000C9FF08BDC0F30800B0FA80F0400970473D
:10511000C0F30C00B0FA80F040097047034B034421
:10512000B3F5FA1F2CBF0020012070470040BFFFDD
:10513000A0F58000B0F5404F2CBF00200120704743
:1051400008B50121FFF7A6FF08BD08B501F0ACFBCB
:1051500008B1602008BD01F0ADFB08B1612008BDB9
:1051600001F0AEFB08B1622008BD01F0AFFB08B151
:10517000632008BD01F0B0FB08B1642008BD01F058
:10518000B1FB08B1652008BD01F0B2FB60B901F0C8
:10519000BBFB58B901F0BEFB50B901F0AFFB0028D2
:1051A00014BF7420002008BD662008BD702008BD13
:1051B000712008BD2DE9F041A4B080460E46174687
:1051C000684601F035F9054620B90136B04543D8A7
:1051D00044460BE0FFF7B9FF03460028F5D043E053
:1051E0009BB9B5B904F58044B44239D8A4F5800020
:1051F000800B24AB034413F8803C002FF0D0002B2D
:10520000EFD101F0F1F80546EBE701F0FFF80546B4
:10521000E7E7FFF79AFF03460028E3D024E068465B
:1052200001F006F948B1FFF790FF034628B11BE0F3
:10523000A3B908F58048B0450CD8A8F5800324AA86
:1052400002EB933313F8803C002FF1D0002BF0D108
:10525000722309E0002307E0C22305E0732303E083
:10526000034B1B78002BDAD1184624B0BDE8F0813F
:105270004606402008B5012202490348FFF79AFF7D
:1052800008BD00BFFFBF5F0000C0400008B501229D
:1052900002494FF48000FFF78DFF08BDFF7F4000FB
:1052A00008B5002202494FF48000FFF783FF08BDD4
:1052B000FF7F400008B5002202490348FFF77AFF4C
:1052C00008BD00BFFFBF5F0000C040002DE9F047F0
:1052D00082B004460D4601F019FDC4F3080323B162
:1052E0008123184602B0BDE8F0870646744B5B7810
:1052F00043B14FF400722946204602F077FA0028A5
:1053000000F0D9802046FFF7D6FE08B98423E8E7ED
:105310002946204600F0BEFFA0B9694B9B78002BC0
:1053200000F0CB80BFF34F8FBFF36F8F86B94FF480
:1053300000722946204602F059FA002814BF832340
:105340000023CEE7FFF701FF03460028E5D0C8E7BA
:10535000EFF31083B3FA83F35B09019372B6BFF3E3
:105360005F8F0022574B1A70DDF804A072B6564BBF
:10537000C3F88420BFF34F8F5A6922F480325A61F8
:10538000BFF34F8FD3F88030C3F34E37C3F3C90C4C
:105390004FEA471E4FEA8C7943F6E0784A4E0EEA10
:1053A00008004A46634642EA0001C6F87412013B0F
:1053B00002F14042B3F1FF3FF5D1013FAEF1200EC3
:1053C000B7F1FF3FEBD1BFF34F8FBFF36F8FBAF150
:1053D000000F05D001223B4B1A70BFF35F8F62B6FE
:1053E0004FF400722946204602F000FA88B3364B8B
:1053F0000022C3F88420BFF34F8FD3F88070C7F327
:105400004E35C7F3C9076E014FEA877C43F6E07E4D
:105410001C4606EA0E0062463B4642EA0001C4F81A
:105420006012013B02F14042B3F1FF3FF5D1013D73
:10543000203EB5F1FF3FECD1BFF34F8F224A5369B5
:1054400043F480335361BFF34F8FBFF36F8F8323D8
:1054500047E71D4B0022C3F88420BFF34F8FD3F8DA
:105460008070C7F34E35C7F3C9076E014FEA877CDA
:1054700043F6E07E1C4606EA0E0062463B4642EAE0
:105480000001C4F86012013B02F14042B3F1FF3F5A
:10549000F5D1013D203EB5F1FF3FECD1BFF34F8F79
:1054A000094A536943F480335361BFF34F8FBFF30D
:1054B0006F8F002315E7002313E7002311E700BFD8
:1054C000460640204406402000ED00E02DE9F04370
:1054D00083B0044601F01AFC734B2344B3F5FA1F62
:1054E00004D38623184603B0BDE8F0830546C4F311
:1054F0000C030BB18223F5E76C4BDB782BB1204614
:10550000FFF7E3FD002840F0CA80600A00F0B4FE17
:1055100088B9664B1B79002B00F0C380BFF34F8F17
:10552000BFF36F8F6DB92046FFF7CFFD00280CBF8A
:1055300085230023D6E7FFF708FE03460028E8D0BE
:10554000D0E7EFF31083B3FA83F35B09019372B6EC
:10555000BFF35F8F0022564B1A70DDF8049072B6CD
:10556000544BC3F88420BFF34F8F5A6922F4803222
:105570005A61BFF34F8FD3F88030C3F34E36C3F375
:10558000C90E77014FEA8E7843F6E07C494D07EA71
:105590000C004246734640EA0201C5F87412013B12
:1055A00002F14042B3F1FF3FF5D1013E203FB6F199
:1055B000FF3FECD1BFF34F8FBFF36F8FB9F1000FF7
:1055C00005D001223A4B1A70BFF35F8F62B62046B6
:1055D000FFF77BFD88BB374B0022C3F88420BFF365
:1055E0004F8FD3F88070C7F34E35C7F3C9076E01EC
:1055F0004FEA877C43F6E07E1C4606EA0E006246D0
:105600003B4640EA0201C4F86012013B02F140420D
:10561000B3F1FF3FF5D1013D203EB5F1FF3FECD1A5
:10562000BFF34F8F234A536943F480335361BFF371
:105630004F8FBFF36F8F852354E71E4B0022C3F8B3
:105640008420BFF34F8FD3F88070C7F34E35C7F374
:10565000C9076E014FEA877C43F6E07E1C4606EAE6
:105660000E0062463B4642EA0001C4F86012013B6C
:1056700002F14042B3F1FF3FF5D1013D203EB5F1CB
:10568000FF3FECD1BFF34F8F0A4A536943F4803395
:105690005361BFF34F8FBFF36F8F002322E70023C7
:1056A00020E700231EE700BF0040BFFF4606402062
:1056B0004406402000ED00E02DE9F04F85B005469E
:1056C0000C4601F023FBC5F30C0323B182231846DB
:1056D00005B0BDE8F08F8246661EB5F5C00F01D259
:1056E000F92E01D9C123F2E7002C00F0B28005F5B4
:1056F0000055DFF8D0B1714C86E0FFF726FD034678
:10570000002800F09180E2E7EFF31083B3FA83F30F
:105710005B09039372B6BFF35F8F0023684A13706F
:10572000039A019272B6C4F88430BFF34F8F636955
:1057300023F480336361BFF34F8FD4F88030C3F319
:105740004E3EC3F3C9084FEA4E1C4FEA88730093DC
:1057500043F6E0790CEA0900009A434640EA020168
:10576000C4F87412013B02F14042B3F1FF3FF5D19E
:105770000EF1FF3EACF1200CBEF1FF3FEAD1BFF3CA
:105780004F8FBFF36F8F019B2BB101234C4A1370D6
:10579000BFF35F8F62B63846FFF797FC00285AD0F8
:1057A0000023C4F88430BFF34F8FD4F88030C3F3A4
:1057B0004E37C3F3C90C4FEA471E4FEA8C7943F6C4
:1057C000E0780EEA08004A46634642EA0001C4F85F
:1057D0006012013B02F14042B3F1FF3FF5D1013FBE
:1057E000AEF1200EB7F1FF3FEBD1BFF34F8F6369EE
:1057F00043F480336361BFF34F8FBFF36F8F731E2A
:1058000005F500551EB31E46A5F500579BF803305D
:1058100023B13846FFF759FC0028F0D1780A00F090
:105820002BFD00287FF469AF9BF80430002BE6D0F5
:10583000BFF34F8FBFF36F8FBAF1000F7FF464AFE8
:105840003846FFF742FC0028D9D185233FE70023E3
:105850003DE700233BE7194B0022C3F88420BFF348
:105860004F8FD3F88060C6F34E35C6F3C9066F017B
:105870004FEA867C43F6E07E1C4607EA0E0062464D
:10588000334642EA0001C4F86012013B02F1404293
:10589000B3F1FF3FF5D1013D203FB5F1FF3FECD122
:1058A000BFF34F8F054A536943F480335361BFF30D
:1058B0004F8FBFF36F8F852309E700BF00ED00E036
:1058C000440640204606402008B50648FFF7FEFD86
:1058D000034608B1184608BDFA210348FFF7ECFE5D
:1058E0000346F7E700E05F0000C0400008B506216E
:1058F0004FF48000FFF7E0FE08BD400A70474068A3
:10590000704700687047A0F58000B0F5001F2CBFFD
:10591000002001207047A0F10150B0F5C02F2CBF2E
:105920000020012070474068B0F1FF3F14BF002005
:10593000012070470068B0F1FF3F14BF0020012034
:10594000704710B54468FFF7EEFF50B9A0F581002D
:10595000A0F580402044B0F5FA1F2CBF00200120A4
:1059600010BD002010BD0068B0F1FF3F07D0A0F1CE
:105970000150B0F5C02F2CBF00200120704700203F
:105980007047014B5878704746064020014B5870CD
:10599000704700BF46064020014B9878704700BF13
:1059A00046064020014B9870704700BF46064020D5
:1059B000014BD878704700BF46064020014BD87095
:1059C000704700BF46064020014B1879704700BF62
:1059D00046064020014B1871704700BF4606402024
:1059E000014B1878704700BF46064020014B1870E5
:1059F000704700BF46064020034B00225A709A7041
:105A0000DA701A711A70704746064020034B012263
:105A10005A709A70DA701A711A70704746064020F0
:105A2000054B587830B1987820B1D87810B11879F2
:105A300000B11878704700BF460640202DE9F04FAE
:105A400085B005460F46144601F060F90190FFF756
:105A5000E7FF0646002C56D0002851D1EFF3108303
:105A6000B3FA83F35B09039372B6BFF35F8F00222F
:105A7000664B1A70DDF80CB072B6654BC3F8842023
:105A8000BFF34F8F5A6922F480325A61BFF34F8FB0
:105A9000D3F88030C3F34E3EC3F3C9084FEA4E1C1F
:105AA0004FEA887A43F6E079594C0CEA09005246ED
:105AB000434642EA0001C4F87412013B02F140423D
:105AC000B3F1FF3FF5D10EF1FF3EACF1200CBEF17A
:105AD000FF3FEAD1BFF34F8FBFF36F8FBBF1000FD2
